:020000040800F2
:1000000000000520CD370108F1B30008FFB3000858
:1000100005B400080BB4000811B40008000000008B
:1000200000000000000000000000000017B40008FD
:1000300025B400080000000033B4000841B40008F3
:100040001D3801081D3801081D3801081D38010838
:100050001D38010879B4000887B400081D3801086C
:100060001D3801081D38010895B400081D38010825
:10007000A5B400081D380108B9B400081D380108EE
:10008000CDB40008E1B40008F5B400081D3801083B
:100090001D3801081D3801081D38010811B5000878
:1000A0001D38010821B500083DB5000859B5000804
:1000B0001D3801086DB5000881B500081D3801081C
:1000C0001D3801081D3801081D38010895B50008C4
:1000D000A9B50008BDB50008D1B50008E5B5000810
:1000E0001D3801081D3801081D3801081D38010898
:1000F000F9B500080DB600081D3801081D380108C3
:100100001D3801081D38010825B600081D380108F2
:100110001D3801081D38010839B600084DB6000821
:1001200061B6000875B6000889B600081D380108D8
:100130009DB600081D3801081D3801081D3801084A
:100140001D3801081D3801081D3801081D38010837
:100150001D380108B1B60008C5B60008D9B60008B8
:100160001D3801081D3801081D3801081D38010817
:100170001D3801081D3801081D3801080000000065
:100180001D3801081D3801081D380108EDB60008AA
:1001900001B700081D3801081D3801081D38010885
:1001A0001D3801081D3801081D3801081D380108D7
:1001B0001D3801081D3801081D3801081D380108C7
:0801C0001D3801081D3801087B
:1001D00010B5054C237833B9044B13B10448AFF381
:1001E00000800123237010BD980300200000000050
:1001F000185F010808B5034B1BB103490348AFF36F
:10020000008008BD000000009C030020185F01086A
:10021000034613F8012B002AFBD1181A0138704746
:1002200001F0FF01102A2BDB10F0070F08D010F8A7
:10023000013B013A8B422DD010F0070F42B3F6D1AB
:10024000F0B441EA012141EA014122F007047FF0C4
:1002500000070023F0E80256083C85EA010586EA1B
:10026000010685FA47F5A3FA87F586FA47F6A5FA57
:1002700087F68EB9EED1F0BC01F0FF0102F0070263
:1002800032B110F8013B013A83EA010313B1F8D10E
:100290000020704701387047002D06BF35460338EF
:1002A000073815F0010F07D1013015F4807F02BF28
:1002B000013015F4C03F0130F0BC0138704700BF79
:1002C00081F0004102E000BF83F0004330B54FEA07
:1002D00041044FEA430594EA050F08BF90EA020F74
:1002E0001FBF54EA000C55EA020C7FEA645C7FEA07
:1002F000655C00F0E2804FEA5454D4EB5555B8BF2A
:100300006D420CDD2C4480EA020281EA030382EA9A
:10031000000083EA010180EA020281EA0303362D2C
:1003200088BF30BD11F0004F4FEA01314FF4801CFF
:100330004CEA113102D0404261EB410113F0004F11
:100340004FEA03334CEA133302D0524263EB4303C8
:1003500094EA050F00F0A780A4F10104D5F1200E66
:100360000DDB02FA0EFC22FA05F2801841F10001C1
:1003700003FA0EF2801843FA05F359410EE0A5F195
:1003800020050EF1200E012A03FA0EFC28BF4CF0C6
:10039000020C43FA05F3C01851EBE37101F000457C
:1003A00007D54FF0000EDCF1000C7EEB00006EEB89
:1003B0000101B1F5801F1BD3B1F5001F0CD3490813
:1003C0005FEA30004FEA3C0C04F101044FEA44526A
:1003D00012F5800F80F09A80BCF1004F08BF5FEAF1
:1003E000500C50F1000041EB045141EA050130BDD1
:1003F0005FEA4C0C404141EB010111F4801FA4F174
:100400000104E9D191F0000F04BF01460020B1FAC8
:1004100081F308BF2033A3F10B03B3F120020CDA00
:100420000C3208DD02F1140CC2F10C0201FA0CF0DE
:1004300021FA02F10CE002F11402D8BFC2F1200C43
:1004400001FA02F120FA0CFCDCBF41EA0C019040F9
:10045000E41AA2BF01EB0451294330BD6FEA040442
:100460001F3C1CDA0C340EDC04F11404C4F120022D
:1004700020FA04F001FA02F340EA030021FA04F33F
:1004800045EA030130BDC4F10C04C4F1200220FA96
:1004900002F001FA04F340EA0300294630BD21FAD4
:1004A00004F0294630BD94F0000F83F4801306BF9A
:1004B00081F480110134013D4EE77FEA645C18BF8E
:1004C0007FEA655C29D094EA050F08BF90EA020F25
:1004D00005D054EA000C04BF1946104630BD91EA1D
:1004E000030F1EBF0021002030BD5FEA545C05D120
:1004F0004000494128BF41F0004130BD14F580045F
:100500003CBF01F5801130BD01F0004545F0FE41D2
:1005100041F470014FF0000030BD7FEA645C1ABF07
:10052000194610467FEA655C1CBF0B46024650EA3E
:10053000013406BF52EA033591EA030F41F400216A
:1005400030BD00BF90F0000F04BF0021704730B5F0
:100550004FF4806404F132044FF000054FF00001C5
:1005600050E700BF90F0000F04BF0021704730B586
:100570004FF4806404F1320410F0004548BF40425B
:100580004FF000013EE700BF42004FEAE2014FEAB0
:1005900031014FEA02701FBF12F07F4393F07F4F8B
:1005A00081F06051704792F0000F14BF93F07F4FBD
:1005B000704730B54FF4607401F0004521F0004100
:1005C00020E700BF50EA010208BF704730B54FF086
:1005D00000050AE050EA010208BF704730B511F08B
:1005E000004502D5404261EB41014FF4806404F1C3
:1005F00032045FEA915C3FF4DCAE4FF003025FEA45
:10060000DC0C18BF03325FEADC0C18BF033202EBCC
:10061000DC02C2F1200300FA03FC20FA02F001FA26
:1006200003FE40EA0E0021FA02F11444C1E600BFC5
:1006300070B54FF0FF0C4CF4E06C1CEA11541DBF78
:100640001CEA135594EA0C0F95EA0C0F00F0DEF843
:100650002C4481EA030621EA4C5123EA4C5350EA28
:10066000013518BF52EA033541F4801143F4801379
:1006700038D0A0FB02CE4FF00005E1FB02E506F00A
:100680000042E0FB03E54FF00006E1FB03569CF05F
:10069000000F18BF4EF0010EA4F1FF04B6F5007F65
:1006A00064F5407404D25FEA4E0E6D4146EB0606D7
:1006B00042EAC62141EA55514FEAC52040EA5E5060
:1006C0004FEACE2EB4F1FD0C88BFBCF5E06F1ED80A
:1006D000BEF1004F08BF5FEA500E50F1000041EB41
:1006E000045170BD06F0004646EA010140EA0200EE
:1006F00081EA0301B4EB5C04C2BFD4EB0C0541EA10
:10070000045170BD41F480114FF0000E013C00F324
:10071000AB8014F1360FDEBF002001F0004170BD48
:10072000C4F10004203C35DA0C341BDC04F1140461
:10073000C4F1200500FA05F320FA04F001FA05F2ED
:1007400040EA020001F0004221F0004110EBD370BA
:1007500021FA04F642EB06015EEA430E08BF20EAE6
:10076000D37070BDC4F10C04C4F1200500FA04F389
:1007700020FA05F001FA04F240EA020001F000411B
:1007800010EBD37041F100015EEA430E08BF20EA8E
:10079000D37070BDC4F1200500FA05F24EEA020ED6
:1007A00020FA04F301FA05F243EA020321FA04F005
:1007B00001F0004121FA04F220EA020000EBD370BC
:1007C0005EEA430E08BF20EAD37070BD94F0000FBC
:1007D0000FD101F00046400041EB010111F4801FF0
:1007E00008BF013CF7D041EA060195F0000F18BFA1
:1007F000704703F00046520043EB030313F4801FDD
:1008000008BF013DF7D043EA0603704794EA0C0F96
:100810000CEA135518BF95EA0C0F0CD050EA4106AC
:1008200018BF52EA4306D1D181EA030101F0004129
:100830004FF0000070BD50EA410606BF1046194651
:1008400052EA430619D094EA0C0F02D150EA01365D
:1008500013D195EA0C0F05D152EA03361CBF10469E
:1008600019460AD181EA030101F0004141F0FE413D
:1008700041F470014FF0000070BD41F0FE4141F4C1
:10088000780170BD70B54FF0FF0C4CF4E06C1CEAC1
:1008900011541DBF1CEA135594EA0C0F95EA0C0F76
:1008A00000F0A7F8A4EB050481EA030E52EA033531
:1008B0004FEA013100F088804FEA03334FF0805552
:1008C00045EA131343EA12634FEA022245EA11157F
:1008D00045EA10654FEA00260EF000419D4208BF30
:1008E000964244F1FD0404F5407402D25B084FEADD
:1008F0003202B61A65EB03055B084FEA32024FF489
:1009000080104FF4002CB6EB020E75EB030E22BFE5
:10091000B61A754640EA0C005B084FEA3202B6EBA5
:10092000020E75EB030E22BFB61A754640EA5C0054
:100930005B084FEA3202B6EB020E75EB030E22BFE4
:10094000B61A754640EA9C005B084FEA3202B6EBE5
:10095000020E75EB030E22BFB61A754640EADC00A4
:1009600055EA060E18D04FEA051545EA16754FEA06
:1009700006164FEAC30343EA52734FEAC2025FEA24
:100980001C1CC0D111F4801F0BD141EA00014FF0B3
:1009900000004FF0004CB6E711F4801F04BF014384
:1009A0000020B4F1FD0C88BFBCF5E06F3FF6AFAEA0
:1009B000B5EB030C04BFB6EB020C5FEA500C50F130
:1009C000000041EB045170BD0EF0004E4EEA1131B3
:1009D00014EB5C04C2BFD4EB0C0541EA045170BDBA
:1009E00041F480114FF0000E013C90E645EA060EFE
:1009F0008DE60CEA135594EA0C0F08BF95EA0C0F2C
:100A00003FF43BAF94EA0C0F0AD150EA01347FF473
:100A100034AF95EA0C0F7FF425AF104619462CE74A
:100A200095EA0C0F06D152EA03353FF4FDAE1046AD
:100A3000194622E750EA410618BF52EA43067FF4FE
:100A4000C5AE50EA41047FF40DAF52EA43057FF48E
:100A5000EBAE12E74FF0FF3C06E000BF4FF0010C99
:100A600002E000BF4FF0010C4DF804CD4FEA410CFD
:100A70007FEA6C5C4FEA430C18BF7FEA6C5C1BD0CA
:100A800001B050EA410C0CBF52EA430C91EA030F4B
:100A900002BF90EA020F0020704710F1000F91EAA8
:100AA000030F58BF994208BF90422CBFD8176FEA76
:100AB000E37040F0010070474FEA410C7FEA6C5C44
:100AC00002D150EA013C07D14FEA430C7FEA6C5C4B
:100AD000D6D152EA033CD3D05DF8040B704700BF77
:100AE0008446104662468C461946634600E000BFC5
:100AF00001B5FFF7B7FF002848BF10F1000F01BD97
:100B00004DF808EDFFF7F4FF0CBF012000205DF861
:100B100008FB00BF4DF808EDFFF7EAFF34BF0120E6
:100B200000205DF808FB00BF4DF808EDFFF7E0FF7F
:100B300094BF012000205DF808FB00BF4DF808EDD0
:100B4000FFF7CEFF94BF012000205DF808FB00BF37
:100B50004DF808EDFFF7C4FF34BF012000205DF819
:100B600008FB00BF4FEA410C7FEA6C5C02D150EAFF
:100B7000013C0AD14FEA430C7FEA6C5C02D152EA95
:100B8000033C02D14FF0000070474FF00100704766
:100B90004FEA410212F5001215D211D56FF47873A5
:100BA000B3EB625212D94FEAC12343F0004343EA48
:100BB000505311F0004F23FA02F018BF4042704723
:100BC0004FF00000704750EA013005D111F00040AD
:100BD00008BF6FF0004070474FF00000704700BF43
:100BE00053B94AB9002908BF00281CBF4FF0FF3194
:100BF0004FF0FF3000F07AB9ADF1080C6DE904CE8A
:100C000000F006F8DDF804E0DDE9022304B07047E7
:100C10002DE9F0478C460D460446089E002B51D125
:100C20008A4217466DD9B2FA82FEBEF1000F0BD090
:100C3000CEF1200C01FA0EF520FA0CFC02FA0EF7A8
:100C40004CEA050C00FA0EF44FEA174A250CBCFBDF
:100C5000FAF81FFA87F90AFB18CC45EA0C4508FB9D
:100C600009F3AB420AD9ED1908F1FF3280F0238174
:100C7000AB4240F22081A8F102083D44ED1AA4B233
:100C8000B5FBFAF00AFB105544EA054400FB09F9EC
:100C9000A14509D9E41900F1FF3380F00A81A1458B
:100CA00040F2078102383C44A4EB090440EA0840C2
:100CB0000021002E61D024FA0EF40023346073600A
:100CC000BDE8F0878B4207D9002E54D0002186E87A
:100CD00021000846BDE8F087B3FA83F1002940F00F
:100CE0008E80AB4202D3824200F2FA80841A65EB16
:100CF00003050120AC46002E3FD086E81010BDE869
:100D0000F08712B90127B7FBF2F7B7FA87FEBEF1F9
:100D1000000F34D1EB1B3A0C1FFA87FC0121B3FB07
:100D2000F2F8250C02FB183345EA03450CFB08F3E7
:100D3000AB4207D9ED1908F1FF3002D2AB4200F205
:100D4000D1808046ED1AA3B2B5FBF2F002FB10553C
:100D500043EA05440CFB00FCA44507D9E41900F163
:100D6000FF3302D2A44500F2B8801846A4EB0C046D
:100D700040EA08409DE731463046BDE8F087CEF1B5
:100D8000200405FA0EF307FA0EF720FA04F83A0CDD
:100D900025FA04F448EA0308B4FBF2F14FEA1845D7
:100DA00002FB11441FFA87FC45EA044501FB0CF3E2
:100DB000AB4200FA0EF409D9ED1901F1FF3080F0D1
:100DC0008A80AB4240F2878002393D44EB1A1FFA19
:100DD00088F5B3FBF2F002FB103345EA034500FB54
:100DE0000CF3AB4207D9ED1900F1FF386FD2AB42DB
:100DF0006DD902383D44EB1A40EA01418FE7C1F159
:100E0000200722FA07F88B4005FA01F448EA0303A9
:100E100020FA07FE4FEA134CFD404EEA040EB5FBE4
:100E2000FCF94FEA1E440CFB19551FFA83F844EAFB
:100E3000054509FB08F4AC4202FA01F200FA01FA96
:100E400008D9ED1809F1FF3043D2AC4241D9A9F1DC
:100E500002091D442D1B1FFA8EFEB5FBFCF00CFB96
:100E600010554EEA054400FB08F8A04507D9E418E0
:100E700000F1FF3529D2A04527D902381C4440EAA9
:100E80000940A4EB0804A0FB02894C45C6464D4628
:100E900015D312D056B1BAEB0E0364EB050404FA75
:100EA00007F7CB401F43CC40376074600021BDE89A
:100EB000F0871846F8E69046E0E6C245EAD2B8EB7D
:100EC000020E69EB03050138E4E72846D7E7404600
:100ED00091E78146BEE7014678E702383C4445E7A2
:100EE000084608E7A8F102083D442BE7704700BF19
:100EF00080B483B000AF0346FB802E4B93F82030C4
:100F0000022B0FD0032B1BD0012B27D12A4AFB88A1
:100F10009383284B5A8D274B1B8DD31A9AB2264B9D
:100F2000DA8341E0244AFB88A2F85430214B5A8DE1
:100F3000204B1B8DD31A9AB21F4BA3F8562033E0D7
:100F40001D4AFB88A2F88C301A4B5A8D194B1B8D09
:100F5000D31A9AB2184BA3F88E2025E0164AFB88C4
:100F60009383154AFB88A2F85430134AFB88A2F8F1
:100F70008C30104B5A8D0F4B1B8DD31A9AB20E4BDF
:100F8000DA830C4B5A8D0B4B1B8DD31A9AB20A4B3A
:100F9000A3F85620074B5A8D064B1B8DD31A9AB2D5
:100FA000054BA3F88E2000BF00BF0C37BD465DF88F
:100FB000047B7047E0070020FC05002080B400AFF0
:100FC0000D4B93F82030022B08D0032B0AD0012BB5
:100FD00000D00BE0094B10221A7007E0074B1322D8
:100FE0001A7003E0054B16221A7000BF00BFBD4601
:100FF0005DF8047B704700BFE00700202207002057
:1010000080B400AF134B93F82030022B07D0032B92
:1010100009D0012B0BD1104B11221A7011E00E4B8D
:1010200014221A700DE00C4B17221A7009E00A4BBB
:1010300011221A70084B14221A70074B17221A70CB
:1010400000BF064B96221A8000BFBD465DF8047BA8
:10105000704700BFE007002022070020F8060020AC
:1010600080B500AF324B1B7803F00203DBB2002BDC
:101070000ED0304B00221A702F4B00221A802F4BBB
:1010800002225A702A4A13786FF3410313704CE01E
:101090002B4B1B78002B48D02A4B00221A60274B81
:1010A0001B791B02254A527913441B02234A927969
:1010B00013441A46234B1A60224B1B68224A934260
:1010C0001DD81E4BDB68642202FB03F21D4B1B681C
:1010D0009A4217D21B4B1B681C4AA2FB03235B09D5
:1010E000164AD360154BDA68144B1B6901339A42D8
:1010F00008D9124BDB68013B104AD36002E00F4B6A
:101100000022DA600D4BDB689BB21846FFF7F0FE59
:101110000A4B012283F82C20084B03225A70074BFC
:1011200006221A81064B00221A7000BF80BD00BF44
:1011300018050020F605002010070020E007002019
:10114000EC060020B40300201FA107001F85EB510F
:1011500080B500AF0122012107480DF015FB0122E7
:10116000022105480DF010FB0BF024FB03480BF0A7
:10117000B1FB00BF80BD00BF000002406016002030
:1011800080B582B000AF0023FB710023BB71002348
:101190007B71364B1B89012B62D901220221344815
:1011A0000DF0F2FA0022012131480DF0EDFA002392
:1011B0007B710023BB7135E0BB792E4AD35CCA2B0F
:1011C0002DD1BB7901332B4AD35CFE2B27D1BB79C0
:1011D000284AD25C254B9A70BB790133254AD25CF0
:1011E000224BDA70BB790233224AD25C1F4B1A7150
:1011F000BB7903331F4AD25C1C4B5A71BB79043351
:101200001C4AD25C194B9A71BB790533194AD25CDE
:10121000164BDA7101237B710123FB7102E0BB796C
:101220000133BB717B7983F00103DBB2002B02D069
:10123000BB79062BC0D90023BB7106E0BB790D4AF0
:101240000021D154BB790133BB71BB790B2BF5D98C
:10125000064B03225A620C220649074811F018FA7D
:10126000FB7918460837BD4680BD00BFE007002067
:1012700000000240E80500206016002080B584B020
:1012800000AF03460A46FB711346BB8000220121D2
:1012900019480DF079FA0122022117480DF074FA6D
:1012A000F91D4FF47A730122144811F060F9BB88DC
:1012B000012B1CD90023FB7307E0FB7B104A13446E
:1012C00000229A70FB7B0133FB73FB7B052BF4D967
:1012D0000122022108480DF057FA00220121064898
:1012E0000DF052FA0C220749044811F0D1F900BF61
:1012F0001037BD4680BD00BF0000024060160020D0
:10130000E0070020E805002080B586B000AF034666
:10131000FB710B46BB8013467B804FF47A737B6175
:101320000023FB747B88BB81614B93F82C30002B2E
:1013300000F0B8805E4BDA68BB899A4205D27A88A1
:101340005B4BDB68D31A7B6104E0594BDA68BB89DD
:10135000D31A7B61BA887B699A4205D8544BDB6803
:10136000BA89023A934236D90123FB74FA7951497A
:101370001346DB0013449B000B44133301221A7005
:10138000FA794C491346DB0013449B000B4412339B
:1013900001221A7000233B82454B93F82030022B28
:1013A0000BD0032B10D0012B00D013E000224FF400
:1013B000806141480DF0E8F90CE000224FF48071A3
:1013C0003D480DF0E1F905E0002201213B480DF018
:1013D000DBF900BF31E00023FB730AE0FB7B384AF6
:1013E00032F813301A467B699A4206D9FB7B0133E7
:1013F000FB73FB7B132BF1D900E000BFFB7B142BAD
:1014000002D1FB7B013BFB73FA792A491346DB00CF
:1014100013449B000B44133300221A70FA792549B8
:101420001346DB0013449B000B44123300221A7056
:10143000FB7B244A32F813303B82FA791D4913466C
:10144000DB0013449B000B4403F11802937843F034
:1014500004039370FA7917491346DB0013449B0089
:101460000B4403F11802937843F001039370FA7967
:1014700010491346DB0013449B000B4403F1180290
:10148000937843F002039370FA790A491346DB001C
:1014900013449B000B4416333A8A1A80044B0022F3
:1014A00083F82C20FB7C18461837BD4680BD00BF52
:1014B000E0070020880400200010024000040240E1
:1014C000000000202800002080B500AFFFF7C8FD15
:1014D000AA4B5B780E2B00F2928201A252F823F005
:1014E000FF1900081D1500089F1500082F19000896
:1014F00023180008FF190008631800080F190008D6
:10150000FF1900089F18000823160008FF1900089B
:101510002F1500089316000867170008FFF718FE3C
:10152000964B00225A70964B00221A8074E2934B1D
:101530005B6A002B40F06582904B0022DA608F4B93
:10154000DB689BB21846FFF7D3FC8E4B35221A702E
:101550008B4B1B8801339AB2894B1A80884B1B88AE
:10156000022B09D9854B02225A70874B00221A7030
:10157000834B00221A8044E2804B54221A707F4B26
:1015800001221A817D4B0A225A627C4B0C225A702E
:101590007A4B1B7801211846FFF770FE31E2774B3A
:1015A0005B6A002B40F02F82744B4FF47A72DA6042
:1015B000724BDB689BB21846FFF79AFC714B3522E1
:1015C0001A70714B1B780133DAB26F4B1A706E4B85
:1015D0001B78032B12D9694B00225A70694B3622B3
:1015E0001A70664B0022DA60644BDB689BB21846C7
:1015F000FFF77EFC644B00221A7004E25F4B43222B
:101600001A705E4B02225A705C4B01221A815B4BAE
:101610000F225A62594B1B7801211846FFF72EFE04
:10162000F1E1564B5B6A002B40F0EF81534B0022F7
:10163000DA60524BDB689BB21846FFF759FC4F4B00
:10164000A8221A854E4B1B8801339AB24C4B1A8044
:101650004B4B1B88022B09D9484B09225A70474B28
:1016600000225A62464B00221A80CEE1434B54229C
:101670001A70424B01221A81404B0A225A623F4B98
:101680001B7801211846FFF7F9FD3C4B0A225A70DE
:10169000BBE13A4B0022DA60384B5A8D374B1A8542
:1016A000FFF78CFC354BDB689BB21846FFF720FC3C
:1016B000324B93F820301946344A0B46DB000B447A
:1016C0009B001344133300221A702C4B93F82030E4
:1016D00019462E4A0B46DB000B449B001344123381
:1016E00000221A70254B93F820301946274A0B46E2
:1016F000DB000B449B00134416333C221A801F4B23
:1017000093F820301946214A0B46DB000B449B001E
:10171000134403F11802937843F004039370174BBA
:1017200093F820301946194A0B46DB000B449B0006
:10173000134403F11802937843F0010393700F4BA5
:1017400093F820301946114A0B46DB000B449B00EE
:10175000134403F11802937843F002039370074B8C
:101760000E225A7058E1054B1B8D002B10D0034BF5
:10177000DB689BB21846FFF7BBFB4DE1E00700209A
:101780001007002022070020F60500208804002012
:10179000A24B00221A85A14BDB689BB21846FFF7CB
:1017A000A7FBFFF72DFC9D4B93F8203019469C4A70
:1017B0000B46DB000B449B001344133301221A70C9
:1017C000964B93F820301946954A0B46DB000B44A4
:1017D0009B001344163300221A80904B93F820305C
:1017E00019468F4A0B46DB000B449B00134403F160
:1017F0001802937843F004039370884B93F82030D9
:101800001946874A0B46DB000B449B00134403F147
:101810001802937843F001039370804B00225A70B2
:10182000FAE0804B1B8801339AB27E4B1A807D4BC5
:101830001B88012B40F2EB80FFF7C0FB774B532254
:101840001A70764B00225A70774B00221A60734B45
:1018500000221A81714B1B7800211846FFF70EFDFC
:10186000D5E06E4B1B784D2B0CD06C4B08225A7078
:101870006A4B01221A81694B1B7801211846FFF738
:10188000FDFCC9E0654B06221A81644B09225A709F
:10189000624B1B7806211846FFF7F0FCBCE05F4B5B
:1018A0005B6A002B40F0B5805E4B1B8801339AB217
:1018B0005C4B1A805B4B1B88012B15D9574B4D2273
:1018C0001A70564B06221A81544B03225A62534B0C
:1018D00003225A70514B1B7806211846FFF7CEFCA5
:1018E000504B00221A8094E04C4B4D221A704B4B07
:1018F00009225A70494B01221A81484B0A225A6226
:10190000464B1B7801211846FFF7B8FC81E0434B9A
:1019100054221A70414B08225A70404B01221A81FE
:101920003E4B1B7801211846FFF7A8FC74E03B4BA7
:101930005B6A002B07D1394B06221A81FFF720FC86
:10194000364B03225A70354B06221A81334B1B8DBE
:10195000002B24D0314B93F82000304B1B699BB2F5
:101960001A460121FFF7D0FC0346002B53D0FFF7A6
:1019700047FB2A4B53221A70284B00225A702A4BDD
:1019800000221A60254B00221A81264B00221A8061
:10199000224B1B7800211846FFF770FC3BE01F4BE1
:1019A00042F20F72DA601D4B012283F82C201B4B90
:1019B000DB689BB21846FFF79BFA184B93F82000A0
:1019C000164B1B699BB21A460121FFF79DFCFFF7DE
:1019D00017FB124B53221A70104B00225A70124BF5
:1019E00000221A600D4B00221A810E4B00221A8031
:1019F0000A4B1B7800211846FFF740FC0BE000BFA4
:101A00000AE000BF08E000BF06E000BF04E000BF3E
:101A100002E000BF00E000BF00BF80BDE007002083
:101A20008804002010070020B403002080B485B093
:101A300000AF03460A46FB711346BB80BB8847F2E2
:101A40003052934202D90323FB6004E0BB88124A60
:101A500092FBF3F3FB60FB79002B02D0012B0AD041
:101A600013E00E4B1B68FA68013ADA62FB68013B2F
:101A70000A4AD36009E0094B1B68FA68013ADA6246
:101A8000FB68013B054AD36000BF00BF1437BD4669
:101A90005DF8047B704700BFA08601006011002044
:101AA00080B487B000AF03460A46FB711346BB8083
:101AB00000237B6100237B82BB88642B0DD8BB880D
:101AC000C3F164037B61BB88092B08D9BB88244A16
:101AD000A2FB0323DB087B8201E00A237B82FB79E4
:101AE0007A8A20498A5C92B2114609018A1A9200C8
:101AF00091B21D4A5B01134410330A461A80FB79E8
:101B0000002B02D0012B12D023E0184BDB680133ED
:101B1000FB607B69FA6802FB03F3154AA2FB03230F
:101B20005B097B61114B1B687A695A6311E00F4BAB
:101B3000DB680133FB607B69FA6802FB03F30C4A44
:101B4000A2FB03235B097B61084B1B687A699A63DC
:101B500000BF00BF1C37BD465DF8047B704700BF67
:101B6000CDCCCCCCEC6101083C05002060110020FC
:101B70001F85EB5180B582B000AF03460A46FB716A
:101B80001346BB71FB79002B02D0012B1DD039E02D
:101B9000BB79002B09D1FB791C4A5B0113441B68FC
:101BA00019461B480FF0FCFA08E0FB79174A5B0165
:101BB00013441B68194616480FF0AEFABB791A4653
:101BC000202114480CF0E0FD1CE0BB79002B09D16A
:101BD000FB790E4A5B0113441B6819460C480FF051
:101BE000DFFA08E0FB79094A5B0113441B681946D8
:101BF00007480FF091FABB791A46102105480CF0FE
:101C0000C3FD00BF00BF0837BD4680BD3C050020B6
:101C1000601100200008024080B483B000AF554B33
:101C20009B7D03F00103DBB2002B67D0524BB3F96D
:101C300022301A464F4BDB8B9A4204DD3C23BB809B
:101C40005023FB802AE04C4BB3F922301A46494B13
:101C50009B8B9A4204DD3223BB804623FB801DE030
:101C6000454BB3F922301A46424B5B8B9A4204DD56
:101C70002823BB803C23FB8010E03F4BB3F922308C
:101C80001A463C4B1B8B9A4204DD1E23BB80322339
:101C9000FB8003E01423BB802823FB80BA88354BEC
:101CA0001B899A420FD0BA88324B1A81314A137D70
:101CB00043F0010313752F4B01221A712D4A137D36
:101CC00043F004031375FA882A4B1B8D9A424BD0BC
:101CD000FA88284B1A85274A92F8343043F00103DA
:101CE00082F83430234B012283F82420214A92F8D1
:101CF000343043F0040382F8343035E01D4B9B7DD3
:101D000003F00203DBB2002B2ED01A4BDB7D1B123B
:101D10009BB2BB80BA88174B1B899A4224D0BA88E1
:101D2000144B1A81FA88134B1A85124A137D43F01B
:101D3000010313750F4A92F8343043F0010382F81F
:101D400034300C4B01221A710A4B012283F82420F3
:101D5000084A137D43F004031375064A92F83430A1
:101D600043F0040382F8343000BF0C37BD465DF801
:101D7000047B70473C0500207C05002080B582B0C4
:101D800000AF0023FB71FFF747FF0023FB7162E008
:101D9000FB79344A5B01134410331B79C3F3C0034E
:101DA000DBB2002B14D0FB792E4A5B0113440633BF
:101DB0001A88FB7911461846FFF738FEFB79294A45
:101DC0005B01134403F1100213796FF3C303137122
:101DD000FB79244A5B01134410331B79C3F30003DE
:101DE000DBB2002B14D0FB791E4A5B01134408338D
:101DF0001A88FB7911461846FFF752FEFB79194AFB
:101E00005B01134403F1100213796FF300031371A4
:101E1000FB79144A5B01134410331B79C3F380032D
:101E2000DBB2002B14D0FB790E4A5B011344043360
:101E30001A78FB7911461846FFF79CFEFB79094A90
:101E40005B01134403F1100213796FF382031371E2
:101E5000FB790133FB71FB79012B99D900BF08375E
:101E6000BD4680BD3C05002080B582B000AF364B3A
:101E700000221A60344B04221A62334B1E22DA838A
:101E8000314B1C229A83304B1B225A832E4B132238
:101E90001A832D4A937D43F0010393750023FB7150
:101EA0004BE0FB79284A5B011344043301221A708A
:101EB000FB79002B07D1FB79234A5B0113440833DC
:101EC00014221A8006E0FB791F4A5B011344083391
:101ED00028221A80FB791C4A5B011344103300222C
:101EE0001A80FB79184A5B01134406334FF47A7267
:101EF0001A80FB79144A5B01134406331A88FB7974
:101F000011461846FFF792FDFB790F4A5B01134417
:101F100008331A88FB7911461846FFF7C1FDFB7993
:101F2000094A5B01134404331A78FB7911461846B9
:101F3000FFF720FEFB790133FB71FB79012BB0D950
:101F400000BF0837BD4680BD3C05002080B582B08B
:101F500000AF0346FB7101224FF4006110480CF002
:101F600013FC01224FF480510D480CF00DFCFB795D
:101F70009AB24FF47A730B490B4810F0F8FA00222A
:101F80004FF4805106480CF0FFFB00224FF4006133
:101F900003480CF0F9FB00BF0837BD4680BD00BF09
:101FA00000000240E0080020E014002080B487B068
:101FB00000AF0346FB714FF6FF737B610023FB7498
:101FC00021E0FB7C1B4AD35C1A467B6953407B6152
:101FD0000123BB7411E07B6903F00103FB607B69A3
:101FE0005B087B61FB68002B04D07A694AF201032D
:101FF00053407B61BB7C0133BB74BB7C082BEAD9AB
:10200000FB7C0133FB74FA7CFB799A42D9D37B6960
:102010001B0ABB607B691A02BB6813437B617B6947
:102020009BB27B617B6918461C37BD465DF8047B1B
:10203000704700BFE008002080B500AF00224FF4D9
:10204000006109480CF0A0FB01224FF480510648C2
:102050000CF09AFB0AF07EFB04480AF03BFC044BB0
:1020600004221A8000BF80BD00000240E01400205E
:102070004C07002080B400AF164B93F88330012B3F
:1020800022D1144B93F856301B021AB2114B93F81D
:1020900057301BB213431BB29AB20E4B1A830D4B2F
:1020A0001A8B0C4BA3F840200A4B002283F85620D1
:1020B000084B002283F85720064B002283F8832028
:1020C000044B0022A3F84A2000BFBD465DF8047B04
:1020D000704700BF4C07002080B582B000AF0346B8
:1020E000FB7100224FF480510E480CF04DFB002292
:1020F0004FF400610B480CF047FB0B4B002283F8B8
:102100008320FB799BB21A460849094810F0C0FAAF
:10211000054B4FF49672A3F84A2000BF0837BD461E
:1021200080BD00BF000002404C0700209F07002038
:10213000E014002080B588B000AF3A601A4603462C
:10214000FB710B46BB801346BB71A34B01221A7077
:10215000A14AFB795370BB881B0A9BB2DAB29E4B33
:102160009A70BB88DAB29C4BDA70FB79023B0E2B7B
:1021700000F22D8101A252F823F000BFCF23000806
:1021800057220008892200087F230008CF23000877
:10219000CF230008CF230008CF230008CF23000857
:1021A000CF230008CF230008CF230008CF23000847
:1021B000E3220008B9210008BB791B12DAB2864B72
:1021C0001A71854ABB795371BB795B00FB77824AF0
:1021D000FB7F9371FB7F09333B770723BB77BB7989
:1021E000FB7600237B7719E07B7F5B003A68134422
:1021F0001B887B61BB7F7A69120AD1B2764AD154BF
:10220000BB7F0133BB77BB7F7A69D1B2724AD154AD
:10221000BB7F0133BB777B7F01337B777A7FFB7E8C
:102220009A42E1D33B7F023BDBB21846FFF7BEFE8A
:1022300038613B7F023B3A69120AD1B2664AD154F7
:102240003B7F013B3A69D1B2634AD1543B7F184688
:10225000FFF77CFEBCE0BB791B12DAB25E4B1A7151
:102260005D4ABB7953710620FFF7A0FE38613B69D8
:102270001B0ADAB2584B9A713B69DAB2564BDA71E3
:102280000820FFF763FEA3E0BB791B12DAB2524BC2
:102290001A71514ABB7953710620FFF787FE3861E6
:1022A0003B691B0ADAB24C4B9A713B69DAB24A4B72
:1022B000DA710820FFF74AFE484B042283F84C20CD
:1022C000464B012283F84D20444ABB7982F85030B6
:1022D000BB795B00DBB20533DAB2404B83F85120A7
:1022E00076E0BB791B12DAB23B4B1A713A4ABB79E2
:1022F00053713B681B88FB81BB79082B02D80123F3
:10230000FB7701E00223FB77334AFB7F9371FB7F6E
:1023100009333B770723BB77BB79FB76BB79082B67
:1023200005D8BB7FFA89D1B22B4AD1540EE0BB7FCE
:10233000FA89120A92B2D1B2274AD154BB7F013333
:10234000BB77BB7FFA89D1B2234AD1543B7F023B92
:10235000DBB21846FFF72AFE38613B7F023B3A6941
:10236000120AD1B21C4AD1543B7F013B3A69D1B227
:10237000194AD1543B7F1846FFF7E8FD28E0164B79
:1023800000221A71144B00225A713B681B881AB242
:10239000BB88012101FA03F31BB213401BB2FB817E
:1023A000FB89002B02D00C4BFF221A710620FFF78D
:1023B000FDFD38613B691B0ADAB2074B9A713B6934
:1023C000DAB2054BDA710820FFF7C0FD00E000BF6C
:1023D00000BF2037BD4680BDE00800204C0700202C
:1023E00080B500AFB94B1B880C2B00F29B8201A279
:1023F00052F823F02529000837250008D9250008C0
:10240000F3270008292400088724000893270008E0
:10241000EF24000863260008252900082529000864
:10242000BB240008EF280008A84BB3F84830002B65
:1024300040F07A82A54B28221A86A44B00225A86A5
:10244000A24B00229A86A14B0522DA869F4B0F22CF
:102450001A879E4B4FF4FA725A879C4B40F28E3289
:102460009A879A4B0022DA870723994A0021102085
:10247000FFF760FE954B4FF49672A3F84820934BFC
:1024800005221A8050E2914BB3F84830002B40F0FF
:102490004D828E4A137B6FF34103137301238D4AE0
:1024A00001210520FFF746FE884B4FF49672A3F8F2
:1024B0004820864B00221A8038E2844BB3F848301B
:1024C000002B40F03582814A137B43F004031373E1
:1024D0000123804A02210520FFF72CFE7B4B4FF49D
:1024E0009672A3F84820794B00221A8020E2774B9D
:1024F00093F88530012B03D1774B01221A7002E04B
:10250000754B40221A70714A137B6FF341031373AA
:102510000123704A01210520FFF70CFE6B4B4FF49D
:102520009672A3F848206D4B0A2283F8DE20674B91
:1025300001221A8009E2654B93F88530012B03D103
:10254000654B01221A7002E0634B40221A705F4B08
:10255000B3F84830002B40F0ED81604B93F8DE304B
:10256000002B40F0E781594A137B43F001031373BA
:102570000123584A00210520FFF7DCFD534B41F6AB
:1025800058325A81564B1E221A81554B37221A85D2
:10259000534A137D43F001031375514A92F83430C6
:1025A00043F0010382F83430484B4FF49672A3F89D
:1025B0004820464B0022A3F84A20444B002283F8CF
:1025C00083209FED480A05F057FB434B07221A7002
:1025D0003E4B03221A80ADE13C4B93F88530012B32
:1025E00003D13D4B01221A7002E03B4B07221A70C7
:1025F000364BB3F84830002B40F09E81334A137BB2
:102600006FF3000313730123324A00210520FFF703
:1026100091FD2E4B6422A3F84820334B0A22DA8323
:10262000314B9A8B304BDA832D4B14221A812C4B71
:1026300028221A852A4A137D43F001031375284A7C
:1026400092F8343043F0010382F834309FED270ACA
:1026500005F012FB264B01221A701C4B08221A802F
:102660006AE11A4B93F88530012B03D11A4B0122F2
:102670001A7002E0184B07221A701B4BDB8B002BE1
:102680006AD1194B0022DA82174B0122DA74164AFA
:10269000937E43F001039376134A937E43F0040341
:1026A0009376114B0A22DA83114B1B78002B21D031
:1026B0000F4B1B78013BDAB20D4B1A70064B072209
:1026C0001A70024B06221A8038E100BF4C07002026
:1026D0007C0700205807002022070020FC0500206E
:1026E0003C05002000001644880400200000000083
:1026F000B8030020964BB3F84830002B40F01E8101
:10270000944B93F83630002B40F01881914B93F89E
:102710006E30002B40F012818E4B93F8A630002BC8
:1027200040F00C818A4A137B6FF30003137301237B
:10273000894A00210520FFF7FDFC854B4FF4967276
:10274000A3F84820854B08221A70854B96221A80E0
:102750007F4B00221A80F1E07D4BB3F84830B3F58F
:10276000967F80F0EB807A4BB3F84830C82B40F26C
:10277000E580774A137B43F0010313730223764A03
:1027800000210F20FFF7D6FC714BBE22A3F8482092
:10279000D4E0724B07221A70724BDB8B002B40F097
:1027A000CF80704B5022DA826E4B0022DA746D4A71
:1027B000937E43F0010393766A4A937E43F00403C9
:1027C0009376684B40F6AC52DA83614A137B43F050
:1027D000020313730123604A01210520FFF7AAFCBD
:1027E0005B4B4FF41672A3F84820594B08221A800D
:1027F000A6E0574B93F88530012B03D1574B0122AC
:102800001A7002E0554B07221A70514B5B89002B5E
:1028100003D14F4B02221A802CE04D4B5B8941F6CD
:102820006412934226D94A4B93F84430012B07D1C6
:10283000474B002283F84420464B032283F836207E
:10284000434B93F84530012B07D1414B002283F8CD
:102850004520404B032283F86E203D4B93F84630D1
:10286000012B07D13A4B002283F84620394B032233
:1028700083F8A6203B4BDB7C002B1DD0344B5B89BF
:1028800041F27B52934217D8364B5022DA82354BB5
:1028900001229A74334B0022DA74324A937E43F059
:1028A000020393762F4A937E43F0010393762D4AD9
:1028B000937E43F004039376FFF7DCFB244BB3F8DD
:1028C0004830002B3ED1284810F074F80123274AE5
:1028D00004210420FFF72EFC1D4B93F851301846BD
:1028E000FFF7FAFB1A4B5A22A3F848202AE01B4BA9
:1028F00007221A70174B93F83630002B24D1154B52
:1029000093F86E30002B1FD1124B93F8A630002B9A
:102910001AD10F4B4FF49672A3F848200C4B0222A9
:102920001A8011E000BF10E000BF0EE000BF0CE015
:1029300000BF0AE000BF08E000BF06E000BF04E0FF
:1029400000BF02E000BF00E000BF00BF80BD00BFCD
:102950004C070020FC05002058070020220700201B
:10296000F806002088040020E01400205C07002006
:1029700080B485B000AF03460A46FB711346BB80A6
:10298000BB8847F23052934202D92123FB6004E016
:10299000BB88214A92FBF3F3FB60FB79032B33D80E
:1029A00001A252F823F000BFF5290008B929000858
:1029B000CD290008E1290008184B1B68FA68013A84
:1029C000DA62FB68013B154AD3601EE0134B1B68BB
:1029D000FA68013ADA62FB68013B104AD36014E0FE
:1029E0000E4B1B68FA68013ADA62FB68013B0B4A3E
:1029F000D3600AE00A4B1B68FA68013ADA62FB68A6
:102A0000013B074AD36000E000BF00BF1437BD465A
:102A10005DF8047B704700BF40420F00601000204B
:102A2000A00F002080B485B000AF03460A46FB71BA
:102A30001346BB806423FB60BB88632B01D8BB8833
:102A4000FB60FB79032B53D801A252F823F000BF9F
:102A5000CD2A0008612A0008852A0008A92A000852
:102A6000274BDB680133BB60FB68BA6802FB03F3EA
:102A7000244AA2FB03235B09FB60214B1B68FA6815
:102A80009A6336E01E4BDB680133BB60FB68BA68B3
:102A900002FB03F31B4AA2FB03235B09FB60184BF9
:102AA0001B68FA68DA6324E0154BDB680133BB600E
:102AB000FB68BA6802FB03F3124AA2FB03235B091B
:102AC000FB600F4B1B68FA681A6412E00E4BDB6860
:102AD0000133BB60FB68BA6802FB03F3094AA2FB3F
:102AE00003235B09FB60084B1B68FA68DA6300E0AC
:102AF00000BF00BF1437BD465DF8047B704700BFC0
:102B0000601000201F85EB51A00F002080B582B01F
:102B100000AF03460A46FB711346BB71FB79032BDA
:102B200029D801A252F823F0672B0008392B00089E
:102B3000472B0008572B0008BB791A468021104804
:102B40000BF022FE18E0BB791A464FF480710D4855
:102B50000BF01AFE10E0BB791A464FF48061094869
:102B60000BF012FE08E0BB791A464FF4004105480D
:102B70000BF00AFE00E000BF00BF0837BD4680BD75
:102B800000100240000C024080B582B000AF034646
:102B90000A46FB711346BB71FB79032B58D801A27F
:102BA00052F823F02B2C0008B52B0008DB2B000873
:102BB000032C0008BB79012B04D1042127480EF017
:102BC000EFFA03E0042125480EF0A6FABB791A4675
:102BD000022123480BF0D8FD3BE0BB79012B04D147
:102BE00008211E480EF0DCFA03E008211B480EF015
:102BF00093FABB791A464FF400711A480BF0C4FDE2
:102C000027E0BB79012B04D10C2114480EF0C8FA3F
:102C100003E00C2111480EF07FFABB791A464FF4FD
:102C200080410F480BF0B0FD13E0BB79012B04D1BC
:102C300008210D480EF0B4FA03E008210A480EF00E
:102C40006BFABB791A46042105480BF09DFD00E0A4
:102C500000BF00BF0837BD4680BD00BF6010002028
:102C600000180240000C0240A00F002080B582B086
:102C700000AF0023FB710023FB71A6E0FA795749EE
:102C80001346DB0013449B000B4418339B78C3F3BB
:102C9000C003DBB2002B1AD0FA7950491346DB008F
:102CA00013449B000B4414331A88FB7911461846D1
:102CB000FFF75EFEFA7949491346DB0013449B0097
:102CC0000B4403F1180293786FF3C3039370FA79FE
:102CD00042491346DB0013449B000B4418339B7896
:102CE000C3F30003DBB2002B1AD0FA793B49134639
:102CF000DB0013449B000B4416331A88FB79114602
:102D00001846FFF78FFEFA7934491346DB00134467
:102D10009B000B4403F1180293786FF30003937048
:102D2000FA792E491346DB0013449B000B441833F9
:102D30009B78C3F34003DBB2002B1AD0FA79274902
:102D40001346DB0013449B000B4412331A78FB79C3
:102D500011461846FFF7DAFEFA7920491346DB00E0
:102D600013449B000B4403F1180293786FF3410363
:102D70009370FA7919491346DB0013449B000B4406
:102D800018339B78C3F38003DBB2002B1AD0FA7997
:102D900012491346DB0013449B000B4413331A788B
:102DA000FB7911461846FFF7EFFEFA790B491346F7
:102DB000DB0013449B000B4403F1180293786FF37C
:102DC00082039370FB790133FB71FB79032B7FF650
:102DD00055AF00BF0837BD4680BD00BF8804002046
:102DE00080B400AF274B1B78022B03D0254B1B78F8
:102DF000072B2CD1244B1B7803F02003DBB2002BD4
:102E000010D0224B5022DA82204B0022DA741F4A63
:102E1000937E43F0010393761C4A937E43F00403B0
:102E2000937629E0194BDB7C002B25D1174B002230
:102E3000DA82164B0122DA74144A937E43F00103BE
:102E40009376124A937E43F00403937614E00F4B7B
:102E5000DB7C002B11D10D4B0022DA820B4B0122BF
:102E6000DA740A4A937E43F001039376074A937E0D
:102E700043F00403937600E000BF00BFBD465DF859
:102E8000047B7047220700203007002088040020C0
:102E900080B582B000AF0023FB717BE0FA79414935
:102EA0001346DB0013449B000B44133301221A70BA
:102EB000FA793C491346DB0013449B000B44123360
:102EC00000221A70FA7937491346DB0013449B003D
:102ED0000B44163300221A80FA7932491346DB007C
:102EE00013449B000B44183300221A80FB79002BFB
:102EF0000BD1FA792B491346DB0013449B000B449A
:102F000014334FF47A721A8009E0FA79254913468E
:102F1000DB0013449B000B44143364221A80FA79BB
:102F200020491346DB0013449B000B4414331A88DA
:102F3000FB7911461846FFF71BFDFA79194913462C
:102F4000DB0013449B000B4416331A88FB791146AF
:102F50001846FFF767FDFA7912491346DB00134460
:102F60009B000B4412331A78FB7911461846FFF781
:102F7000CDFDFA790B491346DB0013449B000B444B
:102F800013331A78FB7911461846FFF7FDFDFB79DC
:102F90000133FB71FB79032B80D900BF0837BD4695
:102FA00080BD00BF8804002080B588B000AFF86005
:102FB000B9607A603B60FB683B61BB687B617B68A2
:102FC000BB613B68FB61BB68012B68D93B68012B87
:102FD00065D9FB681B78013B0F2B5FD801A252F823
:102FE00023F000BF253000083530000845300008C8
:102FF0005530000865300008733000089D30000827
:103000009D3000089D3000089D3000089D3000086C
:103010009D3000089D3000089D3000088130000878
:103020008F30000807F110031946012000F08AF8DC
:1030300003463BE007F110031946002000F082F838
:10304000034633E007F110031946032000F01AF994
:1030500003462BE007F110031946022000F012F995
:10306000034623E007F11003184600F099F90346E0
:103070001CE007F11003184600F0D7F9034615E0ED
:1030800007F11003184600F019FA03460EE007F1A5
:103090001003184600F094FA034607E000BF07F15A
:1030A00010030121184600F005F8034618462037A2
:1030B000BD4680BD80B483B000AF78600B46FB7026
:1030C0007B68DB68012B0FD97B689B687A68126884
:1030D000127862F07F02D2B21A707B689B6801336B
:1030E000FA781A70022300E0002318460C37BD4618
:1030F0005DF8047B704780B485B000AF78603960BC
:103100007B68DA683B689A4215D30023FB600CE0C9
:103110007B689A68FB6813447A681168FA680A4405
:1031200012781A70FB680133FB60FA683B689A42B8
:10313000EED33B6800E0002318461437BD465DF827
:10314000047B704780B586B000AF03463960FB71E1
:103150003B685B68042B05D801213868FFF7AAFF9C
:1031600003468BE03B681B6801331B781B021AB2D5
:103170003B681B6802331B781BB213431BB23B82B4
:103180003B681B6803331B781B021AB23B681B6841
:1031900004331B781BB213431BB2FB813B689B6853
:1031A0003A68126812781A703B689B680133FA8992
:1031B0000732D210D2B21A703B689B6801331B7879
:1031C0001A463B68DB68023B9A4205D90121386800
:1031D000FFF770FF034651E002237B6146E03B6846
:1031E0009A687B69134400221A700123FB7434E04F
:1031F000FB79002B07D13B8A5A1C3A82184600F013
:1032000097FCB86006E03B8A5A1C3A82184600F0E8
:103210009CFCB860BB68002B09DABB68DBB25B4280
:10322000DBB219463868FFF745FF034626E0BB6866
:10323000002B0CDD3B689A687B6913443A689168FF
:103240007A690A441178FA7C0A43D2B21A70FB7C7C
:103250005B00FB74FB89013BFB81FB7C002B02D0F4
:10326000FB89002BC4D17B6901337B61FB89002B77
:10327000B5D13B689B6801331B7802331846183779
:10328000BD4680BD80B586B000AF03463960FB7196
:103290003B685B68042B05D801213868FFF70AFFFB
:1032A000034679E03B681B6801331B781B021AB2A6
:1032B0003B681B6802331B781BB213431BB2FB81B4
:1032C0003B681B6803331B781B021AB23B681B6800
:1032D00004331B781BB213431BB2BB813B689B6852
:1032E0003A68126812781A703B689B680133BA8991
:1032F000D2B25200D2B21A703B689B6801331B787D
:103300001A463B68DB68023B9A4205D901213868BE
:10331000FFF7D0FE03463FE002237B6132E0FB79FA
:10332000022B05D1FB89184600F02CFC386104E023
:10333000FB89184600F034FC38613B69002B09DA40
:103340003B69DBB25B42DBB219463868FFF7B2FE7D
:10335000034621E03B689A687B6913443A6992B25C
:10336000120A92B2D2B21A703B689A687B69013332
:1033700013443A69D2B21A707B6902337B61FB89CC
:103380000133FB81BB895A1EBA81002BC7D13B6830
:103390009B6801331B78023318461837BD4680BD41
:1033A00080B586B000AF78607B685B68042B05D879
:1033B00001217868FFF77EFE034632E07B681B68D8
:1033C00001331B781B027A681268023212781343A9
:1033D0007B617B681B6803331B781B027A68126869
:1033E0000432127813433B617B699BB23A6992B213
:1033F0001146184600F0B6FBF860FB68002B09D0B8
:10340000FB68DBB25B42DBB219467868FFF752FE1D
:10341000034606E07B685B6819467868FFF76BFE39
:10342000034618461837BD4680BD80B584B000AF4E
:1034300078607B685B68042B05D801217868FFF70A
:1034400039FE034636E07B681B6801331B781B029C
:103450001AB27B681B6802331B781BB213431BB282
:10346000FB817B681B6803331B781B021AB27B68E5
:103470001B6804331B781BB213431BB2BB81BA8990
:10348000FB891146184600F0E3FEB860BB68002BCC
:1034900009D0BB68DBB25B42DBB219467868FFF744
:1034A00009FE034606E07B685B6819467868FFF70B
:1034B00022FE034618461037BD4680BD80B588B051
:1034C00000AF78607B685B68042B05D801217868C1
:1034D000FFF7F0FD03466FE07B681B6801331B7844
:1034E0001B021AB27B681B6802331B781BB21343A2
:1034F0001BB2FB837B681B6803331B781B021AB269
:103500007B681B6804331B781BB213431BB2BB835D
:103510007B681B685B79FB740623BB61FA7CBB8B01
:103520000733002B00DA0733DB109A4205D1FB7C0E
:103530005A1D7B685B689A4236D901217868FFF78B
:10354000B9FD034638E07B681A68BB69591CB9614C
:1035500013441B7843F480737B611FE0FB8B5A1C80
:10356000FA837A6992B202F0010292B211461846C9
:1035700000F0F8FAF860FB68002B09D0FB68DBB2BA
:103580005B42DBB219467868FFF794FD034613E00F
:103590007B695B107B61BB8B013BBB83BB8B002BCF
:1035A00002D07B69012BD9D1BB8B002BCBD105215C
:1035B0007868FFF7A0FD034618462037BD4680BD5A
:1035C00080B586B000AF78607B685B68042B05D857
:1035D00001217868FFF76EFD03466BE07B681B688E
:1035E00001331B781B021AB27B681B6802331B78FD
:1035F0001BB213431BB2FB827B681B6803331B782F
:103600001B021AB27B681B6804331B781BB213437E
:103610001BB2BB827B681B685B79FB7306233B6133
:10362000FB7B03F00103002B0AD1FA7BBB8A5B0012
:103630009A4205D1FB7B5A1D7B685B689A422FD961
:1036400001217868FFF736FD034633E07B681A688E
:103650003B6913441B781B021AB27B6819683B69EB
:1036600001330B441B781BB213431BB2BB81FB8A93
:103670005A1CFA82BA891146184600F0E9FDB86072
:10368000BB68002B09D0BB68DBB25B42DBB21946DA
:103690007868FFF70FFD03460CE03B6902333B619E
:1036A000BB8A5A1EBA82002BD0D105217868FFF759
:1036B00022FD034618461837BD4680BD80B483B04E
:1036C00000AF0346FB71044AFB79137000BF0C374F
:1036D000BD465DF8047B7047B903002080B588B013
:1036E00000AFF860B9607A603B60FF23FB7700238E
:1036F000BB61BB68032B06D9BA683B689A4202D209
:10370000FB681B78FB77FB7F002B04D02C4B1B78CE
:10371000FA7F9A424ED1BB68023B1946F86800F026
:1037200051F80346FB82FB8ADBB2BA68023AF968B9
:103730000A44127893423DD1FB8A1B0A9AB2BB68B5
:10374000013BF9680B441B789BB29A4232D1FB686B
:10375000581CBB68D91E7B685A1C3B68033BFFF7AB
:1037600023FCB861FB7F002B22D0BB69002B1FD04C
:10377000134B1A787B681A70BB6901331946786855
:1037800000F020F80346FB82BB6901337A681344DA
:10379000FA8AD2B21A70BB6902337A681344FA8A81
:1037A000120A92B2D2B21A70BB690333BB6101E054
:1037B0000023BB61BB6918462037BD4680BD00BFF2
:1037C000B903002080B487B000AF786039604FF64D
:1037D000FF73FB8100237B6122E07B697A681344DD
:1037E0001B789AB2FB895340FB8100233B6111E0B7
:1037F000FB8903F00103002B03D1FB895B08FB81EC
:1038000005E0FB895B089AB20B4B5340FB813B6997
:1038100001333B613B69072BEADD7B6901337B6147
:103820007A693B689A42D8D3FB8918461C37BD4653
:103830005DF8047B704700BF01A0FFFF80B59AB020
:1038400000AF7860174BBB604FF02063FB60002334
:103850003B6100237B614FF48063BB610023FB610C
:1038600000233B6200237B624FF40033BB627B6822
:1038700007F108029A607B689B6818460AF0AEF967
:103880000346002B02D0002007F064F87B681B6819
:10389000054ADA667B681B68034A936300BF683792
:1038A000BD4680BD286402408012002080B582B0F1
:1038B00000AF78600B46FB70064B1868FB789AB235
:1038C0004FF6FF7304490EF052FE00BF0837BD46A5
:1038D00080BD00BF600900208409002080B582B04F
:1038E00000AF78600B46FB7000224FF480710F48E8
:1038F0000AF04AFF00224FF400510C480AF044FF3E
:103900007B681B6818460EF0E9FF786800F03CF809
:103910007B6818687B6803F596734FF480721946CC
:103920000EF058FF00BF0837BD4680BD00180240AA
:1039300080B582B000AF78607B681B6818460EF0D7
:10394000CDFF7B681B680822034918460EF042FF32
:1039500000BF0837BD4680BDC403002080B483B0DB
:1039600000AF78607B6893F834321A4613465B01E7
:103970001344DB0020337A681344043318460C37B1
:10398000BD465DF8047B704780B485B000AF7860B9
:103990000023FB6009E07A68FB68134403F5967323
:1039A000FF221A70FB680133FB60FB68FF2BF2DD1E
:1039B00000BF1437BD465DF8047B704780B500AF8B
:1039C000144B154A1A60134B144A5A60114B144A8F
:1039D0009A60104B134ADA600E4B134A1A610D4B72
:1039E0004FF400625A610B4B4FF400629A61094830
:1039F000FFF724FF00210748FFF770FF0B4B002261
:103A00001A700B4B00221A600A4B00221A6000BF8A
:103A100080BD00BF60090020E015002020140020B8
:103A200080120020A064024028640240C0030020ED
:103A3000BC030020E405002080B582B000AF354B08
:103A40001B78002B02D0012B57D05FE0324B1B6854
:103A50005B68C3F580737B60304B1B687A689A4261
:103A600006D92F4B00221A602C4A7B6813604CE069
:103A70007B68002B49D02A4B1B68012B45D929486C
:103A8000FFF756FF254B00221A60254B00221A60D3
:103A90002448FFF763FF02464FF480737968224899
:103AA000FFF71CFE38603B68002B21D001224FF449
:103AB00000511E480AF068FE01224FF480711B4835
:103AC0000AF062FE3B68DBB219461648FFF7EEFECD
:103AD00000224FF4807115480AF056FE00224FF480
:103AE000005112480AF050FE0A4B01221A700CE0F5
:103AF00000210C48FFF7F2FE07E000210948FFF71C
:103B0000EDFE044B00221A7000E000BF00BF083732
:103B1000BD4680BDC003002080120020BC030020F1
:103B2000E4050020600900208C0A002000180240F3
:103B300080B483B000AF0346FB806FF001031846EA
:103B40000C37BD465DF8047B704780B483B000AF8E
:103B50000346FB806FF0010318460C37BD465DF845
:103B6000047B704780B483B000AF03460A46FB80F5
:103B70001346BB806FF0010318460C37BD465DF855
:103B8000047B704780B483B000AF0346FB806FF0C6
:103B9000010318460C37BD465DF8047B70470000F2
:103BA00080B485B000AF0346FB80FB8840F204720E
:103BB000934200F0938240F20472934200F3E68055
:103BC00040F20532934200F02E8240F205329342D9
:103BD00069DCB3F5027F00F0EF81B3F5027F32DCE0
:103BE00040F20322934200F0D481B3F5017F16DA4C
:103BF000B3F5007F00F0C481B3F5007F04DCB3F5BA
:103C0000807F00F0AD8116E340F20122934200F084
:103C1000BA8140F20222934200F0B8810BE340F2F5
:103C20000522934200F0BD81B3F5017F40F3B581D9
:103C300040F20622934200F0B78140F207229342FD
:103C400000F0B681F7E240F20D22934200F0E581E8
:103C500040F20D22934213DC40F20A22934200F01C
:103C6000D58140F20A229342C0F2B28140F20B2287
:103C7000934200F0BF81B3F5037F00F0CB81DAE21D
:103C800040F20F22934200F0B28140F20F229342A1
:103C9000C0F2A181B3F5407F00F06981B3F5417FA7
:103CA00000F0BE81C7E240F20F32934200F0DF81A4
:103CB000B3F5447F2FDA40F20A32934200F0C68116
:103CC00040F20A32934213DC40F20732934200F092
:103CD000B28140F207329342C0F2A981B3F5427F2C
:103CE00000F0AC8140F20932934200F0AB81A2E2D5
:103CF000B3F5437F00F0B181B3F5437FC0F2A981F2
:103D000040F20D32934200F0AC8140F20E32934209
:103D100000F0AA818FE2B3F5C06F00F0BD81B3F56A
:103D2000C06F14DCB3F5806F00F02481B3F5806FB1
:103D300004DCB3F5447F00F09D817CE2B3F5846F31
:103D400000F01B81B3F5A06F00F0978173E240F2A1
:103D50000172934200F0B78140F2017293420ADC93
:103D600040F20162934200F09A8140F20262934273
:103D700000F09F815FE240F20272934200F0A68160
:103D800040F20372934200F0A58154E240F2417286
:103D9000934200F0E98140F24172934269DC40F2C3
:103DA0000E72934200F0BE8140F20E72934231DCFB
:103DB00040F20972934200F0A28140F209729342EC
:103DC00013DC40F20672934200F08E8140F20672DC
:103DD0009342C0F2868140F20772934200F08881DC
:103DE000B3F5E16F00F0888125E240F20B72934257
:103DF00000F08D8140F20B729342C0F2848140F258
:103E00000C72934200F0878140F20D72934200F0F1
:103E1000858110E240F22272934200F0948140F2D8
:103E20002272934211DCB3F5E26F00F08381B3F5A7
:103E3000E26FC0F27B81B3F5E46F00F07E8140F267
:103E40002172934200F07C81F5E140F224729342AA
:103E500000F07F8140F224729342C0F2778140F2F9
:103E60002572934200F07881B3F5E86F00F0788115
:103E7000E1E140F25372934200F08F8140F25372BD
:103E8000934235DC40F24672934200F0C98140F221
:103E90004672934214DC40F24372934200F06D810B
:103EA00040F243729342C0F2638140F24472934203
:103EB00000F0AF8140F24572934200F0AD81BAE16B
:103EC000B3F5EA6F00F05E81B3F5EA6F05DC40F20E
:103ED0004772934200F0A881ADE140F251729342E3
:103EE00000F0538140F25272934200F05281A2E1FD
:103EF000B3F5EB6F00F07E81B3F5EB6F14DC40F2AD
:103F00005572934200F06A8140F255729342C0F2BA
:103F1000488140F25672934200F0648140F2577239
:103F2000934200F0638186E140F25B72934200F0BD
:103F30006C8140F25B7293420ADC40F25972934208
:103F400000F05B8140F25A72934200F05A8172E1B4
:103F5000B3F5EC6F00F06C81B3F5805F04D06AE1DB
:103F6000914B1B689BB268E1904B1B8865E1904BBD
:103F70001B8862E18F4B1B885FE18F4B1B885CE1E4
:103F80008E4B1B7859E18E4B1B8856E18D4B9B8BDA
:103F900053E18C4BB3F854304FE18A4BB3F88C307B
:103FA0004BE1884BDB8B48E1864BB3F8563044E15C
:103FB000844BB3F88E3040E1834BB3F91230002BC1
:103FC00004DD814BB3F912309BB236E1002334E1BA
:103FD0007D4B9B8B31E17C4BB3F90230002B04DD30
:103FE000794BB3F902309BB227E1002325E1764BF0
:103FF0009B8922E1744BB3F92230002B04DD724B14
:10400000B3F922309BB218E1002316E16D4BB3F8EF
:10401000D23012E16D4B1B8A0FE16C4B1B8E0CE111
:10402000684B5B8C09E1674BB3F85A3005E1654B8F
:10403000B3F8923001E1634BDB8CFEE0614BB3F8E7
:104040005E30FAE05F4BB3F89630F6E05D4B9B8C48
:10405000F3E05C4BB3F85C30EFE05A4BB3F89430CC
:10406000EBE05B4BDB88E8E0594B1B89E5E0584B04
:104070005B89E2E0564B1B8BDFE0564BDB8A1B0271
:104080009AB2544B9B8B5449A1FB03139B099BB2DF
:104090001344FB81FB89D0E04C4BDB8ACDE04B4BDA
:1040A0005B8B1B029AB2494B1B8B1344FB81FB8930
:1040B000C3E0464BDB8B1B029AB2444B9B8B1344F1
:1040C000FB81FB89B9E0434B1B8FB6E0414BB3F852
:1040D0005C30B2E03F4BB3F88030AEE03D4B9B8AA2
:1040E000ABE03C4B5B8FA8E03A4BB3F85E30A4E00A
:1040F000384BB3F88230A0E0364BDB8A9DE0354B7D
:1041000093F8363099E0334B93F85A3095E0314BC1
:1041100093F87E3091E02F4B9B7C8EE02D4B93F8F3
:1041200037308AE02B4B93F85B3086E0294B93F8CD
:104130007F3082E0274BDB7C7FE0244BDB887CE018
:10414000224BDB8C79E0214B1B8976E01F4B1B8DCA
:1041500073E01E4B1B7970E01C4B93F824306CE02D
:10416000184BDB6A9BB268E0164B5B6E9BB264E057
:10417000144BD3F89C309BB25FE0124BD3F8D43091
:104180009BB25AE00F4B1B8E57E00E4BB3F86830D2
:1041900053E00C4BB3F8A0304FE00A4BB3F8D830E3
:1041A0004BE0084B1B8A48E048070020F805002038
:1041B00084040020D40700201805002022070020D6
:1041C00030070020FC0500207C0500203C05002075
:1041D0004C07002088040020D34D62101A4BB3F81E
:1041E00048302AE0184BB3F8803026E0164BB3F87D
:1041F000B83022E0144B9B7A1FE0134B93F8423007
:104200001BE0114B93F87A3017E00F4B93F8B23064
:1042100013E00D4B5B8A10E00B4BB3F84A300CE017
:10422000094BB3F8823008E0074BB3F8BA3004E02A
:10423000064B5B8801E06FF0010318461437BD465A
:104240005DF8047B704700BFFC050020F0060020ED
:1042500080B483B000AF03460A46FB801346BB80A0
:10426000CD4B01221A70FB8840F20772934200F096
:104270004282B3F5E16F80F2948040F20E329342B5
:1042800000F09D8140F20E3293423FDC40F2063254
:10429000934200F0538140F2063293421BDC40F21D
:1042A0000232934200F0338140F20232934209DC41
:1042B000B3F5407F00F0178140F20132934200F0E5
:1042C00021818AE3B3F5417F00F02D81B3F5417F71
:1042D00000F32E8121E140F20A32934200F0458141
:1042E00040F20A32934208DCB3F5427F00F031819C
:1042F000B3F5427F00F3338126E1B3F5437F00F04D
:104300003F81B3F5437F00F3558133E140F2016211
:10431000934200F0798140F2016293421DDCB3F5D3
:10432000806F00F0E580B3F5806F09DC40F20F325A
:10433000934200F04981B3F5447F00F027814CE3BC
:10434000B3F5A06F00F04581B3F5C06F00F0548164
:10435000B3F5846F00F0D1803FE340F203729342E3
:1043600000F0938140F2037293420FDC40F201723D
:10437000934200F0718140F20172934200F3788120
:1043800040F20262934200F0538126E340F205724C
:10439000934200F0918140F20572934200F39B81B9
:1043A00080E140F22572934200F0B08240F2257223
:1043B000934247DC40F20E72934200F0238240F2B7
:1043C0000E7293421DDC40F20A72934200F0C681E5
:1043D00040F20A72934209DCB3F5E16F00F09B8171
:1043E00040F20972934200F0A381F6E240F20C72AF
:1043F000934200F0DF8140F20C72934200F3EC81B3
:10440000C2E140F22172934200F04A8240F22172EE
:1044100093420CDCB3F5E26F00F02682B3F5E26F55
:10442000C0F20C82B3F5E46F00F03082D5E240F2C6
:104430002372934200F04D8240F22372934200F3C4
:10444000578239E240F25672934200F0928240F273
:10445000567293421DDC40F25272934200F0728217
:1044600040F25272934209DCB3F5EA6F00F05F82CA
:1044700040F25172934200F05F82AEE240F2547219
:10448000934200F06B8240F25472934200F36B82CD
:104490005EE240F25A72934200F0848240F25A7215
:1044A000934208DCB3F5EB6F00F06F82B3F5EB6F6E
:1044B00000F3718263E2B3F5EC6F00F08182B3F533
:1044C000805F05D040F25B72934200F0728284E21A
:1044D000314B00221A70BB88012B02D82F4ABB88AF
:1044E000138000237EE22E4ABB881380002379E2EA
:1044F0002C4ABB881380002374E22B4ABB881380AC
:1045000000236FE2294ABB88138400236AE2274A0A
:10451000BB88A2F85830002364E2244ABB88A2F882
:10452000903000235EE2214ABB885384002359E285
:104530001E4ABB88A2F85A30002353E21B4ABB88AC
:10454000A2F8923000234DE2184ABB88D38400239E
:1045500048E2164ABB88A2F85E30002342E2134AC2
:10456000BB88A2F8963000233CE2104ABB889384B3
:10457000002337E20D4ABB88A2F85C30002331E209
:104580000A4ABB88A2F8943000232BE2084ABB8871
:10459000A2F84230002325E2F5050020F8050020AE
:1045A00084040020D407002018050020FC0500200A
:1045B0004C0700209E4ABB88D380002312E29C4A0D
:1045C000BB88138100230DE2994ABB8853810023E5
:1045D00008E2BB88DBB29BB21A465201D21A9200A3
:1045E0001344DB009AB2934B9A83BB881B0A9AB29E
:1045F000904BDA820023F5E18F4ABB88D3828E4A42
:10460000BB88D3860023EDE1BB88DBB29AB28A4B2C
:104610001A83BB881B0A9AB2874B5A83864B1A8B24
:10462000854B1A87844B5A8B834B5A870023D9E1D9
:10463000BB88DBB29AB2804B9A83BB881B0A9AB2C2
:104640007D4BDA837C4B9A8B7B4B9A877A4BDA8B48
:10465000794BDA870023C5E1764ABB881387754A10
:1046600092F83E3043F0080382F83E300023B9E16F
:10467000704ABB88A2F85C306E4A92F8623043F010
:10468000080382F862300023ACE16A4ABB88A2F8D2
:104690008030684A92F8863043F0080382F886300A
:1046A00000239FE1634ABB889382624A937E43F072
:1046B00008039376002395E1BB88642B09D85D4AF3
:1046C000BB8853875B4A92F83E3043F0010382F87F
:1046D0003E30002386E1BB88642B0AD8554ABB884C
:1046E000A2F85E30534A92F8623043F0010382F838
:1046F0006230002376E1BB88642B0AD84D4ABB8820
:10470000A2F882304B4A92F8863043F0010382F8D7
:104710008630002366E1BB88642B07D8454ABB88F6
:10472000D382444A937E43F001039376002359E1F8
:10473000BB88012B10D8BB88DAB23E4B83F83620F9
:10474000BB88DAB23B4B83F834203A4A92F83E30C9
:1047500043F0020382F83E30002343E1BB88012B83
:1047600010D8BB88DAB2334B83F85A20BB88DAB250
:10477000304B83F858202F4A92F8623043F00203FE
:1047800082F8623000232DE1BB88012B10D8BB8852
:10479000DAB2284B83F87E20BB88DAB2254B83F847
:1047A0007C20244A92F8863043F0020382F8863057
:1047B000002317E1BB88012B0CD8BB88DAB21D4B54
:1047C0009A74BB88DAB21B4B1A741A4A937E43F070
:1047D00002039376002305E1BB88012B10D8BB8828
:1047E000DAB2144B83F83720BB88DAB2114B83F866
:1047F0003520104A92F83E3043F0040382F83E30F0
:104800000023EFE0BB88012B10D8BB88DAB2094B3C
:1048100083F85B20BB88DAB2064B83F85920054A3F
:1048200092F8623043F0040382F862300023D9E04A
:104830004C070020880400203C050020BB88012B89
:1048400010D8BB88DAB26A4B83F87F20BB88DAB213
:10485000674B83F87D20664A92F8863043F0040364
:1048600082F886300023BDE0BB88012B0CD8BB88C2
:10487000DAB25F4BDA74BB88DAB25D4B5A745C4AC9
:10488000937E43F0040393760023ABE0594ABB8840
:10489000D380584A137D43F0080313750023A1E029
:1048A000544ABB88D384534A92F8343043F0080307
:1048B00082F83430002395E0BB88642B07D84D4A3A
:1048C000BB8813814B4A137D43F00103137500230A
:1048D00088E0BB88642B09D8464ABB881385454AC3
:1048E00092F8343043F0010382F83430002379E049
:1048F000BB88012B08D8BB88DAB23E4B1A713D4AFF
:10490000137D43F00403137500236BE0BB88012B78
:104910000BD8BB88DAB2374B83F82420354A92F89B
:10492000343043F0040382F8343000235AE0324A32
:10493000BB881386002355E02F4ABB88A2F8683055
:1049400000234FE02C4ABB88A2F8A030002349E0A6
:10495000294ABB88A2F8D830002343E0264ABB8806
:10496000138200233EE0244ABB88A2F8483000238B
:1049700038E0214ABB88A2F88030002332E01E4A8A
:10498000BB88A2F8B83000232CE0BB88DAB21A4BFF
:104990009A72002326E0BB88DAB2174B83F84220D4
:1049A00000231FE0BB88DAB2134B83F87A20002380
:1049B00018E0BB88DAB2104B83F8B220002311E074
:1049C000BB88642B07D80D4ABB8853800B4A1379E8
:1049D00043F001031371002304E0094B00221A7015
:1049E0006FF0010318460C37BD465DF8047B704735
:1049F000880400203C050020FC050020F006002073
:104A0000F505002080B483B000AF7860044A7B686D
:104A1000136000BF0C37BD465DF8047B704700BFD4
:104A2000380C002080B483B000AF7860044A7B6803
:104A3000136000BF0C37BD465DF8047B704700BFB4
:104A40003C0C002080B582B000AF0346FB71FB79BF
:104A5000A821184601F0F4FA00BF0837BD4680BD12
:104A600080B582B000AF0346FB71FB79B8211846D0
:104A700001F0E6FA00BF0837BD4680BD80B586B0BC
:104A800000AF03463960FB710023FB7400237B7485
:104A90000023BB746B4B00221A70BB7C002B03D02D
:104AA00003F043FC0023BB7400237B612BE0664AC8
:104AB0007B69134400221A70634A7B6913440433F0
:104AC00000221A70604A7B691344083300221A706E
:104AD0005D4A7B6913440C3300221A705B4A7B6980
:104AE0001344043300221A70584A7B691344083374
:104AF00000221A70554A7B6913440C3300221A7045
:104B00007B6901337B61524B1B78DBB21A467B69B0
:104B10009A42CCD83B68013B182B4DD801A252F8E1
:104B200023F000BF894B00089F4B0008894B000809
:104B3000B94B0008B94B0008B94B0008B94B000845
:104B4000B94B0008B94B0008B94B0008B94B000835
:104B5000B94B0008B94B0008B94B0008B94B000825
:104B6000B94B0008B94B0008B94B0008B94B000815
:104B7000B94B0008B94B0008B94B0008B94B000805
:104B80009F4B00089F4B00087B7C3A68D2B242F0F2
:104B90002002D1B22C4AD1540323FB7418E07B7C51
:104BA0003A68D2B242F02002D1B2274A13440A46F0
:104BB0001A710223FB740BE07B7C3A68D2B242F09C
:104BC0002002D1B2204A13440A461A720123FB7410
:104BD00003F0A3FB0123BB741A4B1B78DBB2002B41
:104BE0007FF458AFFB7CC3F103037B610EE07B696C
:104BF0009B00154A98187B699B00144A1344FA7964
:104C0000194602F0DFF97B6901337B617B69032B75
:104C1000EDD97B7C0D4A13441B791B047A7C0B492C
:104C20000A44127A120213437A7C08490A44127B1E
:104C30001343FB6003F079FBFB6818461837BD4649
:104C400080BD00BFF0030020D0030020E00300205F
:104C5000CC03002080B584B000AF0346FB71002375
:104C6000BB720023FB72354B00221A70FB7A002BBB
:104C700003D003F05AFB0023FB720023FB601FE00C
:104C80002F4AFB68134400221A702D4AFB68134414
:104C9000043300221A702A4AFB68134408330022A6
:104CA0001A70284AFB681344043300221A70254AFC
:104CB000FB681344083300221A70FB680133FB6061
:104CC000214B1B78DBB21A46FB689A42D8D8BB7AD4
:104CD0001B4AD021D15403F020FB0123FB72174B58
:104CE0001B78DBB2002BBED10023FB600EE0FB681B
:104CF0009B00134A9818FB689B00124A1344FA79E8
:104D0000194602F05FF9FB680133FB60FB68022B78
:104D1000EDD9BB7A0B4A13441B791B021AB2BB7A3A
:104D200008490B441B7A1BB213431BB23B8103F0AF
:104D3000FCFA3B8918461037BD4680BDF0030020C1
:104D4000D0030020E0030020CC03002080B582B017
:104D500000AF0346FB71FB790021184601F070F9A2
:104D600000BF0837BD4680BD80B586B000AF0346A2
:104D7000B9607A60FB730023FB7400237B7400230B
:104D8000BB74634B00221A70BB7C002B03D003F072
:104D9000CCFA0023BB7400237B6119E05D4A7B6978
:104DA000134400221A705B4A7B69134404330022C7
:104DB0001A70584A7B691344083300221A70554A06
:104DC0007B6913440C3300221A707B6901337B61C9
:104DD000514B1B78DBB21A467B699A42DED8BB681E
:104DE000013B172B5CD801A252F823F04D4E00086E
:104DF0007D4E00084D4E0008A14E0008A14E00084F
:104E0000A14E0008A14E0008A14E0008A14E0008C6
:104E1000A14E0008A14E0008A14E0008A14E0008B6
:104E2000A14E0008A14E0008A14E0008A14E0008A6
:104E3000A14E0008A14E0008A14E0008A14E000896
:104E4000A14E0008A14E00087D4E00087B7CBA6888
:104E5000D1B2304AD1547B7C7A68120CD1B22D4A3F
:104E600013440A461A717B7C7A68120AD1B2294A25
:104E700013440A461A720323FB741AE07B7CBA6857
:104E8000D1B2244A13440A461A717B7C7A68120A0A
:104E9000D1B2204A13440A461A720223FB7408E076
:104EA0007B7CBA68D1B21B4A13440A461A720123AA
:104EB000FB747B7C7A68D1B2164A13440A461A7393
:104EC00003F02BFA0123BB74114B1B78DBB2002BD0
:104ED0007FF457AFFB7CC3F103037B610EE07B697A
:104EE0009B000C4A98187B699B000C4A1344FA7B80
:104EF000194602F067F87B6901337B617B69032BFC
:104F0000EDD903F012FA00BF1837BD4680BD00BFCF
:104F1000F0030020D0030020CC030020E003002099
:104F200080B582B000AF78600B46FB70FB78184606
:104F300003F004FA164B1B88002B08D103F01EFD6A
:104F40000346002B03D04FF4004001F04DF8FB78EE
:104F5000184603F0C3FBFB78184603F021FC012040
:104F600003F0D0F9FB78184601F0B8F8FB78184642
:104F7000FFF768FDFB781846FFF76CFE044B1B88B3
:104F800001339AB2024B1A8000BF0837BD4680BD7C
:104F9000F203002080B483B000AF0346FB71FA79BE
:104FA000074913469B001344DB000B4418331B884E
:104FB0009BB218460C37BD465DF8047B704700BFB6
:104FC000980B002080B584B000AF03463960FB71B8
:104FD000FB7939681846FFF751FDB8603B68013B23
:104FE000122B4BD801A252F823F000BF3950000811
:104FF0007D500008395000087D5000087D500008A1
:105000007D5000087D5000087D5000084D5000087C
:105010007D5000087D5000087D5000087D5000083C
:105020007D5000086D5000086D5000087D5000084C
:105030007D5000085D500008B86800F0B5FF07EE2D
:10504000900AF8EEE77AC7ED037A1EE0BB68DBB2A0
:10505000184601F06BFF87ED030A16E0BB68DBB270
:10506000184601F027FF87ED030A0EE0BB68DBB2AC
:10507000184601F073FF87ED030A06E0BB6807EEF0
:10508000903AF8EE677AC7ED037AFB6807EE903A3C
:10509000B0EE670A1037BD4680BD00BF80B483B054
:1050A00000AF0346FB71FA79074913469B0013448E
:1050B000DB000B4420331B889BB218460C37BD46DF
:1050C0005DF8047B704700BF980B002080B483B06C
:1050D00000AF0346FB71FA79074913469B0013445E
:1050E000DB000B441A331B889BB218460C37BD46B5
:1050F0005DF8047B704700BF980B002080B483B03C
:1051000000AF0346FB71FA79074913469B0013442D
:10511000DB000B4424331B78DBB218460C37BD464A
:105120005DF8047B704700BF980B002080B483B00B
:1051300000AF0346FB71FA79074913469B001344FD
:10514000DB000B4423331B78DBB218460C37BD461B
:105150005DF8047B704700BF980B002080B400AF5F
:105160004FF485331846BD465DF8047B7047000058
:1051700080B400AF024B1846BD465DF8047B704713
:105180005000002080B582B000AF0346FB71FB7970
:1051900003211846FFF772FC0346184600F004FF8F
:1051A000034618460837BD4680BD000080B483B072
:1051B00000AF0346FB71FA79074913469B0013447D
:1051C000DB000B441C331B889BB218460C37BD46D2
:1051D0005DF8047B704700BF980B002080B483B05B
:1051E00000AF0346FB71FA79074913469B0013444D
:1051F000DB000B441E331B889BB218460C37BD46A0
:105200005DF8047B704700BF980B002080B400AFAE
:10521000034B1B78DBB21846BD465DF8047B704734
:10522000CC03002080B582B000AF0346FB71FB7950
:1052300001211846FFF722FC0346184600F0B4FE91
:10524000034618460837BD4680BD000080B584B0CF
:1052500000AF0346FB71FB7916211846FFF70EFCE1
:105260000346DBB203F00703DBB243F00803BB7372
:10527000BB7B083B042B1CD801A252F823F000BFD3
:10528000955200089B520008A1520008A75200083E
:10529000AD5200080023FB730EE00123FB730BE00B
:1052A0000223FB7308E00323FB7305E00423FB7375
:1052B00002E0FE23FB7300BFFB7B18461037BD46A0
:1052C00080BD00BF80B483B000AF0346FB71FA79A4
:1052D000074913469B001344DB000B4425331B781E
:1052E000DBB218460C37BD465DF8047B704700BF43
:1052F000980B002080B582B000AF0346FB71FB79AC
:105300000021184600F01EF800BF0837BD4680BDDA
:1053100080B584B000AF0346FB71FB7903211846CA
:10532000FFF7ACFB0346184600F03EFE0346FB6069
:10533000FA68FB791146184600F004F800BF1037F0
:10534000BD4680BD90B585B000AF03463960FB71A6
:10535000FA793A4913469B001344DB000B4424338B
:105360001B78DBB2082B03D0FB79184600F068F8F5
:10537000FC79FB7901211846FFF780FB03461846AC
:1053800000F012FE01462D4A23469B002344DB0019
:10539000134404331960FA79284913469B001344D7
:1053A000DB000B4404331B683A68D31ABB60BB684C
:1053B000002B0CDBFA79B968204813469B00134494
:1053C000DB000344143319600123FB730DE0FA7909
:1053D000BB685B421846194913469B001344DB0027
:1053E0000B44143318600023FB73BB68002B21D0DF
:1053F000FA79124913469B001344DB000B44223315
:1054000001221A70FA7BFB791146184600F048FB1E
:10541000FA790A4913469B001344DB000B4414330A
:105420001A68FB791146184600F000FDFB79184612
:1054300001F0EEF900BF1437BD4690BD980B002077
:1054400080B582B000AF0346FB71FA79204913465C
:105450009B001344DB000B4425331B78DBB2002B8D
:105460002DD1FB79184603F069F9FA7918491346EA
:105470009B001344DB000B44243308221A70FA7992
:10548000134913469B001344DB000B4422330322D1
:105490001A70FA790E4913469B001344DB000B4443
:1054A00014336FF000421A60FA79094913469B00E1
:1054B0001344DB000B44203300221A8003E0FB7905
:1054C000184600F007F800BF0837BD4680BD00BF92
:1054D000980B002080B582B000AF0346FB71FB79CA
:1054E000184603F02BF9FB791846FFF7ABFAFA7967
:1054F000154913469B001344DB000B442433082258
:105500001A70FA79104913469B001344DB000B44D0
:10551000223303221A70FA790B4913469B00134475
:10552000DB000B4414336FF000421A60FA7906492D
:1055300013469B001344DB000B44203300221A80E7
:1055400000BF0837BD4680BD980B002090B583B0E2
:1055500000AF03463A60FB710B46BB71FA792649EE
:1055600013469B001344DB000B4424331B78DBB24F
:10557000082B03D0FB791846FFF762FF3B68002B2E
:1055800035D0FA791C4913469B001344DB000B44C9
:1055900014333A681A60FA79174913469B0013448A
:1055A000DB000B44223301221A70FC79FB790121C4
:1055B0001846FFF763FA0346184600F0F5FC01466B
:1055C0000D4A23469B002344DB0013440433196037
:1055D000BA79FB791146184600F062FAFB7939680E
:1055E000184600F023FCFB79184601F011F900BFC2
:1055F0000C37BD4690BD00BF980B002080B400AFB3
:10560000034B1B881846BD465DF8047B704700BFFE
:10561000F203002080B582B000AF0346FB71FB7936
:1056200019211846FFF72AFA03469BB21846083795
:10563000BD4680BD80B582B000AF0346FB71FB79EB
:10564000184603F0ADF800BF0837BD4680BD80B5F1
:1056500082B000AF0346FB71FB79184603F0D8F81F
:1056600000BF0837BD4680BD80B582B000AF0023C3
:10567000FB7114E0FB791846FFF72CFFFB79184605
:10568000FFF7E5FF012002F03DFEFB79184603F02D
:1056900087F8012002F036FEFB790133FB71054BE0
:1056A0001B78DBB2FA799A42E4D300BF0837BD46D3
:1056B00080BD00BFCC03002080B582B000AF0346A0
:1056C0000A46FB711346BB71FA79134913469B00D6
:1056D0001344DB000B4424331B78DBB2082B03D0CC
:1056E000FB791846FFF7ACFEBA79FB7911461846EC
:1056F00000F0D6F9FA79084913469B001344DB0001
:105700000B44223300221A70FB79184601F080F80E
:1057100000BF0837BD4680BD980B002080B584B01F
:1057200000AF03460A46FB711346BB71BB79032BDE
:1057300016D801A252F823F0495700084F57000825
:10574000555700085B5700080823FB730BE009233B
:10575000FB7308E00A23FB7305E00B23FB7302E0F5
:105760000C23FB7300BFFB791846FFF7B3FEFB79F0
:1057700016211846FFF782F90346DBB223F0070330
:10578000BB73BA7BFB7B1343DBB21A46FB79162152
:105790001846FFF7E9FAFB79002201211846FFF7C6
:1057A000E3FA012318461037BD4680BD80B485B0AA
:1057B00000AF03460A46FB711346BB800023FB7310
:1057C000BB88002B23D0FA79144913469B0013445D
:1057D000DB000B4424331B78DBB2082B0BD0FA79A7
:1057E0000E4913469B001344DB000B4422331B7805
:1057F000DBB2002B0BD1FA79084913469B00134406
:10580000DB000B441833BA881A800123FB73FB7B3F
:1058100018461437BD465DF8047B7047980B00208E
:1058200080B586B000AF0346B96087ED010AFB730F
:105830000123FB74D7ED017AF5EEC07AF1EE10FA90
:1058400008D5BB68012B05D0BB68032B02D0002311
:10585000FB74D9E0BB68013B122B00F2CA8001A2A5
:1058600052F823F017590008B158000817590008DA
:10587000F3590008F3590008F3590008F3590008D8
:10588000F359000881590008F3590008F35900083A
:10589000F3590008F3590008F3590008CD590008DE
:1058A000CD590008F3590008F3590008A75900081A
:1058B000D7ED017AF5EE407AF1EE10FA21D0D7ED6E
:1058C000017A9FED547AF4EEC77AF1EE10FA15DC06
:1058D00016210020FFF7D2F80346DB4303F007034D
:1058E000012202FA03F307EE903AB8EEE77AD7ED19
:1058F000017AB4EEE77AF1EE10FA02DD0023FB74D0
:1059000079E0D7ED017AFCEEE77A17EE903AC3F32F
:1059100008037B616FE0D7ED017A9FED3F7AF4EEEB
:10592000C77AF1EE10FA27DBD7ED017A9FED3B7ACB
:10593000F4EEC77AF1EE10FA1ED8D7ED017AF5EE43
:10594000C07AF1EE10FA09DBD7ED017AFCEEE77AC6
:1059500017EE903AC3F315037B6110E0D7ED017A9F
:10596000F1EE677AFCEEE77A17EE903ADB43C3F389
:10597000150301337B6102E00023FB743BE03AE056
:10598000D7ED017A9FED267AF4EEC77AF1EE10FAA0
:1059900002DD0023FB742EE097ED010A01F0A2FA6C
:1059A00003467B6127E0D7ED017A9FED1E7AF4EE86
:1059B000C77AF1EE10FA02DD0023FB741BE097EDCD
:1059C000010A01F053FA03467B6114E0D7ED017A36
:1059D0009FED157AF4EEC77AF1EE10FA02DD00239E
:1059E000FB7408E097ED010A01F0CEFA03467B61F3
:1059F00001E00023FB74FB7C002B05D0FB7B7A6964
:105A0000B9681846FFF7B0F9FB7C18461837BD4651
:105A100080BD00BF0080FF43000000CAF8FFFF49BF
:105A200000007A450080BB450000804280B485B00C
:105A300000AF03460A46FB711346BB800023FB738D
:105A4000BB88002B23D0FA79144913469B001344DA
:105A5000DB000B4424331B78DBB2082B0BD0FA7924
:105A60000E4913469B001344DB000B4422331B7882
:105A7000DBB2002B0BD1FA79084913469B00134483
:105A8000DB000B441A33BA881A800123FB73FB7BBB
:105A900018461437BD465DF8047B7047980B00200C
:105AA00080B582B000AF03460A46FB711346BB7156
:105AB000FA790F4913469B001344DB000B4424334F
:105AC0001B78DBB2082B0FD1FA79094913469B00EA
:105AD0001344DB000B442333BA791A70BA79FB798B
:105AE0001146184602F0CCFE00BF0837BD4680BD07
:105AF000980B002080B584B000AF03463960FB717D
:105B0000FB7901211846FEF7B9FF0346184600F05D
:105B10004BFA02463B68D31ABB60BB68002B04DB20
:105B2000BB68C3F31503FB6005E0BB68013BC3F32F
:105B300015030133FB60FB79FA6801211846FFF772
:105B400013F900BF1037BD4680BD000080B483B09C
:105B500000AF0346FB71FB79042B07D8074B0022EB
:105B60001A80074AFB791370012300E000231846CE
:105B70000C37BD465DF8047B704700BFF203002080
:105B8000CC03002080B584B000AF03463960FB71C0
:105B90003B68002B04DB3B68C3F31503FB6005E0A7
:105BA0003B68013BC3F315030133FB60FB79FA68E3
:105BB00003211846FFF7D8F800BF1037BD4680BD57
:105BC00080B485B000AF03460A46FB711346BB8024
:105BD0000023FB73BB88012B35D9BB8842F21072BE
:105BE000934230D8FA791B4913469B001344DB00DB
:105BF0000B441E331B889BB2BA889A4223D3FA798E
:105C0000144913469B001344DB000B4424331B78D8
:105C1000DBB2082B0BD0FA790E4913469B001344D4
:105C2000DB000B4422331B78DBB2002B0BD1FA795B
:105C3000084913469B001344DB000B441C33BA880D
:105C40001A800123FB73FB7B18461437BD465DF8B1
:105C5000047B7047980B002080B485B000AF0346EA
:105C60000A46FB711346BB800023FB73BB88012BE4
:105C700035D9BB8842F21072934230D8FA791B4969
:105C800013469B001344DB000B441C331B889BB260
:105C9000BA889A4223D8FA79144913469B001344D0
:105CA000DB000B4424331B78DBB2082B0BD0FA79D2
:105CB0000E4913469B001344DB000B4422331B7830
:105CC000DBB2002B0BD1FA79084913469B00134431
:105CD000DB000B441E33BA881A800123FB73FB7B65
:105CE00018461437BD465DF8047B7047980B0020BA
:105CF00080B483B000AF03460A46FB711346BB7104
:105D0000FA79074913469B001344DB000B44253303
:105D1000BA791A7000BF0C37BD465DF8047B704736
:105D2000980B002080B485B000AF0346FB710023C0
:105D3000FB73FA790E4913469B001344DB000B44B6
:105D400024331B78DBB2082B0BD0FA7908491346B1
:105D50009B001344DB000B44223302221A70012300
:105D6000FB73FB7B18461437BD465DF8047B704718
:105D7000980B002080B582B000AF0346FB7100BFD6
:105D8000FB791846FFF7BAF90346082BF8D100BF94
:105D90000837BD4680BD000080B582B000AF034625
:105DA0000A46FB711346BB80BB88012B01D8022336
:105DB000BB80BB8842F21072934202D942F2107348
:105DC000BB80FA79184913469B001344DB000B444F
:105DD0002033BA881A80FB79032B1FD801A252F80E
:105DE00023F000BFF55D0008FF5D0008095E0008B4
:105DF000135E0008BB88184602F0D0FB0FE0BB889A
:105E0000184602F0F3FB0AE0BB88184602F016FCC5
:105E100005E0BB88184602F039FC00E000BF00BF77
:105E20000837BD4680BD00BF980B002080B489B004
:105E300000AF03463960FB71FA795A4913469B005B
:105E40001344DB000B441E331B887B83FA795549CE
:105E500013469B001344DB000B441C331B889BB28E
:105E60001A467B8BD31AFB61FA794E4913469B0085
:105E70001344DB000B441C331B889BB21A467B8BFC
:105E800013441A46FB6902FB03F3FB61FB697B6168
:105E9000FA79444913469B001344DB000B44183342
:105EA0001B889BB21A46FB69B3FBF2F3FB61FB69EB
:105EB0005B08FB61FA793B4913469B001344DB0006
:105EC0000B441A331B889BB21A467B69B3FBF2F36F
:105ED0007B617B695B087B61FA697B691A443B687B
:105EE0009A4242D9FA792F4913469B001344DB00AA
:105EF0000B441A331B889BB23B61FA79294913463C
:105F00009B001344DB000B4418331B889BB2FB60DF
:105F10003B693A6802FB03F2F9683B690B44B2FB48
:105F2000F3F37B617B69012B08D97B69013BFB6142
:105F3000FB69002B04D10123FB6101E00023FB611D
:105F4000FA79184913469B001344DB000B440833CD
:105F5000FA691A60FA79134913469B001344DB006F
:105F60000B4410337A691A6016E0FA790D4913462A
:105F70009B001344DB000B440833FA691A60FA797A
:105F800039687B69CB1A591E064813469B00134497
:105F9000DB0003441033196000BF2437BD465DF8B1
:105FA000047B7047980B002080B485B000AF786008
:105FB0007B6803F40013002B0DD07B68DB437B6010
:105FC0007B6801337B607B68C3F31503FB60FB6870
:105FD0005B42FB6001E07B68FB60FB68184614379E
:105FE000BD465DF8047B704780B582B000AF0346C4
:105FF000FB80074B1B68002B05D0054B1B68FA88FC
:106000001046984700E0FEE70837BD4680BD00BF58
:10601000380C002080B500AF074B1B68002B08D060
:10602000064B01221A70044B1B689847034B002251
:106030001A7000BF80BD00BF3C0C0020F10300209F
:1060400080B584B000AF03460A46FB711346BB71AE
:106050000023BB720023FB721B4B00221A70FB7AD9
:10606000002B03D002F061F90023FB720023FB60D8
:1060700008E0164AFB6813440C3300221A70FB68D0
:106080000133FB60124B1B78DBB21A46FB689A4265
:10609000EFD8BB7A0D4A1344BA791A7302F03DF96E
:1060A0000123FB72084B1B78DBB2002BD4D1FB79A8
:1060B0001A460849084800F085FF02F036F900BF8B
:1060C0001037BD4680BD00BFF0030020D003002084
:1060D000CC030020EC030020DC03002080B582B05C
:1060E00000AF0346FB71FB79032B00F23F8201A254
:1060F00052F823F0056100081D62000839630008AA
:1061000051640008FA798B4913469B001344DB0065
:106110000B441833A0221A80FA79864913469B0053
:106120001344DB000B441A33A0221A80FA79814908
:1061300013469B001344DB000B441C33FA221A80E5
:10614000FA797C4913469B001344DB000B441E3351
:1061500032221A80FA79774913469B001344DB00F8
:106160000B4400221A60FA79724913469B001344CB
:10617000DB000B44043300221A60FA796D491346A0
:106180009B001344DB000B44083300221A60FA79A9
:10619000684913469B001344DB000B440C33002278
:1061A0001A60FA79634913469B001344DB000B44E1
:1061B000103300221A60FA795E4913469B0013449B
:1061C000DB000B44143300221A60FA795949134654
:1061D0009B001344DB000B44203300221A80FA7921
:1061E000544913469B001344DB000B442233032223
:1061F0001A70FA794F4913469B001344DB000B4495
:10620000233301221A70FA794A4913469B0013443A
:10621000DB000B44243308221A70A8E1FA794549BF
:1062200013469B001344DB000B441833A0221A8052
:10623000FA79404913469B001344DB000B441A33A0
:10624000A0221A80FA793B4913469B001344DB00D5
:106250000B441C33FA221A80FA79364913469B0004
:106260001344DB000B441E3332221A80FA79314981
:1062700013469B001344DB000B4400221A60FA799A
:106280002C4913469B001344DB000B4404330022CB
:106290001A60FA79274913469B001344DB000B442C
:1062A000083300221A60FA79224913469B001344EE
:1062B000DB000B440C3300221A60FA791D491346A7
:1062C0009B001344DB000B44103300221A60FA7960
:1062D000184913469B001344DB000B44143300227F
:1062E0001A60FA79134913469B001344DB000B44F0
:1062F000203300221A80FA790E4913469B0013447A
:10630000DB000B44223303221A70FA790949134641
:106310009B001344DB000B44233301221A70FA79EB
:10632000044913469B001344DB000B44243308222A
:106330001A701CE1980B0020FA79914913469B00D2
:106340001344DB000B441833A0221A80FA798C49DD
:1063500013469B001344DB000B441A33A0221A801F
:10636000FA79874913469B001344DB000B441C3326
:10637000FA221A80FA79824913469B001344DB0003
:106380000B441E3332221A80FA797D4913469B0052
:106390001344DB000B4400221A60FA797849134653
:1063A0009B001344DB000B44043300221A60FA798B
:1063B000734913469B001344DB000B44083300224F
:1063C0001A60FA796E4913469B001344DB000B44B4
:1063D0000C3300221A60FA79694913469B00134472
:1063E000DB000B44103300221A60FA79644913462B
:1063F0009B001344DB000B44143300221A60FA792B
:106400005F4913469B001344DB000B4420330022FA
:106410001A80FA795A4913469B001344DB000B4457
:10642000223303221A70FA79554913469B0013440C
:10643000DB000B44233301221A70FA7950491346CA
:106440009B001344DB000B44243308221A708EE0B7
:10645000FA794B4913469B001344DB000B44183375
:10646000A0221A80FA79464913469B001344DB00A8
:106470000B441A33A0221A80FA79414913469B0033
:106480001344DB000B441C334FF4FA621A80FA7990
:106490003B4913469B001344DB000B441E334FF46F
:1064A000FA721A80FA79364913469B001344DB00CE
:1064B0000B4400221A60FA79314913469B001344B9
:1064C000DB000B44043300221A60FA792C4913468E
:1064D0009B001344DB000B44083300221A60FA7956
:1064E000274913469B001344DB000B440C33002266
:1064F0001A60FA79224913469B001344DB000B44CF
:10650000103300221A60FA791D4913469B00134488
:10651000DB000B44143300221A60FA791849134641
:106520009B001344DB000B44203300221A80FA79CD
:10653000134913469B001344DB000B442233032210
:106540001A70FA790E4913469B001344DB000B4482
:10655000233301221A70FA79094913469B00134428
:10656000DB000B44243308221A7000E000BFFB79E3
:10657000184600F007F800BF0837BD4680BD00BFD1
:10658000980B002080B582B000AF0346FB71FB7909
:10659000002201211846FEF7E7FBFB7900220221C9
:1065A0001846FEF7E1FBFB79002203211846FEF7AF
:1065B000DBFBFB79032B00F2238101A252F823F0CD
:1065C000D16500085D660008E96600087567000887
:1065D0009FED8D0A00F086FC03461A46FB790921DF
:1065E0001846FEF7C1FBFB7935220E211846FEF74F
:1065F000BBFBB0EE080A00F0C7FC03461A46FB7965
:106600000F211846FEF7B0FBB3EE050A00F0BCFC04
:1066100003461A46FB7910211846FEF7A5FBFB79C5
:10662000042213211846FEF79FFBFB798C221621CA
:106630001846FEF799FBFB79CF2217211846FEF783
:1066400093FBFB794FF4325218211846FEF78CFB6E
:10665000FB7900211846FFF74BFBD1E09FED6A0A5A
:1066600000F040FC03461A46FB7909211846FEF764
:106670007BFBFB7935220E211846FEF775FBB0EE49
:10668000080A00F081FC03461A46FB790F211846E0
:10669000FEF76AFBB3EE050A00F076FC03461A46E5
:1066A000FB7910211846FEF75FFBFB7904221321CA
:1066B0001846FEF759FBFB798C2216211846FEF787
:1066C00053FBFB79CF2217211846FEF74DFBFB79D0
:1066D0004FF4325218211846FEF746FBFB79002191
:1066E0001846FFF705FB8BE09FED470A00F0FAFB29
:1066F00003461A46FB7909211846FEF735FBFB795C
:1067000035220E211846FEF72FFBB0EE080A00F0E6
:106710003BFC03461A46FB790F211846FEF724FB83
:10672000B3EE050A00F030FC03461A46FB7910214F
:106730001846FEF719FBFB79042213211846FEF7D1
:1067400013FBFB798C2216211846FEF70DFBFB7913
:10675000CF2217211846FEF707FBFB794FF4325280
:1067600018211846FEF700FBFB7900211846FFF7B9
:10677000BFFA45E09FED250A00F0B4FB03461A4638
:10678000FB7909211846FEF7EFFAFB7935220E2135
:106790001846FEF7E9FAB0EE080A00F0F5FB0346EA
:1067A0001A46FB790F211846FEF7DEFAB3EE050A0A
:1067B00000F0EAFB03461A46FB7910211846FEF763
:1067C000D3FAFB79042213211846FEF7CDFAFB79A0
:1067D0008C2216211846FEF7C7FAFB79CF22172123
:1067E0001846FEF7C1FAFB794FF4325218211846C9
:1067F000FEF7BAFAFB7900211846FFF779FA00BFD5
:1068000000BF0837BD4680BD0000614400009643CC
:1068100080B582B000AF0346FB71FB791846FEF7E6
:106820001FF9FA79224913469B001344DB000B44FD
:1068300008331B68002B0AD0FA791D4913469B00C8
:106840001344DB000B44243300221A7009E0FA7968
:10685000174913469B001344DB000B4424330222E8
:106860001A70FA79124913469B001344DB000B445B
:1068700000221A60FA790E4913469B001344DB008C
:106880000B440C3300221A60FA79094913469B0025
:106890001344DB000B441E331B889AB2FB7911466C
:1068A0001846FFF779FA00BF0837BD4680BD00BF24
:1068B000980B002080B58CB000AF0346FB71954B60
:1068C00001221A70FA79944913469B001344DB00A5
:1068D0000B440C331B68591C8F4813469B00134410
:1068E000DB0003440C331960FA798B4913469B0093
:1068F0001344DB000B4424331B78DBB2022B00F083
:10690000A181032B00F00A81002B00D0A3E2FA79C9
:10691000814913469B001344DB000B440C331B6876
:106920007B62FA797C4913469B001344DB000B44DD
:1069300008331B683B62FA79774913469B0013447E
:10694000DB000B4420331B88FB85FA797249134620
:106950009B001344DB000B4418331B889BB21B04C1
:10696000FB61FA796C4913469B001344DB000B442E
:1069700022331B78DBB2022B17D0FA796649134613
:106980009B001344DB000B4422331B78DBB2002B4B
:106990001FD0FA79604913469B001344DB000B4477
:1069A00010331A687B6A9A4213D1FA795A4913460E
:1069B0009B001344DB000B44243302221A70FA7943
:1069C000554913469B001344DB000B4400221A6018
:1069D0009EE0FA79504913469B001344DB000B44B8
:1069E0001C331B889BB2FA8D9A420FD2FA794A491E
:1069F00013469B001344DB000B4422331B78DBB2AD
:106A0000002B0ED07A6A3B6A9A420AD1FA7942493F
:106A100013469B001344DB000B44243303221A70FB
:106A200076E0002387F82D30FB8D002B01D1012368
:106A3000FB85FA79F97938480B469B000B44DB005B
:106A400003441968FB8DF869B0FBF3F3194432482D
:106A500013469B001344DB000344196017E0FA79E6
:106A6000F9792D480B469B000B44DB0003441B685F
:106A7000A3F58031284813469B001344DB000344F0
:106A80001960FB8D0133FB85012387F82D30FA79DE
:106A9000214913469B001344DB000B441B68B3F5EC
:106AA000803FDCD297F82D30002B00F0CF81FA79AF
:106AB000194913469B001344DB000B441C331B880D
:106AC0009BB2FA8D9A4209D9FA79134913469B0071
:106AD0001344DB000B441C331B88FB85FA790E49F9
:106AE00013469B001344DB000B442033FA8D1A80BD
:106AF000FA79094913469B001344DB000B44203309
:106B00001B889AB2FB7911461846FFF745F99DE1BB
:106B10009CE100BFF1030020980B0020FA799C490A
:106B200013469B001344DB000B441C331B887B8300
:106B3000FA79974913469B001344DB000B440C334E
:106B40001B687B61FA79924913469B001344DB0072
:106B50000B4422331B78DBB2022B30D0FA798C49FC
:106B600013469B001344DB000B4422331B78DBB23B
:106B7000002B0BD0FA79864913469B001344DB00A7
:106B80000B4410331A687B699A4218D9FA79804904
:106B900013469B001344DB000B4422331B78DBB20B
:106BA000002B20D1FA797A4913469B001344DB006D
:106BB0000B4420331B889BB27A8B9A4213D2FA790A
:106BC000734913469B001344DB000B442433022219
:106BD0001A70FA796E4913469B001344DB000B448C
:106BE00000221A6034E1FA79694913469B00134484
:106BF000DB000B4422331B78DBB2002B40F02881F2
:106C0000FA79634913469B001344DB000B4420339D
:106C10001B889BB27A8B9A4240F21A81FA795C49BE
:106C200013469B001344DB000B44243300221A70EC
:106C3000FA79574913469B001344DB000B440022AA
:106C40001A6005E1FA79524913469B001344DB00B0
:106C50000B440C331B683B61FA794D4913469B008A
:106C60001344DB000B4420331B887B85FA794849A9
:106C700013469B001344DB000B441A331B889BB262
:106C80001B04FB60FA79424913469B001344DB0066
:106C90000B4422331B78DBB2022B0CD1FA793C492E
:106CA00013469B001344DB000B441E331B889BB22E
:106CB0007A8D9A4217D9FA79354913469B001344C5
:106CC000DB000B4422331B78DBB2002B10D0FA79A7
:106CD0002F4913469B001344DB000B4414331A68FE
:106CE0003B699A4204D8FB791846FEF7A9FBACE051
:106CF000FA79274913469B001344DB000B442233E7
:106D00001B78DBB2002B17D1FA79214913469B007F
:106D10001344DB000B441C331B889BB27A8D9A42D0
:106D20000AD8FA791A4913469B001344DB000B4436
:106D3000243303221A7088E0FA79154913469B0020
:106D40001344DB000B441E331B889BB27A8D9A429E
:106D500040F28080002387F829307B8D002B01D101
:106D600001237B85FA79F97909480B469B000B448E
:106D7000DB00034419687B8DF868B0FBF3F319441A
:106D8000034813469B001344DB00034419601CE0D6
:106D9000980B0020FA79F97932480B469B000B4496
:106DA000DB0003441B68A3F580312E4813469B008B
:106DB0001344DB00034419607B8D012B02D97B8DCA
:106DC000013B7B85012387F82930FA792549134651
:106DD0009B001344DB000B441B68B3F5803FD9D202
:106DE00097F82930002B35D0FA791E4913469B00BD
:106DF0001344DB000B441E331B889BB27A8D9A42EE
:106E000009D2FA79174913469B001344DB000B445F
:106E10001E331B887B85FA79124913469B00134465
:106E2000DB000B4420337A8D1A80FA790D49134622
:106E30009B001344DB000B4420331B889AB2FB7980
:106E400011461846FEF7A8FF04E003E000BF02E089
:106E500000BF00E000BF044B00221A7000BF3037B3
:106E6000BD4680BD980B0020F103002080B483B0A4
:106E700000AF87ED010AD7ED017A9FED0C7A77EE2E
:106E8000C77A9FED0B7A67EE877AB6EE007A77EED7
:106E9000877AFCEEE77AC7ED007A3B78DBB21846DA
:106EA0000C37BD465DF8047B704700BF0080BB43D4
:106EB0000FB82E3B80B483B000AF0346FB71FB7963
:106EC000013307EE903AF8EEE77A9FED057A67EE28
:106ED000877AB0EE670A0C37BD465DF8047B7047D1
:106EE0000080BB4380B483B000AF87ED010AD7EDCB
:106EF000017A9FED0C7A77EEC77A9FED0B7A67EEF9
:106F0000877AB6EE007A77EE877AFCEEE77AC7EDFD
:106F1000007A3B78DBB218460C37BD465DF8047B3F
:106F2000704700BF0000FA416F12033D80B483B088
:106F300000AF0346FB71FB79013307EE903AF8EEA0
:106F4000E77A9FED057A67EE877AB0EE670A0C372D
:106F5000BD465DF8047B70470000FA4180B483B001
:106F600000AF0346FB71FB79013307EE903AF8EE70
:106F7000E77AB6EE007A67EE877AB0EE670A0C37EA
:106F8000BD465DF8047B704780B483B000AF87EDE9
:106F9000010AD7ED017AB6EE007A77EEC77A77EE7E
:106FA000A77AB6EE007A77EE877AFCEEE77AC7ED3D
:106FB000007A3B78DBB218460C37BD465DF8047B9F
:106FC0007047000080B584B000AFF860B960134628
:106FD000FB71FB791A46B968F86801F0DBFC0346DF
:106FE000002B03D048F20100FEF7FEFF054B1B7893
:106FF000DBB2002B02D0044B01221A7000BF103705
:10700000BD4680BDF1030020F003002080B584B0B0
:1070100000AF0346FB71FB79032B79D801A252F82C
:1070200023F000BF93700008BD700008E7700008EF
:10703000357000084FF48071384807F08DFB034627
:1070400003F00103D9B2364A537861F386135370C3
:107050004FF40041334807F07FFB034603F0010380
:10706000D9B22F4A537861F3C71353702C4B5B7816
:1070700003F04003DBB2002B06D1294B5B7823F0F1
:107080007F03DBB2002B01D0012300E00023FB7360
:107090003FE04FF40061244807F05EFB034603F035
:1070A0000103D9B21E4A537861F3410353701C4B5C
:1070B0005B78C3F34003DBB2FB732AE04FF400516B
:1070C000194807F049FB034603F00103D9B2144AFB
:1070D000537861F3C3035370114B5B78C3F3C00360
:1070E000DBB2FB7315E04FF400410F4807F034FBAF
:1070F000034603F00103D9B2094A537861F34513FB
:107100005370074B5B78C3F34013DBB2FB7300E0B3
:1071100000BFFB7B18461037BD4680BD000402400F
:1071200030070020001802400014024080B584B0EF
:1071300000AF0346FB710123FB73FB79184601F096
:10714000F3FC0346BB73BB7B082B52D1FB7918467B
:10715000FFF75CFF0346FB73FB7B002B1CD0FB7926
:10716000012B0BD0022B10D0002B00D041E0FB797B
:1071700040220021184601F041FD3AE0FB7940220F
:107180000021184601F03AFD33E0FB79402201214D
:10719000184601F033FD2CE0FB79184601F0E8FCBD
:1071A000B860FB79B968184601F04CFDFB791846C8
:1071B00001F0DAFDFA7911491346DB009B1ADB0076
:1071C0000B442C3300221A60FA790C491346DB0079
:1071D0009B1ADB000B440B3300221A70FA79074923
:1071E0001346DB009B1ADB000B44363300221A7077
:1071F000FFE700BF1037BD4680BD00BFFC05002083
:1072000080B582B000AF00224FF40071244807F02F
:10721000BBFA391D4FF47A730122224809F03AF97A
:107220007B799BB21B029AB21F4B1A801E4B1A88A5
:107230003B799BB213449AB21B4B1A801A4B40F213
:1072400069125A80184B1B88C3F389139BB25B00E9
:107250009BB2C3F3090399B2134A138861F38F13E6
:107260001380114B1B88C3F389139BB21A464FF44A
:10727000B47303FB02F30D4A82FB03121A44521249
:10728000DB17D31A9AB2084B5A8001224FF40071CF
:10729000034807F079FA00BF0837BD4680BD00BF3C
:1072A00000040240740E00201C050020030820800A
:1072B00080B586B000AF0346FB71FFF7A1FF784BA6
:1072C0005B88BB82764B5B88194676480CF052FF90
:1072D000FB79184601F068FD0F237B82704B00227A
:1072E0009A736F4B00229A8144E0FB7940F2CD52B1
:1072F0000021184601F082FCFCF79EFB032001F000
:1073000013FC03467B747B7C082BF5D1FFF778FFD9
:10731000634B5B885A1CBB8A9A4205DD604B5A88D6
:10732000BB8AD31A7B8207E05D4B5A88BB8AD31A8B
:107330009BB203F5B4737B82594B5B88BB82584B7D
:107340009A897B8A6A2101FB03F3574981FB030178
:107350000911DB17CB1A9BB213449AB2504B9A8196
:107360004F4B5B8819464E4B9B891A467B8A4F4888
:107370000CF000FF7B8A0A2BB7D89FED4D0A00F076
:107380007BFCFFF73DFF464B5B88BB82FB7944F2F9
:107390009C520121184601F031FCFB79184601F09E
:1073A000C3FB03467B747B7C082BF6D1FFF728FFD9
:1073B0003B4B5A883A4B9A80394B5B88BA8A9A423F
:1073C00008D2374B5B88BA8AD31A9BB203F5B473E1
:1073D000FB8204E0324B5B88BA8AD31AFB82FB8AB9
:1073E0006A2202FB03F3304A82FB03121211DB17FD
:1073F000D31A9AB22F4BA3F8D2202E4BB3F8D23027
:10740000092BBED9264B9A892A4BB3F8D2309A421F
:1074100009D9234B9A89274BB3F8D230D31A9AB2A1
:107420001F4B9A8102E01E4B00229A811C4B9B89C4
:10743000194621480CF09EFE9FED200A00F01CFC2E
:10744000FB79184601F094FBF860FB79F96818465F
:1074500001F0F8FBFA7917491346DB009B1ADB00B1
:107460000B442C3300221A60FB79184601F07CFC97
:10747000FA7910491346DB009B1ADB000B440B33EF
:1074800000221A70FA790B491346DB009B1ADB00C5
:107490000B44363300221A7000BF1837BD4680BD3A
:1074A0001C050020305F01081FB6BE0D445F0108B7
:1074B00000001644FC0500206C5F0108000000007D
:1074C00080B584B000AF0346FB710123FB73FB79E9
:1074D000184601F069FCFCF7AFFAFB79184601F099
:1074E00023FB0346BB73BB7B082BF4D1FB79184607
:1074F00001F03EFBB860FB79B968184601F0A2FBC9
:10750000FB79012B16D0022B27D0002B38D1FB7929
:107510004FF4FA71184601F0B7FBFB796421184665
:1075200001F0DAFBFB794FF496520021184601F086
:1075300065FB26E0FB794FF49671184601F0A4FB39
:10754000FB793221184601F0C7FBFB794FF4486202
:107550000021184601F052FB13E0FB794FF49671BD
:10756000184601F091FBFB793221184601F0B4FB7B
:10757000FB794FF4C8620121184601F03FFB00E09F
:1075800000BFFB79184601F0CFFA0346BB73BB7B03
:10759000082BF6D1FB791846FFF738FD0346FB733D
:1075A000344B4FF4C8721A802DE0FB79012B0AD0BE
:1075B000022B0FD0002B14D1FB794022002118465A
:1075C00001F01CFB0EE0FB7940220021184601F07F
:1075D00015FB07E0FB7940220121184601F00EFB64
:1075E00000E000BFFCF728FAFB79184601F09CFA8E
:1075F0000346BB73BB7B082BF4D1FB791846FFF71E
:1076000005FD0346FB73FB7B002B03D0194B1B8846
:10761000002BCAD1FB79184601F0AAFAB860FB79B1
:10762000184601F0A1FBFB79B968184601F00AFB86
:10763000FA7911491346DB009B1ADB000B442C330B
:1076400000221A60FA790C491346DB009B1ADB0012
:107650000B440B3301221A70FA7907491346DB00F9
:107660009B1ADB000B44363300221A7000BF103720
:10767000BD4680BD2E050020FC05002080B483B0EF
:1076800000AF0023FB712EE0FA791B491346DB00A3
:107690009B1ADB000B440B3301221A70FB79022B7F
:1076A0000AD1FA7914491346DB009B1ADB000B441C
:1076B0000A3300221A7009E0FA790F491346DB00F9
:1076C0009B1ADB000B440A3301221A70FA790A492B
:1076D0001346DB009B1ADB000B44303300221A8078
:1076E000FB790133FB71FB79032BCDD900BF0C373C
:1076F000BD465DF8047B7047FC05002080B500AFF7
:10770000054803F061FD01224FF40071034807F0C2
:107710003BF800BF80BD00BF740E00200004024093
:1077200080B582B000AFFFF7A9FF042141F64A10EF
:1077300001F0CCFB334801F075F9334801F054F9FE
:107740000021002001F0AAF9002001F011FA786070
:107750007968002001F076FA7B682C4AD3622B4BC3
:107760000022DA720020FFF7ABFE294B1B88012BA9
:107770002CD10021012001F091F9012001F0F8F94C
:1077800078607968012001F05DFA7B681F4A5366D2
:107790001E4B002283F843200120FFF791FE0021B9
:1077A000022001F07BF9022001F0E2F978607968AB
:1077B000022001F047FA7B68144AC2F89C30134B50
:1077C000002283F87B200220FFF77AFE00210320AD
:1077D00001F064F9032001F0CBF9786079680320A7
:1077E00001F030FA7B68094AC2F8D430074B002216
:1077F00083F8B3200320FFF75BFD00BF0837BD46C9
:1078000080BD00BFD982000855A90008FC050020F2
:10781000F805002080B582B000AF0023FB71002383
:10782000FB71D3E0FB790B2B00F2CC8001A252F864
:1078300023F000BF65780008837800089F7800086F
:10784000BB780008D7780008F378000811790008A1
:107850002F7900084D7900086B79000889790008B4
:10786000A77900084FF480515C4806F075FF034685
:1078700003F00103D9B25A4A137861F34513137028
:10788000A1E00421574806F067FF034603F0010317
:10789000D9B2534A137861F38203137093E008213D
:1078A000504806F059FF034603F00103D9B24C4A91
:1078B000137861F3C303137085E01021494806F083
:1078C0004BFF034603F00103D9B2454A137861F335
:1078D0000413137077E00421434806F03DFF03468C
:1078E00003F00103D9B23E4A537861F300035370A9
:1078F00069E04FF400613B4806F02EFF034603F0B9
:107900000103D9B2364A537861F3410353705AE008
:107910004FF48051334806F01FFF034603F0010384
:10792000D9B22F4A537861F3820353704BE04FF47E
:1079300000512C4806F010FF034603F00103D9B2B2
:10794000274A537861F3C30353703CE04FF48041FE
:10795000244806F001FF034603F00103D9B2204A90
:10796000537861F3041353702DE04FF400411D4828
:1079700006F0F2FE034603F00103D9B2184A537829
:1079800061F3451353701EE04FF48071164806F002
:10799000E3FE034603F00103D9B2114A537861F3C1
:1079A000861353700FE04FF40041104806F0D4FEE8
:1079B000034603F00103D9B2094A537861F3C713B0
:1079C000537000E000BFFB790133FB71FB790B2B97
:1079D0007FF628AF00BF0837BD4680BD00100240CB
:1079E000300700200014024000040240001802404A
:1079F00090B583B000AF0346FB71FB79032B51D8E0
:107A000001A252F823F000BF3D7A0008617A000815
:107A1000837A0008197A0008FC794FF40071244831
:107A200006F09AFE03461946224A2346DB001B1B3A
:107A3000DB0013440D330A461A7034E0FC794FF42E
:107A400000711D4806F088FE03461946194A234670
:107A5000DB001B1BDB0013440D330A461A7022E0C7
:107A6000FC790121154806F077FE03461946114AB4
:107A70002346DB001B1BDB0013440D330A461A7040
:107A800011E0FC7910210C4806F066FE0346194609
:107A9000084A2346DB001B1BDB0013440D330A4658
:107AA0001A7000E000BF00BF0C37BD4690BD00BF9C
:107AB00000140240FC05002000180240000C0240A7
:107AC00080B582B000AF0023FB7136E0FA791E4921
:107AD0001346DB009B1ADB000B440B331B78002B97
:107AE00024D1FB79032B20D801A252F823F000BF48
:107AF0000B7B0008177B0008217B0008017B000836
:107B00008021124806F059FE10E04FF40061104841
:107B100006F053FE0AE004210E4806F04EFE05E092
:107B200040210B4806F049FE00E000BFFB791846F3
:107B3000FFF75EFFFB790133FB71FB79032BC5D99E
:107B400000BF0837BD4680BDFC0500200014024080
:107B500000180240000C024080B582B000AF03461E
:107B60000A46FB711346BB80FB79032B2BD801A27D
:107B700052F823F0857B0008977B0008A77B00085C
:107B8000B77B0008BB88DBB21A464FF4805110481F
:107B900006F0FAFD18E0BB88DBB21A4610210D484A
:107BA00006F0F2FD10E0BB88DBB21A4680210848DF
:107BB00006F0EAFD08E0BB88DBB21A464021064821
:107BC00006F0E2FD00E000BF00BF0837BD4680BD03
:107BD00000180240000C02400014024080B584B03E
:107BE00000AF03463A60FB710B46BB800023FB737A
:107BF000FA7920491346DB009B1ADB000B440B3358
:107C000000221A70FB799BB20021184600F046FF53
:107C1000FB79184601F0C8F8FB79012B0BD0022B39
:107C200010D0002B00D014E0FB793A6800211846F0
:107C300000F0E4FF0DE0FB793A680021184600F0FF
:107C4000DDFF06E0FB793A680121184600F0D6FF17
:107C500000BFFA7907491346DB009B1ADB000B448F
:107C6000363308221A700123FB73FB7B184610374A
:107C7000BD4680BDFC05002080B584B000AF87ED17
:107C8000010AD7ED017AF5EEC07AF1EE10FA23DDA4
:107C90007B68FB60D7ED037A9FED217A77EEC77A98
:107CA0009FED207A67EE877AB6EE007A77EE877AD4
:107CB000FCEEE77AC7ED007A3B78FB72FB7A1A4656
:107CC0000921032001F0B8F8174B002283F8B320F4
:107CD000032001F069F81EE0144BFB60D7ED037A36
:107CE0009FED0F7A77EEC77A9FED0E7A67EE877A6F
:107CF000B6EE007A77EE877AFCEEE77AC7ED007A87
:107D00003B78FB72FB7A1A460921032001F094F8B4
:107D1000032001F029F800BF1037BD4680BD00BF29
:107D20000000FA416F12033DFC050020000096435D
:107D300080B584B000AF0023FB6000233B817E4B05
:107D4000DB881A4640F69A3303FB02F37B4A82FB38
:107D500003129210DB17D31AFB60FB68B3F5397F6F
:107D600002D240F2EE23FB60754B5A88744B5A8165
:107D7000F96874480CF0FEF9734BD3F8D420FB6813
:107D800003F2EE239A4208D86F4BD3F8D420FB6855
:107D9000A3F2EE239A4280F0B9806B4B002283F865
:107DA000B320032001F000F8674BD3F8D420FB6820
:107DB0009A420FD9644BD3F8D420FB68D31A7B6066
:107DC0007B681A460021032000F018FF5C4B00225C
:107DD0009A730EE05C4BD3F8D430FA68D31A7B6008
:107DE0007B681A460121032000F008FF544B012252
:107DF0009A7300233B81524B5B887B81FFF700FA2B
:107E0000FBF71AFE4E4B5B887A89D31A9BB27B80B4
:107E1000B7F90230012B04DCB7F90230B3F1FF3FB0
:107E20003ADA474B9B7B012B19D1454B5B887A890A
:107E30009A420BD2424B5B887A89D31A9AB23B8919
:107E400013449BB203F5B4733B8122E03C4B5B8847
:107E50007A89D31A9AB23B8913443B8119E0384B93
:107E60005B885A1C7B899A4208DD354B5A887B898E
:107E7000D31A9AB23B8913443B810AE0304B5A88AB
:107E80007B89D31A9AB23B8913449BB203F5B4732E
:107E90003B812B4B5B887B81032000F045FE034632
:107EA0007B703B896A2202FB03F3284A82FB0312A0
:107EB0001211DB17D31A9AB2214B9A81204B5B889F
:107EC00019461F4B9B891A4621480CF053F97B78C1
:107ED000082B93D11A4B9B7B002B0AD11A4BB3F87A
:107EE000D220174B9B89D31A9AB2174BA3F8D220F2
:107EF00009E0154BB3F8D220114B9B8913449AB279
:107F0000114BA3F8D220032000F02EFFFFF778F9E1
:107F10000B4B5A880A4BDA800B4AFB68C2F8D43004
:107F2000094B012283F8B320074B002283F8DE209F
:107F300000BF1037BD4680BD4C07002067666666EF
:107F40001C0500208C5F0108FC0500201FB6BE0D3B
:107F5000A05F010880B586B000AFF8600846114602
:107F60001A460346FB720B463B811346FB80684B67
:107F70005A88674B5A810023FB82654B5B88BB8222
:107F8000644B5B7803F04003DBB2002B4BD0032043
:107F900000F00AFFFB685B001A460121032000F095
:107FA0002DFE032000F0C0FD0346FB74FB7C082B74
:107FB000F7D1032000F0D8FE574B002283F8B320FE
:107FC000FFF71EF9524B5B88BA8A9A420BD2504B8C
:107FD0005B88BA8AD31A9AB2FB8A13449BB203F520
:107FE000B473FB8207E04A4B5B88BA8AD31A9AB211
:107FF000FB8A1344FB82FB8A6A2202FB03F3474A93
:1080000082FB03121211DB17D31A9AB2404B9A81EA
:10801000414BB3F8D2203E4B9B8913449AB23E4B5E
:10802000A3F8D2205BE03B4B5B7823F07F03DBB20D
:10803000002B54D0FB685B001A460021032000F09F
:10804000DDFD032000F070FD0346FB74FB7C082B74
:10805000F7D1032000F088FE2F4B002283F8B320D5
:10806000FFF7CEF82A4B5B885A1CBB8A9A4208DD80
:10807000274B5A88BB8AD31A9AB2FB8A1344FB82D5
:108080000AE0234B5A88BB8AD31A9AB2FB8A13445C
:108090009BB203F5B473FB82FB8A6A2202FB03F3F3
:1080A0001E4A82FB03121211DB17D31A9AB2184B25
:1080B0009A81194BB3F8D220154B9B899A420AD961
:1080C000154BB3F8D220124B9B89D31A9AB2124B9C
:1080D000A3F8D22003E0104B0022A3F8D220032003
:1080E000FEF794FF0B4B5B7823F07F03DBB2002B92
:1080F000F5D1084B5B7803F04003DBB2002BEED1E7
:10810000054B002283F8DE2000BF1837BD4680BD36
:108110001C05002030070020FC0500201FB6BE0D06
:1081200090B583B000AF0023FB71CBE0FA796949C9
:108130001346DB009B1ADB000B4436331B78012B04
:1081400033D9FC79FB79184600F09AFE03461946AC
:10815000604A2346DB001B1BDB00134418330A462E
:108160001A80FB79184600F0DFFC0346BB71BB792F
:10817000082B0AD1FA7957491346DB009B1ADB001A
:108180000B44123300221A800FE0FC79FB79184669
:1081900000F0A6FC034619464E4A2346DB001B1B93
:1081A000DB00134412330A461A80FA794949134610
:1081B000DB009B1ADB000B4436331B780B2B7BD880
:1081C00001A252F823F000BFB9820008B98200086A
:1081D000B9820008F9810008B9820008B982000854
:1081E000B9820008B98200080F82000819820008CD
:1081F00009820008B9820008FB7940F2DC520221B2
:108200001846FFF7EBFC5AE0FFF792FD57E0FB79C9
:108210001846FEF78BFF52E0BB79082B4ED1FB7955
:10822000184600F0A5FC3860FA79396829481346E9
:10823000DB009B1ADB0003442C331960FA792549D3
:108240001346DB009B1ADB000B4430331B881846B7
:10825000FA7920491346DB009B1ADB000B442C33D0
:108260001B6898422AD0FA791A491346DB009B1AF8
:10827000DB000B440B3300221A70FA7915491346C0
:10828000DB009B1ADB000B440A331B789AB2FB79A4
:1082900011461846FFF760FCFA790E491346DB00D9
:1082A0009B1ADB000B4430331B881A46FB791146BE
:1082B000184600F081FC01E000BF00E000BFFB7940
:1082C0000133FB71FB79032B7FF630AF00BF0C3716
:1082D000BD4690BDFC05002080B582B000AF0020F7
:1082E00000F084FD0346FB80012000F07FFD034683
:1082F000FB80022000F07AFD0346FB8000BF0837B8
:10830000BD4680BD80B582B000AF7860786804F06B
:1083100087FD00BF0837BD4680BD80B400AF72B690
:1083200000BFBD465DF8047B704780B400AF62B605
:1083300000BFBD465DF8047B7047000080B588B083
:1083400000AF0346FB71FB79032B00F2168101A2FB
:1083500052F823F065830008ED8300087384000859
:10836000F58400084FF40073FB60864B3B610123EA
:108370007B610123BB6107F10C031946824806F0BB
:1083800041F81023FB6001233B6100237B61012343
:10839000BB6107F10C0319467C4806F033F8012253
:1083A00010217A4806F0F0F94FF48063FB60012356
:1083B0003B6100237B610123BB6107F10C0319467C
:1083C000714806F01FF8002000F022FA4FF48053A5
:1083D000FB6001233B6100237B610123BB6107F14B
:1083E0000C031946684806F00DF8C6E00123FB604F
:1083F000644B3B6101237B610123BB6107F10C03EB
:108400001946634805F0FEFF4FF40063FB6001234B
:108410003B6100237B610123BB6107F10C0319461B
:108420005C4805F0EFFF01224FF40061594806F067
:10843000ABF90223FB6001233B6100237B61012335
:10844000BB6107F10C031946514805F0DBFF012021
:1084500000F0DEF91023FB6001233B6100237B6108
:108460000123BB6107F10C031946494805F0CAFF17
:1084700083E01023FB60434B3B6101237B610123BD
:10848000BB6107F10C0319463F4805F0BBFF4023D1
:10849000FB6001233B6100237B610123BB6107F18A
:1084A0000C0319463A4805F0ADFF01224021384837
:1084B00006F06AF92023FB6001233B6100237B6106
:1084C0000123BB6107F10C0319462F4805F09AFF01
:1084D000022000F09DF98023FB6001233B61002313
:1084E0007B610123BB6107F10C031946264805F0A7
:1084F00089FF42E04FF40073FB60224B3B61012394
:108500007B610123BB6107F10C031946224805F08A
:1085100079FF0123FB6001233B6100237B61012381
:10852000BB6107F10C031946174805F06BFF0122E8
:108530000121154806F028F94FF48073FB600123F0
:108540003B6100237B610123BB6107F10C031946EA
:10855000114805F057FF032000F05AF94023FB6053
:1085600001233B6100237B610123BB6107F10C0305
:108570001946094805F046FF00BF00BF2037BD4639
:1085800080BD00BF00002110001802400000024022
:10859000000C0240000802400014024080B584B084
:1085A00000AF0346FB8007F0EDF9F860FB884FF45D
:1085B000875202FB03F3FA68B2FBF3F3013BBB60A3
:1085C000094B1B68BA68DA62074ABB68D360064B7E
:1085D0001B68BA6852085A630021034808F038FE45
:1085E00000BF1037BD4680BD2010002080B584B08C
:1085F00000AF0346FB8007F0C5F9F860FB884FF435
:10860000875202FB03F3FA68B2FBF3F3013BBB6052
:10861000094B1B68BA68DA62074ABB68D360064B2D
:108620001B68BA6852089A630421034808F010FED8
:1086300000BF1037BD4680BD2010002080B584B03B
:1086400000AF0346FB8007F09DF9F860FB884FF40C
:10865000875202FB03F3FA68B2FBF3F3013BBB6002
:10866000094B1B68BA68DA62074ABB68D360064BDD
:108670001B68BA685208DA630821034808F0E8FD6D
:1086800000BF1037BD4680BD2010002080B584B0EB
:1086900000AF0346FB8007F075F9F860FB884FF4E4
:1086A000875202FB03F3FA68B2FBF3F3013BBB60B2
:1086B000094B1B68BA68DA62074ABB68D360064B8D
:1086C0001B68BA6852085A630021034808F0C0FDCD
:1086D00000BF1037BD4680BDE010002080B582B0DD
:1086E00000AF0346FB71FB79032B17D801A252F8A8
:1086F00023F000BF058700080B87000811870008DA
:108700001787000803F028FB08E003F025FB05E0CD
:1087100003F022FB02E003F09DFB00BFFA7906495B
:108720001346DB009B1ADB000B440B3300221A704C
:1087300000BF0837BD4680BDFC05002080B582B073
:1087400000AF0346FB71FB79032B1FD801A252F83F
:1087500023F000BF658700086F870008798700084D
:108760008387000800210C4808F01AFD0FE004215F
:10877000094808F015FD0AE00821074808F010FD37
:1087800005E00021054808F00BFD00E000BF00BF38
:108790000837BD4680BD00BF20100020E01000203B
:1087A00080B582B000AF0346FB71FB79032B25D85F
:1087B00001A252F823F000BFEF870008E38700080A
:1087C000D7870008C987000801224FF480710D483F
:1087D00005F0DAFF12E0012220210B4805F0D4FF5A
:1087E0000CE001220221094805F0CEFF06E001223B
:1087F0004FF48061044805F0C7FF00BF00BF083791
:10880000BD4680BD0014024000180240000C02402A
:1088100080B582B000AF0346FB71FB79032B25D8EE
:1088200001A252F823F000BF5F88000853880008B7
:10883000478800083988000800224FF480710D48ED
:1088400005F0A2FF12E0002220210B4805F09CFF5A
:108850000CE000220221094805F096FF06E0002204
:108860004FF48061044805F08FFF00BF00BF083758
:10887000BD4680BD0014024000180240000C0240BA
:1088800080B582B000AF03460A46FB711346BB7148
:10889000FB79032B27D801A252F823F0D7880008D0
:1088A000C9880008BB880008AD880008BB791A4653
:1088B00040210F4805F068FF15E0BB791A4680217A
:1088C0000C4805F061FF0EE0BB791A4610210A48FA
:1088D00005F05AFF07E0BB791A464FF4805105486E
:1088E00005F052FF00BF00BF0837BD4680BD00BF86
:1088F0000014024000180240000C024080B582B013
:1089000000AF03460A46FB711346BB71FB79032B8C
:1089100027D801A252F823F055890008458900089C
:108920003789000829890008BB791A4601210F48B8
:1089300005F02AFF15E0BB791A4640210C4805F0E6
:1089400023FF0EE0BB791A464FF40061094805F099
:108950001BFF06E0BB791A461021074805F014FFFB
:1089600000BF00BF0837BD4680BD00BF00180240F1
:10897000000C0240000802400000024080B582B0B6
:1089800000AF02F067FB0023FB71FB791846083744
:10899000BD4680BD80B588B002AFF860B9601346AF
:1089A000FB71FB7900211846FFF7A8FF4FF48053B5
:1089B00000930123BA68F9680A4807F090FE03465D
:1089C000FB75FB680133FB60BB680133BB60FB795F
:1089D00001211846FFF792FFFB7D18461837BD4668
:1089E00080BD00BF3C0F002080B582B000AF786032
:1089F0000B4B1B68002B0AD0094B1B689B68002B94
:108A000005D0074B1B689B687868984703E040F6E1
:108A1000020000F025F800BF0837BD4680BD00BF4A
:108A2000F403002080B582B000AF78600B4B1B6868
:108A3000002B0AD0094B1B68DB68002B05D0074BC5
:108A40001B68DB687868984703E040F6030000F095
:108A500007F800BF0837BD4680BD00BFF403002003
:108A600080B582B000AF0346FB800B4B1B68002B28
:108A70000DD0094B1B68D3F8F030002B07D0064B04
:108A80001B68D3F8F030FA881046984700E0FEE7FC
:108A90000837BD4680BD00BFF403002080B582B01A
:108AA00000AF03463960FB800C4B1B68002B0DD0D8
:108AB0000A4B1B681B68002B08D0084B1B681B68FF
:108AC000FA88D2B211463868984703E04FF4006044
:108AD000FFF7C6FF00BF0837BD4680BDF403002086
:108AE00080B584B000AF0346FB710023FB810D4BC2
:108AF0001B68002B0DD00B4B1B68DB69002B08D0CB
:108B0000084B1B68DB69FA79104698470346FB81DE
:108B100003E040F60700FFF7A3FFFB891846103774
:108B2000BD4680BDF403002080B584B000AF03468D
:108B3000FB710823FB730D4B1B68002B0DD00B4BF7
:108B40001B685B6A002B08D0084B1B685B6AFA79CC
:108B5000104698470346FB7303E040F60900FFF711
:108B60007FFFFB7B18461037BD4680BDF403002015
:108B700080B584B000AF0346FB710023FB600D4B52
:108B80001B68002B0CD00B4B1B689B6B002B07D07A
:108B9000084B1B689B6BFA7910469847F86003E016
:108BA00040F60E00FFF75CFFFB6818461037BD4625
:108BB00080BD00BFF403002080B582B000AF034643
:108BC0003960FB710C4B1B68002B0CD00A4B1B68E7
:108BD0005B6C002B07D0084B1B685B6CFA7939681B
:108BE0001046984703E040F61100FFF739FF00BF39
:108BF0000837BD4680BD00BFF403002080B582B0B9
:108C000000AF03463A60FB710B46BB710C4B1B680F
:108C1000002B0CD00A4B1B68DB6C002B07D0084BD9
:108C20001B68DB6CB979F8793A68984703E040F63D
:108C30001300FFF715FF00BF0837BD4680BD00BF1A
:108C4000F403002080B582B000AF03463960FB71A9
:108C50000C4B1B68002B0CD00A4B1B681B6E002BA7
:108C600007D0084B1B681B6EFA7939681046984785
:108C700003E040F61800FFF7F3FE00BF0837BD46DB
:108C800080BD00BFF403002080B584B000AF034670
:108C90000A46FB711346BB800023FB730D4B1B6818
:108CA000002B0ED00B4B1B689B6E002B09D0094B81
:108CB0001B689B6EB988FA79104698470346FB7388
:108CC00003E040F61A00FFF7CBFEFB7B1846103797
:108CD000BD4680BDF403002080B584B000AF0346DC
:108CE0000A46FB711346BB800023FB730D4B1B68C8
:108CF000002B0ED00B4B1B68DB6E002B09D0094BF1
:108D00001B68DB6EB988FA79104698470346FB73F7
:108D100003E040F61B00FFF7A3FEFB7B184610376D
:108D2000BD4680BDF403002080B582B000AF03468D
:108D3000FB710C4B1B68002B0BD00A4B1B685B6F45
:108D4000002B06D0074B1B685B6FFA7910469847DB
:108D500003E040F61D00FFF783FE00BF0837BD4665
:108D600080BD00BFF403002080B582B000AF034691
:108D7000FB710C4B1B68002B0BD00A4B1B68DB6F85
:108D8000002B06D0074B1B68DB6FFA79104698471B
:108D900003E040F61F00FFF763FE00BF0837BD4643
:108DA00080BD00BFF403002080B582B000AF034651
:108DB000FB710D4B1B68002B0DD00B4B1B68D3F8C0
:108DC0008030002B07D0084B1B68D3F88030FA792D
:108DD0001046984703E04FF40260FFF741FE00BFE2
:108DE0000837BD4680BD00BFF403002080B584B0C5
:108DF00000AF0346FB710023FB810E4B1B68002B69
:108E00000FD00C4B1B68D3F88830002B09D0094BCE
:108E10001B68D3F88830FA79104698470346FB81DF
:108E200003E040F62200FFF71BFEFB8918461037CF
:108E3000BD4680BDF403002080B584B000AF03467A
:108E4000B9607A60FB730D4B1B68002B0ED00B4B87
:108E50001B68D3F89030002B08D0084B1B68D3F860
:108E60009030F87B7A68B968984703E040F62400B0
:108E7000FFF7F6FD00BF1037BD4680BDF4030020AC
:108E800080B584B000AF0346FB710023FB810E4B1D
:108E90001B68002B0FD00C4B1B68D3F89430002BB1
:108EA00009D0094B1B68D3F89430FA7910469847DB
:108EB0000346FB8103E040F62500FFF7D1FDFB8967
:108EC00018461037BD4680BDF403002080B584B03D
:108ED00000AF03460A46FB8013467B71124AFB88AB
:108EE00013800023FB73FCF743F902460F4B1A6013
:108EF0000E4B1B68002B11D00C4B1B68D3F8443170
:108F0000002B0BD07B79002B08D0084B1B68D3F8C3
:108F100044317A79104698470346FB73FB7B184629
:108F20001037BD4680BD00BFF8030020F4030020C9
:108F300080B485B000AF78600B467B80FF237B73E5
:108F40000023FB8121E0FB897A6813441A787B7B3C
:108F500053407B7308233B7311E097F90D30002BCE
:108F600007DA7B7B5B005BB283F031035BB27B7320
:108F700002E07B7B5B007B733B7B013B3B733B7B7A
:108F8000002BEAD1FB890133FB81FA897B889A4265
:108F9000D9D37B7B18461437BD465DF8047B7047F8
:108FA00080B582B000AF78600B467B8013467B7043
:108FB0007B8819467868FFF7BBFF03461A467B7823
:108FC000934202D04FF0FF3300E0002318460837E9
:108FD000BD4680BD80B586B000AFF8607A601A46A5
:108FE0000B467B8113467B720023BB82BB8A5A1CD3
:108FF000BA821A46FB6813447A89120A92B2D2B234
:109000001A70BB8A5A1CBA821A46FB6813447A89C2
:10901000D2B21A700023FB7530E0BB8A5A1CBA82A8
:109020001A46FB681344FA7D520079680A44128894
:10903000120A92B2D2B21A70BB8A5A1CBA821A466B
:10904000FB681344FA7D520079680A441288D2B250
:109050001A70BB8A023BFA68134402211846FFF7D4
:1090600067FF0346FB74BB8A5A1CBA821A46FB6828
:109070001344FA7C1A70FB7D0133FB75FA7D7B7A11
:109080009A42CAD3BB8A18461837BD4680BD80B500
:1090900096B000AF03463960FB711346BB80BB88B6
:1090A0001A4652001344A7F8523007F10803FB6434
:1090B000B7F85220FB79F96C184600F0EDF803463A
:1090C000A7F84A30B7F94A30002B02D0B7F94A3036
:1090D00047E00023A7F856300023A7F8543039E0C2
:1090E000B7F85630FA6CD018B7F856300233FA6C2D
:1090F00013441B781A460221FFF752FF0346A7F8D4
:109100004A30B7F94A30002B02D0B7F94A3028E08C
:10911000B7F854305A1CA7F854201A463B68134439
:10912000B7F85620F96C0A4412781A70B7F8543020
:109130005A1CA7F854201A463B681344B7F8562027
:109140000132F96C0A4412781A70B7F856300333BA
:10915000A7F85630B7F85620B7F852309A42BFD326
:10916000002318465837BD4680BD80B584B000AF97
:1091700003463960FB711346BB80BA88FB793968B6
:109180001846FFF784FF0346BB81B7F90C30002B6C
:1091900002D0B7F90C3022E00023FB7319E0FB7B0F
:1091A0005B003A681344FA7B520039680A4412881B
:1091B000120211B2FA7B5200386802441288120A75
:1091C00092B212B20A4312B292B21A80FB7B0133FE
:1091D000FB73FB7B9BB2BA889A42E0D80023184607
:1091E0001037BD4680BD80B584B000AF03460A4647
:1091F000FB711346BB80B98807F10C0000230022E5
:10920000FFF7E8FE07F10C01FB790222184600F097
:109210005FF803461BB218461037BD4680BD80B5C7
:1092200086B000AFBA607B600346FB730B46BB8120
:10923000B98907F1140000230022FFF7CBFE07F1E4
:109240001401FB7B0222184600F042F80346FB8221
:10925000B7F91630002B02D0B7F916300CE0BB6816
:10926000002B02D0B86800F04FF83A8CFB7B79688D
:109270001846FFF77AFF034618461837BD4680BDEB
:1092800080B500AF01F032F8024801F073F800BF7A
:1092900080BD00BFDC0D002080B584B002AF034666
:1092A0003960FB711346BB80FB799BB25B0099B2BE
:1092B000BA886423009313463A68044805F03EFCDC
:1092C00003465BB218460837BD4680BDDC0D002062
:1092D00080B584B002AF03463960FB711346BB8092
:1092E000FB799BB25B0099B2BA8864230093134662
:1092F0003A68044805F02EFB03465BB2184608376F
:10930000BD4680BDDC0D002080B584B000AF786024
:109310007B68104AA2FB03239B09FB607A680D4B14
:10932000A3FB02139B094FF47A7101FB03F3D31AD9
:10933000002B02D0FB680133FB6003F093FD024673
:10934000054B9A4202D8FB680133FB6000BF10371F
:10935000BD4680BDD34D6210FF00010180B582B0D3
:1093600000AF4FF47A73FB800D4B00225A820C4BF6
:1093700000229A83FFF784FF4FF47A73FB8002E0A8
:10938000FB88013BFB8000F0C1F80346002B02D0B4
:10939000FB88002BF4D100BF0837BD4680BD00BF5D
:1093A0007C050020F0B587B002AF3A1D07F1080335
:1093B0001146184600F054F80346FB7397F90F3036
:1093C000002B40D1BB6807EE903AB8EEE77ADFEDAC
:1093D000206AC7EE267A1F4BC3ED057ABB681E4A8A
:1093E00082FB03129211DB17D31A1AB2194B5A825D
:1093F0007B6807EE903AB8EEE77ADFED156AC7EEC4
:10940000267A144BC3ED067A7B68134A82FB03125B
:109410009211DB17D31A9AB20E4B9A830D4B5B69EC
:109420001846F7F7B1F805460E460A4B9B691846F1
:10943000F7F7AAF803460C468DE818002A4633468B
:1094400006480AF097FE00BF1437BD46F0BD00BFC6
:1094500000007A447C050020D34D6210C05F0108F3
:1094600080B584B000AF7860396000F017F803462B
:10947000FB81B7F90E30002B09D143F69820FFF796
:1094800043FF3968786800F017F80346FB81B7F9A5
:109490000E3018461037BD4680BD000080B500AFC5
:1094A0004422044B1B8819461046FFF79CFE0346D6
:1094B000184680BDB401002080B584B000AF78604C
:1094C0003960442007F1080302221946FFF74DFED8
:1094D0000346FB813B891A4645F2735303FB02F3B3
:1094E0005A13094B13447A6813607B891A4643F276
:1094F000D40303FB02F35A133B681A60B7F90E302A
:1095000018461037BD4680BD3850FFFF90B585B076
:1095100002AF44204FF22D314FF47A731C46BA1D2E
:109520000123009313462246FFF779FE03461846AF
:109530000C37BD4690BD000080B500AF074B002240
:109540005A80064B00229A81FFF79AFE00BF00F076
:109550008DF80346002BFAD100BF80BD7C050020AA
:1095600090B583B000AF3B46184600F035F803468F
:10957000FB80B7F90630002B21D13B6807EE903A0B
:10958000B8EEE77ADFED106AC7EE267A0F4BC3ED2F
:10959000017A3B680E4A82FB03129211DB17D31A41
:1095A0001AB20A4B5A80094B5B681846F6F7ECFF73
:1095B00003460C461A46234606480AF0DBFD00BF68
:1095C0000C37BD4690BD00BF00007A447C050020EA
:1095D000D34D6210F05F010880B584B000AF7860B1
:1095E00000F016F80346FB7397F90F30002B08D1F3
:1095F00043F68C40FFF788FE786800F017F80346C2
:10960000FB7397F90F301BB218461037BD4680BD6B
:1096100080B500AF4B22044B1B8819461046FFF75C
:10962000E2FD0346184680BDB601002080B584B037
:1096300000AF78604B2007F10C0301221946FFF7B9
:1096400094FD0346FB81BB891A4645F2735303FB25
:1096500002F35A13044B13447A681360B7F90E30BF
:1096600018461037BD4680BD3850FFFF90B585B015
:1096700002AF4B204FF22D314FF47A731C46BA1DC6
:109680000123009313462246FFF7C9FD03461846FF
:109690000C37BD4690BD000080B58CB000AF78603F
:1096A00007F11C0300221A605A609A60DA601A619E
:1096B0007B681B685F4A93425DD15F4A5E4B5B6C7F
:1096C00043F4807353645C4B5B6C03F48073BB6145
:1096D000BB69594A584B1B6B43F004031363564B49
:1096E0001B6B03F004037B617B690923FB6103238C
:1096F0003B6200237B6207F11C0319464F4804F0CC
:1097000081FE4F4B4F4A1A604D4B00225A604C4B22
:1097100000229A604A4B0022DA60494B4FF4806283
:109720001A61474B4FF480525A61454B4FF48042C7
:109730009A61434B0022DA61414B00221A62404B8E
:1097400000225A623E4B01229A623D4B0022DA62AD
:109750003B4B00221A633A4804F040FA0346002BC0
:1097600002D0182001F0F6F87B68354A9A63344A33
:109770007B68936359E07B681B68334A934254D1FA
:109780002D4A2D4B5B6C43F4806353642A4B5B6C16
:1097900003F480633B613B69274A274B1B6B43F013
:1097A00020031363244B1B6B03F02003FB60FB6857
:1097B0002023FB6103233B6200237B6207F11C0330
:1097C0001946224804F01EFE214B224A1A60204B03
:1097D0004FF080625A601E4B00229A601C4B0022A0
:1097E000DA601B4B4FF480621A61194B4FF4006230
:1097F0005A61174B4FF400529A61154B0022DA61FF
:10980000134B00221A62124B00225A62104804F0D5
:10981000E5F90346002B02D0192001F09BF87B6884
:109820000B4A9A630A4A7B68936300BF3037BD4690
:1098300080BD00BF00200140003802400008024007
:10984000300D0020706402400022014000140240EC
:10985000400C00201064024080B586B000AF3B1D74
:1098600000221A605A609A60DA60934B934A1A6039
:10987000914B4FF480325A608F4B00229A608E4B8E
:1098800001221A618C4B01229A618B4B002283F8D2
:109890002020894B0022DA62874B894A9A62864BE4
:1098A0000022DA60844B0322DA61834B012283F8C1
:1098B0003020814B00225A617F4803F0DDFA0346D5
:1098C000002B02D0102001F045F80023FB75D4E0F6
:1098D000FB7D012B2CD0022B52D0002B00D077E047
:1098E000FA7D784913469B001344DB000B44734A0E
:1098F0001A60FA7D734913469B001344DB000B4446
:1099000004330D221A60FA7D6E4913469B001344FE
:10991000DB000B44083301221A60FA7D69491346C3
:109920009B001344DB000B440C3300221A604FE011
:10993000FA7D644913469B001344DB000B445F4AE5
:109940001A60FA7D5F4913469B001344DB000B4409
:10995000043311221A60FA7D5A4913469B001344BE
:10996000DB000B44083302221A60FA7D5549134686
:109970009B001344DB000B440C3300221A6027E0E9
:10998000FA7D504913469B001344DB000B444B4ABD
:109990001A60FA7D4B4913469B001344DB000B44CD
:1099A00004330A221A60FA7D464913469B00134489
:1099B000DB000B44083303221A60FA7D4149134649
:1099C0009B001344DB000B440C3300221A6000BFE1
:1099D000FA7D3C4913469B001344DB000B441C33C7
:1099E0004FF000021A60FA7D364913469B0013447B
:1099F000DB000B44103300221A80FA7D31491346F4
:109A00009B001344DB000B44183300221A80FA7DBC
:109A10002C4913469B001344DB000B4414330022F3
:109A20001A60FA7D274913469B001344DB000B4460
:109A300004331B687B60FA7D224913469B00134464
:109A4000DB000B4408331B68BB60FA7D1D491346DD
:109A50009B001344DB000B440C331B68FB603B1D75
:109A60001946154803F0EEFC0346002B02D01120E6
:109A700000F070FFFB7D0133FB75FB7D022B7FF651
:109A800027AF0D48FFF708FE03220F490A4803F0ED
:109A900079FB0346002B02D0122000F05BFF00226E
:109AA00004213C2004F063F83C2004F07CF800BF63
:109AB0001837BD4680BD00BFA00C0020002001402B
:109AC0000100000F08040020E006002080B582B0ED
:109AD00000AF8C4803F044FC0023FB71FFE0FB79EE
:109AE000002B00D05DE0FA79874913469B001344B0
:109AF000DB000B4410331B88012B51D1FA798249CA
:109B000013469B001344DB000B441C33D3ED007A57
:109B1000B2EE047AF4EEC77AF1EE10FA00DC3FE020
:109B2000FA79794913469B001344DB000B441C333C
:109B3000D3ED007A9FED757AF4EEC77AF1EE10FA64
:109B400000D42DE04FF6F673BB800023FB7024E0B9
:109B5000FB786F4A32F8133007EE903AB8EEE77AA6
:109B6000FA79694913469B001344DB000B441C330C
:109B7000D3ED007AB4EEE77AF1EE10FA04D5654A37
:109B8000BB8853848323FB70FB780133FB70B7F9E8
:109B900004309BB201339BB2BB80FB78822BD7D9B8
:109BA00000BFFA79FB795C4951F8233098B25649E5
:109BB00013469B001344DB000B44183302461A8003
:109BC000FA79F97950480B469B000B44DB000344BB
:109BD00014331968FB79504850F8233019444A4827
:109BE00013469B001344DB00034414331960FA79D5
:109BF000454913469B001344DB000B4410331B887C
:109C0000013398B2404913469B001344DB000B44D8
:109C10001033014619803C4913469B001344DB0076
:109C20000B4410331B881946FB793C4AD35C013B3B
:109C3000994251DDFA79F97933480B469B000B4480
:109C4000DB00034414331B68F9793448415CB3FBEF
:109C5000F1F307EE903AF8EE677A2B4913469B0032
:109C60001344DB000B441C33C3ED007AF979FA7915
:109C7000254813469B001344DB0003441C33D3EDFB
:109C8000007AFCEEE77A17EE902A40F6E44303FBF5
:109C900002F2234BA3FB0203D21A52081344DA0A3E
:109CA00019480B469B000B44DB00034420331A6029
:109CB000FA79154913469B001344DB000B44143317
:109CC00000221A60FA79104913469B001344DB0006
:109CD0000B44103300221A80FB790133FB71FB79AE
:109CE000022B7FF6FCAE03220B49064803F04AFA2A
:109CF0000346002B02D0122000F02CFE00BF0837D4
:109D0000BD4680BDA00C00200804002000507F4507
:109D1000FC6101087C050020E0060020F8610108D4
:109D20000101100080B582B000AF1E4A1D4B1B6BB5
:109D300043F4800313631B4B1B6B03F480037B60B2
:109D40007B68184A174B1B6B43F400131363154BC6
:109D50001B6B03F400133B603B68002200210C20C6
:109D600003F005FF0C2003F01EFF002200210E204F
:109D700003F0FDFE0E2003F016FF0022002111204B
:109D800003F0F5FE112003F00EFF00220021452014
:109D900003F0EDFE452003F006FF00BF0837BD4687
:109DA00080BD00BF0038024080B58EB000AF07F123
:109DB000240300221A605A609A60DA601A61B64A77
:109DC000B54B1B6B43F010031363B34B1B6B03F0DA
:109DD00010033B623B6AB04AAF4B1B6B43F004037A
:109DE0001363AD4B1B6B03F00403FB61FB69AA4AD1
:109DF000A94B1B6B43F020031363A74B1B6B03F0B2
:109E00002003BB61BB69A44AA34B1B6B43F08003D7
:109E10001363A14B1B6B03F080037B617B699E4A3C
:109E20009D4B1B6B43F0010313639B4B1B6B03F0B8
:109E300001033B613B69984A974B1B6B43F002035C
:109E40001363954B1B6B03F00203FB60FB68924AA4
:109E5000914B1B6B43F0400313638F4B1B6B03F061
:109E60004003BB60BB688C4A8B4B1B6B43F0080301
:109E70001363894B1B6B03F008037B607B68002234
:109E800048F28051854804F07FFC01220821834874
:109E900004F07AFC00223021814804F075FC012294
:109EA0004FF430517E4804F06FFC00224FF4A07153
:109EB0007C4804F069FC002241F603017A4804F072
:109EC00063FC002243F6E151784804F05DFC012276
:109ED0000121764804F058FC012244F2060173483F
:109EE00004F052FC002249F63671714804F04CFC33
:109EF00001224FF410716E4804F046FC00224FF42A
:109F000080716C4804F040FC48F288537B62012366
:109F1000BB620023FB6200233B6307F12403194665
:109F20005E4804F06FFA42F630437B620123BB6265
:109F30000023FB6200233B6307F1240319465848C2
:109F400004F060FA4FF61C437B620023BB620023DF
:109F5000FB6207F124031946524804F053FA4FF408
:109F6000A0737B620123BB620023FB6200233B637F
:109F700007F1240319464B4804F044FA41F6030361
:109F80007B620123BB620023FB6200233B6307F17A
:109F900024031946444804F035FA04237B62002365
:109FA000BB620023FB6207F124031946414804F019
:109FB00029FA47F6E7537B620123BB620023FB6269
:109FC00000233B6307F124031946384804F01AFACA
:109FD0004FF480537B620023BB620023FB6207F1D6
:109FE000240319462D4804F00DFA4FF450437B62C8
:109FF0000223BB620023FB6203233B630C237B63CE
:10A0000007F1240319462B4804F0FCF94FF40053E0
:10A010007B620023BB620023FB6207F12403194625
:10A02000244804F0EFF949F676737B620123BB62A2
:10A030000023FB6200233B6307F1240319461C48FD
:10A0400004F0E0F908237B620023BB620023FB627B
:10A0500007F124031946154804F0D4F94FF40473AA
:10A060007B62154BBB620023FB6207F12403194698
:10A070000E4804F0C7F94FF480537B620023BB62A3
:10A080000023FB6207F124031946054804F0BAF9DE
:10A0900001237B6212E000BF003802400010024042
:10A0A0000008024000140240000002400018024074
:10A0B000000C02400004024000001110204BBB6263
:10A0C0000023FB6207F1240319461E4804F09AF9A5
:10A0D00080237B620023BB620023FB6207F1240321
:10A0E0001946184804F08EF94FF480737B62002300
:10A0F000BB620023FB6207F124031946124804F0F7
:10A1000081F94FF400437B620023BB620023FB62B2
:10A1100007F1240319460D4804F074F903237B6208
:10A120000123BB620023FB6200233B6307F124038E
:10A130001946074804F066F900BF3837BD4680BDB0
:10A1400000001110000C0240000402400018024000
:10A150000010024080B500AF01222021174804F012
:10A1600013FB01224FF48061154804F00DFB01221E
:10A170004FF48071124804F007FB002201211048BF
:10A1800004F002FB002202210D4804F0FDFA0D4B01
:10A190001B6840F2DE32DA620A4B40F2E732DA60E4
:10A1A000084B1B6800229A63074B41225A80064ADB
:10A1B000137943F00103137100BF80BD000C02400E
:10A1C00000100240A00F0020F006002080B584B0EF
:10A1D00000AF03460A46FB711346BB71BB79002BE7
:10A1E00014BF01230023DBB2FB73FB79092B3FD89B
:10A1F000FB79013B082B3BD801A252F823F000BFAA
:10A200006FA200086FA2000825A2000833A2000870
:10A2100043A2000871A2000871A2000853A200081E
:10A2200061A20008FB7B1A462021134804F0ACFA17
:10A230001EE0FB7B1A464FF48061104804F0A4FA3C
:10A2400016E0FB7B1A464FF480710C4804F09CFA30
:10A250000EE0FB7B1A460121084804F095FA07E05E
:10A26000FB7B1A460221054804F08EFA00E000BF8D
:10A2700000BF1037BD4680BD000C024000100240F8
:10A2800080B483B000AF164B1B7903F00103DBB23F
:10A29000002B1ED064237B60114B5B88632B02D89C
:10A2A0000F4B5B887B600F4BDB6801333B607B6847
:10A2B0003A6802FB03F30C4AA2FB03235B097B60B1
:10A2C000084B1B687A689A63054A13796FF3000399
:10A2D000137100BF0C37BD465DF8047B704700BFAB
:10A2E000F0060020A00F00201F85EB5180B500AFC5
:10A2F0001D4B1E4A1A601C4B1D4A5A601A4B002205
:10A300009A60194B0122DA60174B00221A61164B32
:10A3100000225A61144B00229A61134B0022DA6129
:10A32000114B00221A62104804F086FA0346002BF3
:10A3300002D0302000F00EFB4FF480510A4804F0A8
:10A34000D1FE0346002B02D0312000F003FB002198
:10A35000054804F012FF0346002B02D0322000F023
:10A36000F9FA00BF80BD00BFDC0D002000540040A2
:10A370006847402080B58EB000AF786007F12403B5
:10A3800000221A605A609A60DA601A617B681B6862
:10A39000544A934228D1544A534B1B6B43F0020357
:10A3A0001363514B1B6B03F002033B623B6AC023F8
:10A3B0007B621223BB620123FB6203233B63042302
:10A3C0007B6307F124031946484804F01BF8464A0A
:10A3D000454B1B6C43F400131364434B1B6C03F499
:10A3E0000013FB61FB6978E07B681B68404A93427D
:10A3F00028D13D4A3C4B1B6B43F0200313633A4B7F
:10A400001B6B03F02003BB61BB6903237B62122338
:10A41000BB620123FB6203233B6304237B6307F1DD
:10A4200024031946334803F0EDFF2F4A2E4B1B6CD3
:10A4300043F4800313642C4B1B6C03F480037B6197
:10A440007B694AE07B681B682B4A934245D1264AC8
:10A45000254B1B6B43F004031363234B1B6B03F06F
:10A4600004033B613B69204A1F4B1B6B43F0010314
:10A4700013631D4B1B6B03F00103FB60FB684FF480
:10A4800000737B621223BB620123FB6203233B63E5
:10A4900004237B6307F124031946184803F0B2FF35
:10A4A0004FF480737B621223BB620123FB620323A0
:10A4B0003B6304237B6307F124031946104803F030
:10A4C000A1FF094A084B1B6C43F400031364064BBD
:10A4D0001B6C03F40003BB60BB6800BF3837BD468C
:10A4E00080BD00BF0054004000380240000402401C
:10A4F0000058004000140240005C00400008024088
:10A500000000024080B500AF02F02CFC00F0F8F82B
:10A51000FFF74AFCFFF706FCFFF7E8FE00F09AFDA4
:10A5200000F0D6FD00F012FE01F062FA01F034FBFB
:10A5300001F012FC01F0A6FB02F00CF902F03AF96E
:10A5400002F068F902F096F901F084FC01F0D2FC07
:10A5500001F0F4FC00F08AF9FFF7FCFD01F086FF42
:10A5600001F09CFF544801F0E1FD544801F0DEFD8C
:10A57000534B00221A708122524B1A608122002113
:10A58000514809F0F7FD514B10221A704F4B1B78C0
:10A590001846F9F793F8F9F711FA00224FF4807191
:10A5A0004B4804F0F1F800224FF40051484804F001
:10A5B000EBF8FFF751F9F8F76BFCF7F755FCFDF7EF
:10A5C0009DF8F6F7C5FDF7F737FDFEF7C7FEFEF776
:10A5D000B3FF404B01221A803F4B4FF6FF721A80A7
:10A5E0003E4B00221A70FDF715F9F9F725FA00F035
:10A5F000C3F9394B1B884FF6FF72934209D0F6F727
:10A6000063FFF8F733FBF7F7B9FBFDF789FDF7F7C1
:10A61000E7FEFFF735FE324B5B78C3F34003DBB256
:10A6200019460120FFF7D2FD2D4B5B78C3F3C00321
:10A63000DBB219460220FFF7C9FD294B5B78C3F353
:10A640004013DBB219460320FFF7C0FD244B1B78F3
:10A65000C3F34013DBB219460920FFF7B7FD214BC6
:10A660001B78012BBFD1FCF7CBFD1F4B5B88194634
:10A670001D4B9B881A461D4809F07CFD1C4BB3F806
:10A68000D2301946184B9B891A461A4809F072FDB8
:10A69000FEF766FFFEF786FEFFF718FA0F4B1B78F2
:10A6A0001946154B1B881A46144809F063FD0D4BDB
:10A6B00000221A7097E700BFA0110020A010002010
:10A6C000E0050020480700200C600108F405002088
:10A6D0000018024084040020F80500202207002012
:10A6E000300700200E0700201C0500203460010800
:10A6F000FC05002050600108D407002078600108A4
:10A7000080B5B4B000AF07F1A00330220021184695
:10A7100009F0BBF807F18C0300221A605A609A60B6
:10A72000DA601A6107F1080384220021184609F053
:10A73000ACF804F06FFD4A4A494B1B6F23F0180335
:10A740001367474A464B1B6C43F080531364444BDA
:10A750001B6C03F080537B607B68424A414B1B6853
:10A7600043F4404313603F4B1B6803F440433B609A
:10A770003B680D23C7F8A0304FF48033C7F8A430EE
:10A780000123C7F8A8300123C7F8B4300223C7F863
:10A79000B8304FF48003C7F8BC300823C7F8C03086
:10A7A000D823C7F8C4300223C7F8C8300923C7F834
:10A7B000CC3007F1A003184604F08CFD0346002BB3
:10A7C00002D0012000F0C6F804F034FD0346002B4F
:10A7D00002D0022000F0BEF80F23C7F88C3002230D
:10A7E000C7F890300023C7F894304FF4A053C7F84F
:10A7F00098304FF48053C7F89C3007F18C03072141
:10A80000184604F0D7FF0346002B02D0032000F0C7
:10A81000A1F8154BBB604FF48073BB630023FB644E
:10A8200000233B6500237B6500233B660023BB665A
:10A830000023FB6600233B6700237B670023C7F8E8
:10A84000843007F10803184605F0A6F90346002BEB
:10A8500002D0042000F07EF800BFD037BD4680BD96
:10A860000038024000700040E0E9210080B500AFF0
:10A8700000220021392003F07AF9392003F093F9FE
:10A8800000220021452003F072F9452003F08BF9E6
:10A8900000220521122003F06AF9122003F083F947
:10A8A000002202211A2003F062F91A2003F07BF93A
:10A8B000002202211D2003F05AF91D2003F073F934
:10A8C000002202211E2003F052F91E2003F06BF932
:10A8D00000220221322003F04AF9322003F063F90A
:10A8E00000220321232003F042F9232003F05BF927
:10A8F00000220121252003F03AF9252003F053F925
:10A9000000220021472003F032F9472003F04BF9E1
:10A9100000220121262003F02AF9262003F043F922
:10A9200000220A21272003F022F9272003F03BF917
:10A9300000220921542003F01AF9542003F033F9BE
:10A94000022200212D2003F012F92D2003F02BF913
:10A9500000BF80BD80B582B000AF0346FB80044AD3
:10A96000FB881380FB881946024809F003FCFEE7C8
:10A97000FA0300209060010880B500AFBE4B1B7841
:10A98000602B00F24D8301A252F823F053AB000874
:10A9900011AB00087DAB000829B0000821B0000809
:10A9A00021B00008ABAE0008BFAE0008D9AE000869
:10A9B00029B0000821B0000821B0000821B000082B
:10A9C00021B0000821B0000821B00008B3AD000894
:10A9D000CDAD000829B0000801AE00081BAE00088C
:10A9E00029B000084FAE000869AE000829B0000881
:10A9F00021B0000821B0000821B0000821B00008F3
:10AA000021B0000821B0000821B0000821B00008E2
:10AA100021B0000821B0000821B0000821B00008D2
:10AA200021B0000821B0000821B0000821B00008C2
:10AA300021B0000821B0000821B0000821B00008B2
:10AA400021B0000821B0000821B00008B5AF00080F
:10AA5000D3AF000821B0000821B0000821B00008E1
:10AA6000F3AF0008FBAF000821B0000821B00008D8
:10AA700021B0000821B0000821B0000821B0000872
:10AA800021B0000821B0000821B000089DAE0008E8
:10AA900021B0000821B0000821B0000821B0000852
:10AAA00021B0000821B0000821B0000821B0000842
:10AAB00021B0000821B0000821B0000821B0000832
:10AAC00021B0000821B0000821B0000803B0000840
:10AAD00021B0000821B0000821B0000821B0000812
:10AAE00021B0000821B0000821B0000821B0000802
:10AAF00021B0000821B0000821B0000821B00008F2
:10AB000021B0000821B0000821B000086FAB000898
:10AB1000594B01221A70594B1B884FF6FF72934212
:10AB200000F08482564B1B884FF6FF72934200F070
:10AB30007D82FCF7F5FD534BDB88002B01D0FDF740
:10AB4000F7F8504B002283F885204B4B02221A70F5
:10AB50006CE2494B00221A70484B1B884FF6FF727B
:10AB6000934200F06582444B01221A7060E2454B2B
:10AB7000FA22DA80404B06221A7062E23E4B022231
:10AB80001A70414B1B7803F00403DBB2002B02D098
:10AB9000394B30221A703D4B1B7803F01003DBB2A7
:10ABA000002B2ED03A4B1B8C1A463A4B1A61384B6D
:10ABB0005A8C384B5A85374B0022DA60354B5A8D08
:10ABC000344B1A85324B00229A83314B0022DA83B0
:10ABD000304B012283F82020294B1B7803F002031D
:10ABE000DBB2002B03D12B4B0A225A7002E0294B17
:10ABF0000D225A70284809F0BDFA1F4B10221A7016
:10AC0000CDE0224B1B7803F02003DBB2002B47D0B2
:10AC10001F4BB3F858301A461E4B1A611C4BB3F841
:10AC20005A201C4B5A851B4B0022DA60194B5A8D57
:10AC3000184B1A85164B0022A3F85420144B0022FF
:10AC4000A3F85620134B022283F820200C4B1B78CC
:10AC500003F00203DBB2002B03D10E4B0A225A7021
:10AC600002E00C4B0D225A700C4809F083FA024B9B
:10AC700013221A7093E000BF22070020F80500207D
:10AC8000840400204C07002018050020D407002071
:10AC9000FC050020E0070020A0600108B460010866
:10ACA000AD4B1B7803F04003DBB2002B32D0AB4B33
:10ACB000B3F890301A46AA4B1A61A84BB3F8922009
:10ACC000A74B5A85A64B0022DA60A54B5A8DA44BA0
:10ACD0001A85A24B0022A3F88C20A04B0022A3F8D7
:10ACE0008E209F4B032283F820209E4B1B7803F07D
:10ACF0000203DBB2002B03D1994B0A225A7002E007
:10AD0000974B0D225A70984809F034FA974B162247
:10AD10001A7044E0904B1B7803F00103DBB2002B68
:10AD20000DD18D4B1B7803F00203DBB2002B06D153
:10AD3000894B1B7803F00403DBB2002B2FD0864B2A
:10AD40001B7803F00103DBB2002B06D0884B0122F5
:10AD500083F84420874809F00DFA7F4B1B7803F0F5
:10AD60000203DBB2002B06D0814B012283F8452081
:10AD7000814809F0FFF9784B1B7803F00403DBB23C
:10AD8000002B06D07A4B012283F846207B4809F03D
:10AD9000F1F9764B40221A70754B07221A80002376
:10ADA0000022002140F2B950FDF7D4F8F8F718F866
:10ADB00047E16B4B5B781946714809F0DBF9684B4A
:10ADC000DB6819466F4809F0D5F93AE16E4809F099
:10ADD000D1F9634BDB6819466A4809F0CBF9634B3C
:10ADE00011221A70694B1B88002B40F023815A4AAC
:10ADF00013786FF3041313705C4B02221A7019E17D
:10AE0000574B5B781946624809F0B4F9544BDB683C
:10AE100019465C4809F0AEF913E15E4809F0AAF959
:10AE20004F4BDB681946574809F0A4F94F4B1422E1
:10AE30001A70564B1B88002B40F0FE80464A137850
:10AE40006FF345131370494B02221A70F4E0444B20
:10AE50005B781946504809F08DF9414BDB6819467B
:10AE6000484809F087F9ECE04C4809F083F93C4B7D
:10AE7000DB681946434809F07DF93C4B17221A70EC
:10AE8000424B1B88002B40F0D980334A13786FF374
:10AE900086131370354B02221A70CFE0404809F038
:10AEA00069F9324B40221A70CBE03E4809F062F952
:10AEB0002E4B07221A702E4B07221A80C1E02C4B12
:10AEC0001B881946384809F055F9294B5B89194602
:10AED000364809F04FF9B4E0254B1B881946344831
:10AEE00009F048F9214B08221A70284B1B88002BC7
:10AEF00040F0A680184A13786FF300031370164AC7
:10AF000013786FF341031370134A13786FF38203BE
:10AF10001370124B93F83630002B40F091800F4B9A
:10AF200093F86E30002B40F08B800C4B93F8A630DA
:10AF3000002B40F085800A4B0022DA60084B00228B
:10AF40005A85074BDB689BB21846F5F7D1FF074BD4
:10AF500002221A7074E000BFD4070020FC05002014
:10AF6000E007002084040020C860010822070020B8
:10AF70004C070020DC600108EC600108FC6001085F
:10AF80000C6101082061010830610108F806002009
:10AF90004061010854610108646101087861010899
:10AFA0008861010894610108AC610108BC61010875
:10AFB000DC610108244B30221A700320FCF778F979
:10AFC000214B31221A703CE01F4B31221A70F8F7E6
:10AFD00033FD1E4B1B7803F00403DBB2002BF3D1CF
:10AFE0001A4A13786FF382031370174B02221A70F8
:10AFF00027E0154B35221A7023E0134B02221A70FA
:10B000001FE0134B1B7803F00803DBB2002B03D1C6
:10B010000D4B02221A7014E00B4B50221A7010E0F4
:10B02000094B00221A700CE000BF0AE000BF08E0E4
:10B0300000BF06E000BF04E000BF02E000BF00E088
:10B0400000BF00BF80BD00BF220700201805002000
:10B050008404002080B500AF1B4B1C4A1A601A4BB9
:10B060004FF482725A60184B00229A60164B4FF4CC
:10B07000E062DA60144B02221A61134B01225A611A
:10B08000114B4FF400729A610F4B2822DA610E4B7C
:10B0900000221A620C4B00225A620B4B00229A6269
:10B0A000094B0722DA62084B00221A63064B002282
:10B0B0005A63054805F05EF90346002B02D0602074
:10B0C000FFF748FC00BF80BD3C0F0020003001406E
:10B0D00080B500AF1B4B1C4A1A601A4B4FF48272AA
:10B0E0005A60184B00229A60164B4FF47062DA6077
:10B0F000144B02221A61134B01225A61114B4FF477
:10B1000000729A610F4B3822DA610E4B00221A62EC
:10B110000C4B00225A620B4B00229A62094B072209
:10B12000DA62084B00221A63064B00225A63054874
:10B1300005F020F90346002B02D06120FFF70AFC3E
:10B1400000BF80BD740E00200038004080B500AF05
:10B150001B4B1C4A1A601A4B4FF482725A60184BF0
:10B1600000229A60164B4FF4E062DA60144B022220
:10B170001A61134B01225A61114B4FF400729A610C
:10B180000F4B3822DA610E4B00221A620C4B002260
:10B190005A620B4B00229A62094B0722DA62084B73
:10B1A00000221A63064B00225A63054805F0E2F8B4
:10B1B0000346002B02D06220FFF7CCFB00BF80BD0E
:10B1C000D80E00200034014080B590B000AF786008
:10B1D00007F12C0300221A605A609A60DA601A6143
:10B1E0007B681B68674A934236D1674A664B5B6C43
:10B1F00043F480535364644B5B6C03F48053BB6231
:10B20000BB6A614A604B1B6B43F0010313635E4BE7
:10B210001B6B03F001037B627B6AE023FB6202236A
:10B220003B6300237B630323BB630523FB6307F1BD
:10B230002C031946554803F0E5F81023FB6201235F
:10B240003B6300237B630123BB6307F12C03194697
:10B250004E4803F0D7F891E07B681B684C4A934254
:10B260005FD1494A484B1B6C43F480431364464BFF
:10B270001B6C03F480433B623B6A434A424B1B6BAB
:10B2800043F004031363404B1B6B03F00403FB61A7
:10B29000FB693D4A3C4B1B6B43F0080313633A4B7D
:10B2A0001B6B03F00803BB61BB69374A364B1B6B52
:10B2B00043F002031363344B1B6B03F002037B6107
:10B2C0007B690623FB6202233B6300237B6303232A
:10B2D000BB630523FB6307F12C0319462D4803F0DC
:10B2E00091F80823FB6202233B6300237B63032363
:10B2F000BB630523FB6307F12C031946264803F0C3
:10B3000081F84FF40073FB6201233B6300237B63EE
:10B310000123BB6307F12C031946204803F072F8A0
:10B320002CE07B681B681E4A934227D1164A164BB5
:10B330005B6C43F400535364134B5B6C03F4005396
:10B340003B613B69104A104B1B6B43F010031363C6
:10B350000D4B1B6B03F01003FB60FB686423FB6267
:10B3600002233B6300237B630323BB630523FB634F
:10B3700007F12C0319460B4803F044F800BF40378F
:10B38000BD4680BD00300140003802400000024050
:10B390000038004000080240000C02400004024057
:10B3A000003401400010024080B483B000AF0F4A67
:10B3B0000E4B1B6C43F0805313640C4B1B6C03F05F
:10B3C00080537B607B68094A084B5B6C43F4804385
:10B3D0005364064B5B6C03F480433B603B6800BFE7
:10B3E0000C37BD465DF8047B704700BF0038024053
:10B3F00080B400AF00BFBD465DF8047B704780B4E9
:10B4000000AFFEE780B400AFFEE780B400AFFEE718
:10B4100080B400AFFEE780B400AF00BFBD465DF86A
:10B42000047B704780B400AF00BFBD465DF8047B6D
:10B43000704780B400AF00BFBD465DF8047B704725
:10B4400080B500AF01F0CCFC094B1B68B3F1FF3FA6
:10B4500002D1074B00221A60054B1B680133044AD6
:10B460001360044B1B680133024A136000BF80BDA8
:10B47000E40500202807002080B400AF00BFBD46CF
:10B480005DF8047B704780B500AF012003F0B0F990
:10B4900000BF80BD80B500AF102003F0A9F900BF48
:10B4A00080BD000080B500AF024802F037FD00BF4C
:10B4B00080BD00BFE012002080B500AF024802F05E
:10B4C0002DFD00BF80BD00BFC013002080B500AFC0
:10B4D000024802F023FD00BF80BD00BF2012002003
:10B4E00080B500AF024802F019FD00BF80BD00BF6B
:10B4F0008014002080B500AF034801F001FD03482F
:10B5000001F0FEFC00BF80BDA00C0020E80C002074
:10B5100080B500AF4FF4007003F06AF900BF80BD42
:10B5200080B500AF034805F052FF034805F04FFF18
:10B5300000BF80BD60110020E00F002080B500AF8B
:10B54000034805F044FF034805F041FF00BF80BDFC
:10B5500060110020E010002080B500AF024805F027
:10B5600036FF00BF80BD00BF6011002080B500AF76
:10B57000024805F02CFF00BF80BD00BF6010002016
:10B5800080B500AF024805F022FF00BF80BD00BFBC
:10B59000A00F002080B500AF024805F0B1FA00BF4F
:10B5A00080BD00BF3C0F002080B500AF024805F011
:10B5B000A7FA00BF80BD00BF740E002080B500AFA9
:10B5C000024807F065FA00BF80BD00BFE01400200C
:10B5D00080B500AF024807F05BFA00BF80BD00BF36
:10B5E0006016002080B500AF024807F051FA00BF96
:10B5F00080BD00BF4013002080B500AF024805F0B9
:10B60000E6FE00BF80BD00BFA010002080B500AFE7
:10B61000034805F0DCFE00F071FF00BF80BD00BFF5
:10B62000A011002080B500AF024805F0D0FE00BF99
:10B6300080BD00BF2010002080B500AF024805F09B
:10B64000C6FE00BF80BD00BF2011002080B500AF46
:10B65000024805F0BCFE00BF80BD00BFE011002025
:10B6600080B500AF024802F059FC00BF80BD00BFAA
:10B67000400C002080B500AF024802F04FFC00BF34
:10B6800080BD00BF8012002080B500AF024802F0EC
:10B6900045FC00BF80BD00BF7C08002080B500AF26
:10B6A000024802F03BFC00BF80BD00BF300D00200F
:10B6B00080B500AF024802F031FC00BF80BD00BF82
:10B6C0002014002080B500AF024802F027FC00BF24
:10B6D00080BD00BF1C08002080B500AF024807F005
:10B6E000D7F900BF80BD00BFE015002080B500AFD6
:10B6F000024807F0CDF900BF80BD00BF60150020F3
:10B7000080B500AF024805F0FBF900BF80BD00BF67
:10B71000D80E002080B582B000AF78607B681B68CF
:10B720000A4A934203D10A4B012283F883207B68A3
:10B730001B68084A934205D1F5F722FD03461A46D5
:10B74000054B1A7000BF0837BD4680BD0010014090
:10B750004C07002000440040EC06002080B483B079
:10B7600000AF786000BF0C37BD465DF8047B7047C2
:10B7700080B483B000AF786000BF0C37BD465DF881
:10B78000047B704780B483B000AF786000BF0C3793
:10B79000BD465DF8047B704780B582B000AF78602D
:10B7A0007B681B68284A934201D1FCF789F97B68C2
:10B7B0001B68254A93420CD17B681B7F012B08D163
:10B7C0000020FDF7B1F90346082B02D00020FDF759
:10B7D000ABFA7B681B681C4A93420CD17B681B7FC9
:10B7E000022B08D10120FDF79FF90346082B02D058
:10B7F0000120FDF799FA7B681B68134A93420CD12C
:10B800007B681B7F042B08D10220FDF78DF90346CE
:10B81000082B02D00220FDF787FA7B681B680B4AD1
:10B8200093420CD17B681B7F012B08D10320FDF7CD
:10B830007BF90346082B02D00320FDF775FA00BF01
:10B840000837BD4680BD00BF000C004000480140E5
:10B8500090B587B000AFF860B9607A6000237B6173
:10B860000AE0BC68631CBB60AFF300800346DBB238
:10B8700023707B6901337B617A697B689A42F0DBD4
:10B880007B6818461C37BD4690BD80B586B000AFBA
:10B89000F860B9607A6000237B6109E0BB685A1CDC
:10B8A000BA601B78184601F04BFA7B6901337B6163
:10B8B0007A697B689A42F1DB7B6818461837BD4687
:10B8C00080BD000080B584B000AF7860114B1B686C
:10B8D000002B02D10F4B104A1A600E4B1B68FB6005
:10B8E0000C4B1A687B6813446A46934207D907F0E9
:10B8F00097FF02460C2313604FF0FF3306E0054B21
:10B900001A687B681344034A1360FB6818461037B3
:10B91000BD4680BDFC030020E816002080B483B043
:10B9200000AF78604FF0FF3318460C37BD465DF826
:10B93000047B704780B483B000AF786039603B68A7
:10B940004FF400525A60002318460C37BD465DF88C
:10B95000047B704780B483B000AF78600123184641
:10B960000C37BD465DF8047B704780B485B000AFEE
:10B97000F860B9607A60002318461437BD465DF858
:10B98000047B704780B400AF154A154BD3F888305C
:10B9900043F47003C2F88830124A124B1B6843F01C
:10B9A000010313600F4B00229A600E490D4B1A6879
:10B9B0000D4B13400B600B4B0C4A5A60094A094B64
:10B9C0001B6823F480231360064B0022DA60044BCB
:10B9D0004FF000629A6000BFBD465DF8047B70477F
:10B9E00000ED00E000380240FFFFF6FE10300024BA
:10B9F00080B59AB000AF07F15C0300221A605A606C
:10BA00009A6007F1400300221A605A609A60DA6077
:10BA10001A615A619A6107F1300300221A605A6074
:10BA20009A60DA603B1D2C220021184607F02DFF9A
:10BA3000574B584A1A60564B40F237425A60544BA3
:10BA400000229A60524B6322DA60514B00221A6145
:10BA50004F4B00225A614E4B80229A614C4805F0B0
:10BA60002FFB0346002B02D07020FEF773FF4848DF
:10BA700005F078FC0346002B02D07120FEF76AFF28
:10BA80000023FB6500233B6600237B6607F15C0314
:10BA900019463F4806F000FC0346002B02D07220F6
:10BAA000FEF758FF60233B6400237B640023BB64E4
:10BAB0000023FB6400233B6500237B650023BB65FB
:10BAC00007F1400300221946314805F03BFE0346CA
:10BAD000002B02D07320FEF73DFF07F14003042244
:10BAE00019462B4805F02EFE0346002B02D0742089
:10BAF000FEF730FF00233B6301237B630023BB631E
:10BB00000023FB6307F1300308221946204805F0A3
:10BB10007DFD0346002B02D07520FEF71BFF0A2394
:10BB20003B6307F130030C221946194805F06EFDFE
:10BB30000346002B02D07620FEF70CFF00237B602B
:10BB40000023BB600023FB6000233B6100237B617B
:10BB50004FF40053BB610023FB6100233B624FF0B5
:10BB600000737B620023BB620023FB623B1D19460E
:10BB7000074806F0EDFB0346002B02D07720FEF7C6
:10BB8000E9FE034800F08CFB00BF6837BD4680BD6E
:10BB9000601100200000014080B58AB000AF07F1BD
:10BBA0001C0300221A605A609A603B4600221A6009
:10BBB0005A609A60DA601A615A619A612F4B304A72
:10BBC0001A602E4B6B225A602C4B00229A602B4B32
:10BBD00040F2E732DA60294B00221A61274B8022BB
:10BBE0009A61264805F06CFA0346002B02D07820B3
:10BBF000FEF7B0FE0023FB6100237B6207F11C030C
:10BC000019461E4806F048FB0346002B02D0792057
:10BC1000FEF7A0FE60233B6000237B600023BB6037
:10BC200000233B613B4604221946144805F08AFD77
:10BC30000346002B02D07A20FEF78CFE3B460822FA
:10BC400019460E4805F07EFD0346002B02D07B20EE
:10BC5000FEF780FE3B460C221946084805F072FDAF
:10BC60000346002B02D07C20FEF774FE034800F050
:10BC700017FB00BF2837BD4680BD00BF6010002005
:10BC80000004004080B58AB000AF07F11C03002219
:10BC90001A605A609A603B4600221A605A609A60A5
:10BCA000DA601A615A619A61294B2A4A1A60284B54
:10BCB0006B225A60264B00229A60254B40F2E732F5
:10BCC000DA60234B00221A61214B80229A612048BE
:10BCD00005F0F6F90346002B02D07E20FEF73AFE6F
:10BCE0000023FB6100237B6207F11C0319461848FF
:10BCF00006F0D2FA0346002B02D07F20FEF72AFE80
:10BD000060233B6000237B600023BB6000233B611A
:10BD10003B46042219460E4805F014FD0346002B4D
:10BD200002D08020FEF716FE3B460822194608483E
:10BD300005F008FD0346002B02D08120FEF70AFE25
:10BD4000034800F0ADFA00BF2837BD4680BD00BFF4
:10BD5000A00F00200008004080B58AB000AF07F1B6
:10BD60001C0300221A605A609A603B4600221A6047
:10BD70005A609A60DA601A615A619A61334B344AA8
:10BD80001A60324B40F237425A60304B00229A60C0
:10BD90002E4B6322DA602D4B00221A612B4B0022BE
:10BDA0009A612A4805F08CF90346002B02D08E20B8
:10BDB000FEF7D0FD0023FB6100237B6207F11C032B
:10BDC0001946224806F068FA0346002B02D08E205E
:10BDD000FEF7C0FD60233B6000237B600023BB6057
:10BDE00000233B613B4600221946184805F0AAFC97
:10BDF0000346002B02D08E20FEF7ACFD3B4604220A
:10BE00001946124805F09EFC0346002B02D08E20F6
:10BE1000FEF7A0FD3B46082219460C4805F092FCAF
:10BE20000346002B02D08E20FEF794FD3B460C22E9
:10BE30001946064805F086FC0346002B02D08E20EA
:10BE4000FEF788FD00BF2837BD4680BD20100020CA
:10BE5000000C004080B588B000AF3B1D00221A6086
:10BE60005A609A60DA601A615A619A611F4B204ADF
:10BE70001A601E4B40F237425A601C4B00229A60F7
:10BE80001A4B6322DA60194B00221A61174B802289
:10BE90009A61164805F0BEF80346002B02D08720B1
:10BEA000FEF758FD114805F00BF90346002B02D0B0
:10BEB0008820FEF74FFD60237B600023BB600023DA
:10BEC000FB6000237B613B1D00221946074805F0FB
:10BED00039FC0346002B02D08920FEF73BFD0348C6
:10BEE00000F0DEF900BF2037BD4680BDE010002025
:10BEF0000048014080B500AF0E4B0F4A1A600D4B51
:10BF000040F237425A600B4B00229A60094B2622BE
:10BF1000DA60084B00221A61064B80229A610548BC
:10BF200005F078F80346002B02D08A20FEF712FDB8
:10BF300000BF80BDA0100020001C004080B584B070
:10BF400000AF3B4600221A605A609A60DA601E4BCE
:10BF50001E4A1A601C4B40F237425A601A4B0022AC
:10BF60009A60194B6322DA60174B00221A61164B54
:10BF700080229A61144805F04DF80346002B02D048
:10BF80008B20FEF7E7FC104805F0ECF90346002B88
:10BF900002D08C20FEF7DEFC02233B6001237B6095
:10BFA0000023BB600323FB603B4600221946064882
:10BFB00005F02CFB0346002B02D08D20FEF7CAFCB7
:10BFC00000BF1037BD4680BDA011002000200040FA
:10BFD00080B58CB000AF786007F11C0300221A60B6
:10BFE0005A609A60DA601A617B681B68464A93421D
:10BFF00035D1464A454B5B6C43F001035364434BD8
:10C000005B6C03F00103BB61BB69404A3F4B1B6B98
:10C0100043F0100313633D4B1B6B03F010037B6174
:10C020007B694FF4C043FB6102233B6200237B62C8
:10C030000023BB620123FB6207F11C03194634484D
:10C0400002F0E0F90421334806F0F6F80021314807
:10C0500005F062F804212F4805F05EF850E07B6897
:10C060001B682D4A934218D1284A284B1B6C43F079
:10C0700002031364254B1B6C03F002033B613B6915
:10C080000421264805F048F80821244805F044F822
:10C090000C21224805F040F832E07B681B68204AFA
:10C0A000934214D1194A194B1B6C43F004031364D7
:10C0B000164B1B6C03F00403FB60FB680821194856
:10C0C00005F02AF80421174805F026F818E07B68E7
:10C0D0001B68154A934213D10C4A0C4B1B6C43F05E
:10C0E00008031364094B1B6C03F00803BB60BB68B7
:10C0F00000220021322001F03AFD322001F053FDF0
:10C1000000BF3037BD4680BD00000140003802400E
:10C110000010024060110020000400406010002068
:10C1200000080040A00F0020000C004080B58EB039
:10C1300000AF786007F1240300221A605A609A6009
:10C14000DA601A617B681B684D4A93420FD14D4AF1
:10C150004C4B1B6C43F0100313644A4B1B6C03F0F5
:10C1600010033B623B6A786804F080FF84E07B68E0
:10C170001B68454A93420FD1424A424B1B6C43F025
:10C18000200313643F4B1B6C03F02003FB61FB692E
:10C19000786804F06BFF6FE07B681B683B4A934252
:10C1A0000FD1384A374B5B6C43F400335364354B43
:10C1B0005B6C03F40033BB61BB69786804F056FF25
:10C1C0005AE07B681B68324A93420FD12D4A2D4BAF
:10C1D0005B6C43F4802353642A4B5B6C03F4802331
:10C1E0007B617B69786804F041FF45E07B681B68F0
:10C1F000284A93420FD1234A224B1B6C43F0800301
:10C200001364204B1B6C03F080033B613B6978682F
:10C2100004F02CFF30E07B681B681F4A93422BD14F
:10C22000184A184B1B6C43F480731364154B1B6C3A
:10C2300003F48073FB60FB68124A124B1B6B43F0E4
:10C24000200313630F4B1B6B03F02003BB60BB6821
:10C250004FF400737B620223BB620023FB62002366
:10C260003B6309237B6307F1240319460B4802F063
:10C27000C9F8786804F0FAFE00BF3837BD4680BDC3
:10C28000001000400038024000140040004401400B
:10C2900000480140001C0040002000400014024003
:10C2A00080B58EB000AF786007F1240300221A60D9
:10C2B0005A609A60DA601A617B681B68614A93422F
:10C2C00039D1614A604B1B6B43F0020313635E4B31
:10C2D0001B6B03F002033B623B6A5B4A5A4B1B6BCE
:10C2E00043F010031363584B1B6B03F01003FB6107
:10C2F000FB6901237B620223BB620023FB620023F4
:10C300003B6301237B6307F1240319464F4802F086
:10C3100079F84FF420637B620223BB620023FB6247
:10C3200000233B6301237B6307F12403194648483C
:10C3300002F068F882E07B681B68464A934239D174
:10C34000414A414B1B6B43F0020313633E4B1B6B93
:10C3500003F00203BB61BB693B4A3B4B1B6B43F0E1
:10C3600004031363384B1B6B03F004037B617B698D
:10C3700022237B620223BB620023FB6200233B6318
:10C3800002237B6307F124031946304802F03AF890
:10C390004FF480737B620223BB620023FB620023A5
:10C3A0003B6302237B6307F1240319462A4802F00A
:10C3B00029F843E07B681B68284A93421DD1224A32
:10C3C000214B1B6B43F0080313631F4B1B6B03F0E4
:10C3D00008033B613B694FF4C0437B620223BB62AD
:10C3E0000023FB6200233B6302237B6307F12403EA
:10C3F00019461B4802F006F820E07B681B68194AC2
:10C4000093421BD1104A104B1B6B43F02003136364
:10C410000D4B1B6B03F02003FB60FB6880237B62EA
:10C420000223BB620023FB6200233B6303237B6385
:10C4300007F1240319460C4801F0E4FF00BF383728
:10C44000BD4680BD000001400038024000040240AB
:10C4500000100240000400400008024000080040B4
:10C46000000C0240004801400014024080B500AFBB
:10C470000648FFF7ADFD0648FFF7AAFD0548FFF7A0
:10C48000A7FD0548FFF7A4FD00BF80BD6011002097
:10C4900060100020A00F00202010002090B400AFFA
:10C4A000144A4FF000034FF0000482E81800114ACC
:10C4B0004FF000034FF00004C2E902340D4A4FF080
:10C4C00000034FF00004C2E904340A4A4FF00003AD
:10C4D0004FF00004C2E90A34064A4FF000034FF05F
:10C4E0000004C2E90834044B00221A7000BFBD46A4
:10C4F00090BC7047B00500202C07002090B583B099
:10C5000000AF874B5B89002B05D0854B5B89013BD6
:10C510009AB2834B5A81824BB3F84830002B07D034
:10C520007F4BB3F84830013B9AB27D4BA3F84820CB
:10C530007B4BB3F84A30002B07D0794BB3F84A3025
:10C54000013B9AB2764BA3F84A20764BDB8B002B4B
:10C5500005D0744BDB8B013B9AB2724BDA83724B82
:10C56000D3E900014FF00002704BF3F7AFFE034632
:10C570000C466D4A82E818006B4BD3E900014FF07E
:10C5800000026B4BF4F7E4FA0346002B00F0BA808C
:10C59000654A4FF000034FF0000482E81800624B38
:10C5A000D3E902014FF00002604BF3F78FFE034620
:10C5B0000C465D4AC2E902345B4BD3E902014FF0FD
:10C5C00000025B4BF4F7C4FA0346002B00F09A809C
:10C5D000554A4FF000034FF00004C2E90234002333
:10C5E000FB7121E0FA7953491346DB009B1ADB000B
:10C5F0000B4434331B88002B13D0FA794D49134672
:10C60000DB009B1ADB000B4434331B88013B98B2E0
:10C6100048491346DB009B1ADB000B4434330246C7
:10C620001A80FB790133FB71FB79032BDAD9424B7A
:10C630001B88002B05D0404B1B88013B9AB23E4B18
:10C640001A803E4B5B6A002B04D03C4B5B6A013B7B
:10C650003A4A5362394B1B8D002B05D0374B1B8D4B
:10C66000013B9AB2354B1A852F4BD3E904014FF0A9
:10C6700000022E4BF3F72AFE03460C462A4AC2E973
:10C680000434294BD3E904014FF00002284BF4F79E
:10C690005FFA0346002B35D0234A4FF000034FF0DA
:10C6A0000004C2E90434264B01221A701E4BD3E960
:10C6B00006014FF000021D4BF3F708FE03460C463F
:10C6C000194AC2E90634184BD3E906014FF00002BB
:10C6D0001C4BF4F73DFA0346002B09D0124A4FF0E9
:10C6E00000034FF00004C2E90634174B01221A7010
:10C6F000164B1B78012B14BF01230023DBB21A4613
:10C70000124B1A70124B1B88002B05D0104B1B8844
:10C71000013B9AB20E4B1A8000BF0C37BD4690BD4C
:10C720004C07002088040020B00500200000F03FE6
:10C7300000002240FC0500202E050020E00700201C
:10C740000E07002000804D40E00500202C0700204F
:10C75000F806002080B500AF144B154A1A60134B41
:10C760004FF416525A60114B00229A600F4B002270
:10C77000DA600E4B00221A610C4B0C225A610B4BF3
:10C7800000229A61094B0022DA61084B00221A62EA
:10C79000064B00225A62054805F09BFE0346002B1B
:10C7A00002D00420FEF7D6F800BF80BDE0140020C0
:10C7B0000010014080B500AF144B154A1A60134BAE
:10C7C0004FF4E1325A60114B00229A600F4B002265
:10C7D000DA600E4B00221A610C4B0C225A610B4B93
:10C7E00000229A61094B0022DA61084B00221A628A
:10C7F000064B00225A62054805F06BFE0346002BEB
:10C8000002D00520FEF7A6F800BF80BD601600200C
:10C810000044004080B500AF144B154A1A60134B1A
:10C820004FF461325A60114B00229A600F4B002284
:10C83000DA600E4B00221A610C4B0C225A610B4B32
:10C8400000229A61094B0022DA61084B00221A6229
:10C85000064B00225A62054805F03BFE0346002BBA
:10C8600002D00620FEF776F800BF80BD40130020FE
:10C870000048004080B500AF144B154A1A60134BB6
:10C880004FF4E1325A60114B00229A600F4B0022A4
:10C89000DA600E4B00221A610C4B0C225A610B4BD2
:10C8A00000229A61094B0022DA61084B00221A62C9
:10C8B000064B00225A62054805F00BFE0346002B8A
:10C8C00002D00920FEF746F800BF80BDE015002029
:10C8D0000014014080B592B000AF786007F13403D6
:10C8E00000221A605A609A60DA601A617B681B68DD
:10C8F0006B4A934218D16B4A6A4B1B6C43F000435E
:10C900001364684B1B6C03F000433B633B6B654A4D
:10C91000644B1B6B43F010031363624B1B6B03F000
:10C920001003FB62FB6AEDE17B681B685E4A934281
:10C9300040F088805B4A5B4B5B6C43F010035364B0
:10C94000584B5B6C03F01003BB62BB6A554A554BF6
:10C950001B6B43F001031363524B1B6B03F001038A
:10C960007B627B6A4FF4C0637B630223BB6300235B
:10C97000FB6303233B6407237B6407F134031946FD
:10C980004A4801F03FFD4A4B4A4A1A60484B4FF073
:10C9900000625A60464B00229A60454B0022DA60E2
:10C9A000434B4FF480621A61414B00225A61404B65
:10C9B00000229A613E4B0022DA613D4B00221A624E
:10C9C0003B4B00225A623A4801F008F90346002B1B
:10C9D00002D00A20FDF7BEFF7B68354ADA66344A8A
:10C9E0007B689363344B354A1A60334B4FF00062D7
:10C9F0005A60314B40229A602F4B0022DA602E4B56
:10CA00004FF480621A612C4B00225A612A4B00229B
:10CA10009A61294B0022DA61274B00221A62264BC9
:10CA200000225A62244801F0D9F80346002B02D0B4
:10CA30000A20FDF78FFF7B681F4A9A661E4A7B68B3
:10CA400093635FE17B681B681D4A93423AD1154AA4
:10CA5000144B1B6C43F400331364124B1B6C03F434
:10CA600000333B623B6A0F4A0E4B1B6B43F00103E2
:10CA700013630C4B1B6B03F00103FB61FB690C237D
:10CA80007B630223BB630023FB6303233B64072315
:10CA90007B6407F134031946044801F0B3FC31E12B
:10CAA000007C0040003802400010014000000240BD
:10CAB0007C080020406402401C080020B86402404A
:10CAC000004400407B681B68904A934240F08B8092
:10CAD0008F4A8F4B1B6C43F4802313648C4B1B6C6D
:10CAE00003F48023BB61BB69894A894B1B6B43F00C
:10CAF00002031363864B1B6B03F002037B617B69AC
:10CB00004FF440637B630223BB630023FB63032377
:10CB10003B6407237B6407F1340319467D4801F029
:10CB200071FC7D4B7D4A1A607B4B4FF000625A606E
:10CB3000794B00229A60784B0022DA60764B4FF4F2
:10CB400080621A61744B00225A61734B00229A6111
:10CB5000714B4FF48072DA616F4B4FF400321A62FE
:10CB60006D4B00225A626C4801F038F80346002BE6
:10CB700002D00C20FDF7EEFE7B68674ADA66664A53
:10CB80007B689363664B674A1A60654B4FF000629F
:10CB90005A60634B40229A60614B0022DA60604B1E
:10CBA0004FF480621A615E4B00225A615C4B002296
:10CBB0009A615B4B4FF48072DA61594B00221A6222
:10CBC000574B00225A62564801F008F80346002BE2
:10CBD00002D00C20FDF7BEFE7B68514A9A66504A8F
:10CBE0007B6893638EE07B681B684F4A934240F0FA
:10CBF0008980474A464B5B6C43F020035364444BA7
:10CC00005B6C03F020033B613B69414A404B1B6B6B
:10CC100043F0040313633E4B1B6B03F00403FB6000
:10CC2000FB68C0237B630223BB630023FB630323F6
:10CC30003B6408237B6407F1340319463B4801F049
:10CC4000E1FB3B4B3B4A1A60394B4FF020625A6084
:10CC5000374B00229A60364B0022DA60344B4FF497
:10CC600080621A61324B00225A61314B00229A6174
:10CC70002F4B4FF48072DA612D4B4FF480321A62E1
:10CC80002B4B00225A622A4800F0A8FF0346002BD3
:10CC900002D00F20FDF75EFE7B68254ADA66244A43
:10CCA0007B689363244B254A1A60234B4FF0206224
:10CCB0005A60214B40229A601F4B0022DA601E4BC3
:10CCC0004FF480621A611C4B00225A611A4B0022F9
:10CCD0009A61194B4FF48072DA61174B00221A6285
:10CCE000154B00225A62144800F078FF0346002BCF
:10CCF00002D00F20FDF72EFE7B680F4A9A660E4A7F
:10CD00007B68936300BF4837BD4680BD0048004044
:10CD10000038024000040240E01200202860024077
:10CD2000C013002058600240001401400008024077
:10CD3000801200202864024020140020A0640240D9
:10CD400080B582B000AF7860391D4FF6FF730122C5
:10CD5000034805F00CFC7B6818460837BD4680BDCB
:10CD60004013002080B500AF032000F0F5FE002046
:10CD700000F006F8FEF718FB0023184680BD0000FF
:10CD800080B582B000AF7860124B1A68124B1B78E6
:10CD900019464FF47A73B3FBF1F3B2FBF3F3184681
:10CDA00000F00FFF0346002B01D001230EE07B684B
:10CDB0000F2B0AD8002279684FF0FF3000F0D7FE21
:10CDC000064A7B681360002300E0012318460837F9
:10CDD000BD4680BDB8010020C0010020BC0100207C
:10CDE00080B400AF064B1B781A46064B1B681344F1
:10CDF000044A136000BFBD465DF8047B704700BF66
:10CE0000C0010020E016002080B400AF034B1B6877
:10CE10001846BD465DF8047B704700BFE016002051
:10CE200080B584B000AF7860FFF7EEFFB8607B6834
:10CE3000FB60FB68B3F1FF3F05D0094B1B781A4636
:10CE4000FB681344FB6000BFFFF7DEFF0246BB68D0
:10CE5000D21AFB689A42F7D300BF1037BD4680BD97
:10CE6000C001002080B400AF024B1846BD465DF8FB
:10CE7000047B70470007020180B584B000AF786082
:10CE80000023FB737B68002B01D1012331E07B6819
:10CE90001B6C002B09D17868FCF7FEFB7B68002235
:10CEA0005A647B68002283F83C207B681B6C03F08B
:10CEB0001003002B16D17B681A6C104B134043F003
:10CEC00002027B681A64786800F0F2FB7B6800223B
:10CED0005A647B681B6C23F0030343F001027B68F8
:10CEE0001A6401E00123FB737B68002283F83C2075
:10CEF000FB7B18461037BD4680BD00BFFDEEFFFF2F
:10CF000080B584B000AF78600023FB600023BB6075
:10CF10007B681B681B6803F00203022B0CBF012314
:10CF20000023DBB2FB607B681B685B6803F02003B7
:10CF3000202B0CBF01230023DBB2BB60FB68002B5E
:10CF400049D0BB68002B46D07B681B6C03F01003F4
:10CF5000002B05D17B681B6C43F400727B681A645C
:10CF60007B681B689B6803F04053002B2BD17B68C8
:10CF70009B69002B27D17B681B68DB6A03F4700375
:10CF8000002B06D07B681B689B6803F48063002B32
:10CF900019D17B681B687A681268526822F02002F7
:10CFA0005A607B681B6C23F480727B681A647B6810
:10CFB0001B6C03F48053002B05D17B681B6C43F082
:10CFC00001027B681A64786800F014FA7B681B68B9
:10CFD0006FF012021A607B681B681B6803F0040381
:10CFE000042B0CBF01230023DBB2FB607B681B68B2
:10CFF0005B6803F08003802B0CBF01230023DBB2AE
:10D00000BB60FB68002B57D0BB68002B54D07B68FB
:10D010001B6C03F01003002B05D17B681B6C43F4E1
:10D0200000527B681A647B681B689B6803F440139A
:10D03000002B39D17B681B689B6B03F44013002BDA
:10D0400006D07B681B689B6803F48063002B2BD1A0
:10D050007B681B685B6803F48063002B24D17B68CA
:10D060001B689B6803F04053002B1DD17B689B69B4
:10D07000002B19D17B681B687A681268526822F00D
:10D0800080025A607B681B6C23F480527B681A64B0
:10D090007B681B6C03F48073002B05D17B681B6CD1
:10D0A00043F001027B681A64786800F07DFC7B68BD
:10D0B0001B686FF00C021A607B681B681B6803F02A
:10D0C0000103012B0CBF01230023DBB2FB607B6853
:10D0D0001B685B6803F04003402B0CBF0123002357
:10D0E000DBB2BB60FB68002B17D0BB68002B14D0F1
:10D0F0007B681B681B6803F00103012B0DD17B6863
:10D100001B6C43F480327B681A64786800F086F9FF
:10D110007B681B686FF001021A607B681B681B68E4
:10D1200003F02003202B0CBF01230023DBB2FB60A4
:10D130007B681B685B6803F08063B3F1806F0CBF92
:10D1400001230023DBB2BB60FB68002B15D0BB685A
:10D15000002B12D07B685B6C43F002027B685A6440
:10D160007B681B686FF020021A60786800F060F935
:10D170007B681B686FF020021A6000BF1037BD4645
:10D1800080BD000080B586B000AFF860B9607A60FD
:10D1900000237B61FB6893F83C30012B01D1022313
:10D1A000C7E0FB68012283F83C20FB681B689B6892
:10D1B00003F00103012B18D0FB681B68FA681268A2
:10D1C000926842F001029A605C4B1B685C4AA2FBC9
:10D1D00003239A0C13465B0013447B6102E07B69D6
:10D1E000013B7B617B69002BF9D1FB681B689B6865
:10D1F00003F00103012B40F09B80FB681A6C514B3C
:10D20000134043F48072FB681A64FB681B685B6818
:10D2100003F48063002B07D0FB681B6C23F440539E
:10D2200043F48052FB681A64FB681B6C03F4805360
:10D23000B3F5805F06D1FB685B6C23F00602FB68E8
:10D240005A6402E0FB6800225A64FB68002283F8FB
:10D250003C20FB689B6B3C4ADA63FB689B6B3B4A58
:10D260001A64FB689B6B3A4ADA64FB681B686FF0D0
:10D2700022021A60FB681B68FA681268526842F062
:10D2800080625A60FB681B68FA681268926842F410
:10D2900080729A60FB68986BFB681B684C33194678
:10D2A000BA687B6800F048FD2A4B5B6803F01F03F7
:10D2B000002B0FD1FB681B689B6803F04053002BC9
:10D2C00036D1FB681B68FA681268926842F08042A7
:10D2D0009A602DE0FB681B681F4A93420ED1FB68E1
:10D2E0001B689B6803F04053002B07D1FB681B6849
:10D2F000FA681268926842F080429A60154B5B6847
:10D3000003F01003002B13D1FB681B68134A9342F0
:10D310000ED1FB681B689B6803F04053002B07D1BC
:10D32000FB681B68FA681268926842F080429A6053
:10D33000002318461837BD4680BD00BFB801002045
:10D3400083DE1B43FEF8FFFFA5D800085FD9000865
:10D350007BD9000800230140002001400022014049
:10D3600080B584B000AF78600023FB737B6893F8CE
:10D370003C30012B01D1022336E07B68012283F887
:10D380003C207B681B687A681268926822F0010270
:10D390009A607B681B689B6803F00103002B1ED119
:10D3A0007B681B687A681268926822F480729A60BF
:10D3B0007B689B6B184600F01FFD0346FB737B6880
:10D3C0001B687A681268526822F080625A607B6833
:10D3D0001A6C074B134043F001027B681A647B68A8
:10D3E000002283F83C20FB7B18461037BD4680BDE9
:10D3F000FEEEFFFF80B483B000AF786000BF0C3753
:10D40000BD465DF8047B704780B483B000AF7860A0
:10D4100000BF0C37BD465DF8047B704780B483B015
:10D4200000AF786000BF0C37BD465DF8047B7047E5
:10D4300080B483B000AF786000BF0C37BD465DF8A4
:10D44000047B704790B484B000AF786039600023EB
:10D45000FB607B6893F83C30012B01D1022317E17C
:10D460007B68012283F83C203B681B68092B36D976
:10D470007B681A687B681B68D9683B681B689BB22D
:10D48000184603465B0003441E3B072000FA03F3E3
:10D49000DB430B40D3603B681B68804A93420AD150
:10D4A0007B681B687A681268D1683A6892681206CD
:10D4B0000A43DA6037E07B681A687B681B68D968C2
:10D4C0003B6898683B681B689BB21C4623465B0020
:10D4D00023441E3B00FA03F30B43D36023E07B6835
:10D4E0001A687B681B6819693B681B689BB2184601
:10D4F00003465B000344072000FA03F3DB430B40C1
:10D5000013617B681A687B681B6819693B689868B7
:10D510003B681B689BB21C4623465B00234400FA11
:10D5200003F30B4313613B685B68062B24D87B68CD
:10D5300019687B681B68586B3B685A6813469B00E8
:10D540001344053B1F2202FA03F3DB4303404B6302
:10D550007B6819687B681B68586B3B681B689BB2CB
:10D560001C463B685A6813469B001344053B04FA6B
:10D5700003F303434B634CE03B685B680C2B24D8FC
:10D580007B6819687B681B68186B3B685A68134690
:10D590009B001344233B1F2202FA03F3DB430340A7
:10D5A0000B637B6819687B681B68186B3B681B689A
:10D5B0009BB21C463B685A6813469B001344233BAE
:10D5C00004FA03F303430B6323E07B6819687B6869
:10D5D0001B68D86A3B685A6813469B001344413B5A
:10D5E0001F2202FA03F3DB430340CB627B68196816
:10D5F0007B681B68D86A3B681B689BB21C463B680B
:10D600005A6813469B001344413B04FA03F3034357
:10D61000CB627B681B68224A934209D13B681B6836
:10D62000122B05D11F4A1F4B5B6843F480035360E4
:10D630007B681B681A4A934225D13B681B68174ACE
:10D64000934203D03B681B68112B1CD1154A154B24
:10D650005B6843F4000353603B681B680F4A9342C6
:10D6600011D1114B1B68114AA2FB03239A0C1346DC
:10D670009B0013445B00FB6002E0FB68013BFB6026
:10D68000FB68002BF9D17B68002283F83C20002343
:10D6900018461037BD4690BC704700BF12000010FE
:10D6A0000020014000230140B801002083DE1B431D
:10D6B00080B483B000AF7860784A784B5B6823F41D
:10D6C000403353607549754B5A687B685B681343F8
:10D6D0004B607B681B687A681268526822F480721B
:10D6E0005A607B681B687A68126851687A681269A8
:10D6F00012020A435A607B681B687A681268526893
:10D7000022F040725A607B681B687A681268516820
:10D710007A6892680A435A607B681B687A68126864
:10D72000926822F400629A607B681B687A681268CB
:10D7300091687A68D2680A439A607B689B6A584A03
:10D74000934222D07B681B687A681268926822F044
:10D7500070629A607B681B687A68126891687A6860
:10D76000926A0A439A607B681B687A6812689268BA
:10D7700022F040529A607B681B687A681268916850
:10D780007A68D26A0A439A600FE07B681B687A68FD
:10D790001268926822F070629A607B681B687A68EF
:10D7A0001268926822F040529A607B681B687A681F
:10D7B0001268926822F002029A607B681B687A689D
:10D7C000126891687A68926952000A439A607B688D
:10D7D00093F82030002B1BD07B681B687A68126896
:10D7E000526842F400625A607B681B687A6812686B
:10D7F000526822F460425A607B681B687A6812683B
:10D8000051687A68526A013A52030A435A6007E043
:10D810007B681B687A681268526822F400625A605A
:10D820007B681B687A681268D26A22F47002DA6236
:10D830007B681B687A681268D16A7A68D269013A93
:10D8400012050A43DA627B681B687A68126892687C
:10D8500022F400729A607B681B687A68126891688B
:10D860007A6892F8302052020A439A607B681B68FB
:10D870007A681268926822F480629A607B681B68FA
:10D880007A68126891687A68526992020A439A60CB
:10D8900000BF0C37BD465DF8047B70470023014094
:10D8A0000100000F80B584B000AF78607B689B6B8F
:10D8B000FB60FB681B6C03F05003002B3CD1FB6842
:10D8C0001B6C43F40072FB681A64FB681B689B685E
:10D8D00003F04053002B2BD1FB689B69002B27D111
:10D8E000FB681B68DB6A03F47003002B06D0FB683F
:10D8F0001B689B6803F48063002B19D1FB681B68CD
:10D90000FA681268526822F020025A60FB681B6CA9
:10D9100023F48072FB681A64FB681B6C03F4805369
:10D92000002B05D1FB681B6C43F00102FB681A64F5
:10D93000F868FFF75FFD0EE0FB681B6C03F0100357
:10D94000002B03D0F868FFF773FD04E0FB689B6BC6
:10D95000DB6C7868984700BF1037BD4680BD80B546
:10D9600084B000AF78607B689B6BFB60F868FFF762
:10D970004BFD00BF1037BD4680BD80B584B000AF01
:10D9800078607B689B6BFB60FB6840221A64FB68D5
:10D990005B6C43F00402FB685A64F868FFF748FDCB
:10D9A00000BF1037BD4680BD80B483B000AF786043
:10D9B00000BF0C37BD465DF8047B704780B485B06E
:10D9C00000AF78607B6803F00703FB600B4BDB68FC
:10D9D000BB60BA684FF6FF031340BB60FB681A02D6
:10D9E000BB681A43064B1343BB60044ABB68D36051
:10D9F00000BF1437BD465DF8047B704700ED00E0C2
:10DA00000000FA0580B400AF044BDB681B0A03F08A
:10DA100007031846BD465DF8047B704700ED00E043
:10DA200080B483B000AF0346FB7197F90730002B39
:10DA30000BDB094997F907305B09FA7902F01F02FD
:10DA4000012000FA02F241F8232000BF0C37BD4646
:10DA50005DF8047B704700BF00E100E080B483B054
:10DA600000AF03463960FB7197F90730002B0ADBE2
:10DA70000D4997F907303A68D2B21201D2B20B447D
:10DA800083F800230AE00949FB7903F00F03043B04
:10DA90003A68D2B21201D2B20B441A7600BF0C37E8
:10DAA000BD465DF8047B704700E100E000ED00E05A
:10DAB00080B489B000AFF860B9607A60FB6803F0A9
:10DAC0000703FB61FB69C3F10703042B28BF042391
:10DAD000BB61FB690433062B02D9FB69033B00E001
:10DAE00000237B610122BB6902FA03F35A1EBB6863
:10DAF0001A407B699A4001217B6901FA03F3591EA0
:10DB00007B680B40134318462437BD465DF8047B01
:10DB10007047000080B582B000AF78607B68013B41
:10DB2000B3F1807F01D301230FE00A4A7B68013BF8
:10DB300053600F214FF0FF30FFF790FF054B00229D
:10DB40009A60044B07221A60002318460837BD4626
:10DB500080BD00BF10E000E080B582B000AF78600B
:10DB60007868FFF72BFF00BF0837BD4680BD80B542
:10DB700086B000AF0346B9607A60FB7300237B6117
:10DB8000FFF740FF78617A68B9687869FFF790FF1E
:10DB9000024697F90F3011461846FFF75FFF00BFA6
:10DBA0001837BD4680BD80B582B000AF0346FB711B
:10DBB00097F907301846FFF733FF00BF0837BD4617
:10DBC00080BD80B582B000AF78607868FFF7A2FFB3
:10DBD000034618460837BD4680BD000080B586B0B4
:10DBE00000AF786000237B61FFF70EF938617B6836
:10DBF000002B01D1012399E07B68002283F83420B7
:10DC00007B68022283F835207B681B687A6812687B
:10DC1000126822F001021A600FE0FFF7F5F80246E1
:10DC20003B69D31A052B08D97B6820225A657B688B
:10DC3000032283F83520032378E07B681B681B6888
:10DC400003F00103002BE8D17B681B681B687B6134
:10DC50007A69384B13407B617B685A687B689B68A4
:10DC60001A437B68DB681A437B681B691A437B682D
:10DC70005B691A437B689B691A437B68DB691A43BB
:10DC80007B681B6A13437A6913437B617B685B6A19
:10DC9000042B07D17B68DA6A7B681B6B13437A69B4
:10DCA00013437B617B681B687A691A607B681B6819
:10DCB0005B697B617B6923F007037B617B685B6A3F
:10DCC0007A6913437B617B685B6A042B17D17B689D
:10DCD0009B6A7A6913437B617B68DB6A002B0ED0F9
:10DCE000786800F015FB0346002B08D07B684022C3
:10DCF0005A657B68012283F83520012316E07B6892
:10DD00001B687A695A61786800F0CCFA0346FB60B8
:10DD10007B68DB6D3F229A40FB689A607B6800223B
:10DD20005A657B68012283F835200023184618378E
:10DD3000BD4680BD3F8010F080B586B000AFF86072
:10DD4000B9607A603B600023FB75FB689B6D3B61AB
:10DD5000FB6893F83430012B01D1022348E0FB68C3
:10DD6000012283F83420FB6893F83530DBB2012BB5
:10DD700037D1FB68022283F83520FB6800225A6500
:10DD80003B687A68B968F86800F05EFAFB68DB6D9A
:10DD90003F229A403B699A60FB681B68FA681268E8
:10DDA000126842F016021A60FB681B68FA68126873
:10DDB000526942F080025A61FB681B6C002B07D04D
:10DDC000FB681B68FA681268126842F008021A6061
:10DDD000FB681B68FA681268126842F001021A6058
:10DDE00005E0FB68002283F834200223FB75FB7DED
:10DDF00018461837BD4680BD80B584B000AF786046
:10DE00007B689B6DFB60FEF7FFFFB8607B6893F853
:10DE10003530DBB2022B08D07B6880225A657B68E4
:10DE2000002283F83420012352E07B681B687A6863
:10DE30001268126822F016021A607B681B687A6802
:10DE40001268526922F080025A617B681B6C002BB9
:10DE500003D17B689B6C002B07D07B681B687A68BA
:10DE60001268126822F008021A607B681B687A68E0
:10DE70001268126822F001021A6013E0FEF7C4FF74
:10DE80000246BB68D31A052B0CD97B6820225A6541
:10DE90007B68002283F834207B68032283F83520D6
:10DEA000032315E07B681B681B6803F00103002B4C
:10DEB000E4D17B68DB6D3F229A40FB689A607B6807
:10DEC000002283F834207B68012283F83520002368
:10DED00018461037BD4680BD80B483B000AF78606F
:10DEE0007B6893F83530DBB2022B04D07B6880224C
:10DEF0005A6501230CE07B68052283F835207B6896
:10DF00001B687A681268126822F001021A60002306
:10DF100018460C37BD465DF8047B704780B586B067
:10DF200000AF78600023BB60924B1B68924AA2FB53
:10DF300003239B0A7B617B689B6D3B613B691B688C
:10DF4000FB607B68DB6D08229A40FB681340002B66
:10DF50001AD07B681B681B6803F00403002B13D0E6
:10DF60007B681B687A681268126822F004021A60E3
:10DF70007B68DB6D08229A403B699A607B685B6D29
:10DF800043F001027B685A657B68DB6D01229A4091
:10DF9000FB681340002B12D07B681B685B6903F0A1
:10DFA0008003002B0BD07B68DB6D01229A403B691C
:10DFB0009A607B685B6D43F002027B685A657B6800
:10DFC000DB6D04229A40FB681340002B12D07B6863
:10DFD0001B681B6803F00203002B0BD07B68DB6D12
:10DFE00004229A403B699A607B685B6D43F00402AF
:10DFF0007B685A657B68DB6D10229A40FB68134092
:10E00000002B43D07B681B681B6803F00803002BC0
:10E010003CD07B68DB6D10229A403B699A607B683C
:10E020001B681B6803F48023002B18D07B681B68D7
:10E030001B6803F40023002B08D17B681B6C002BAA
:10E0400024D07B681B6C786898471FE07B689B6CCA
:10E05000002B1BD07B689B6C7868984716E07B6828
:10E060001B681B6803F48073002B07D17B681B6857
:10E070007A681268126822F008021A607B681B6CCA
:10E08000002B03D07B681B6C786898477B68DB6D3E
:10E0900020229A40FB681340002B00F08E807B68A2
:10E0A0001B681B6803F01003002B00F086807B6860
:10E0B000DB6D20229A403B699A607B6893F835308B
:10E0C000DBB2052B36D17B681B687A681268126850
:10E0D00022F016021A607B681B687A68126852691F
:10E0E00022F080025A617B681B6C002B03D17B6895
:10E0F0009B6C002B07D07B681B687A6812681268DB
:10E1000022F008021A607B68DB6D3F229A403B696F
:10E110009A607B68002283F834207B68012283F8B0
:10E1200035207B681B6D002B7DD07B681B6D78686C
:10E13000984778E07B681B681B6803F48023002BFA
:10E140001CD07B681B681B6803F40023002B08D1DC
:10E150007B685B6C002B30D07B685B6C7868984781
:10E160002BE07B68DB6B002B27D07B68DB6B786850
:10E17000984722E0B8010020B5814E1B7B681B68E0
:10E180001B6803F48073002B0FD17B681B687A68CF
:10E190001268126822F010021A607B68002283F86D
:10E1A00034207B68012283F835207B68DB6B002BF1
:10E1B00003D07B68DB6B786898477B685B6D002BCE
:10E1C00032D07B685B6D03F00103002B22D07B68AB
:10E1D000052283F835207B681B687A68126812680C
:10E1E00022F001021A60BB680133BB607A69934276
:10E1F00007D87B681B681B6803F00103002BF2D172
:10E2000000E000BF7B68002283F834207B68012295
:10E2100083F835207B68DB6C002B05D07B68DB6CDA
:10E220007868984700E000BF1837BD4680BD00BF42
:10E2300080B483B000AF78607B685B6D18460C37A4
:10E24000BD465DF8047B704780B485B000AFF860D0
:10E25000B9607A603B60FB681B68FA6812681268F4
:10E2600022F480221A60FB681B683A685A60FB68D7
:10E270009B68402B08D1FB681B687A689A60FB6832
:10E280001B68BA68DA6007E0FB681B68BA689A60C6
:10E29000FB681B687A68DA6000BF1437BD465DF81A
:10E2A000047B704780B485B000AF78607B681B68E2
:10E2B000DBB2103B134AA2FB03231B09FB60124A8B
:10E2C000FB6813441B781A467B68DA65FB68032BEE
:10E2D00008D97B681B681A460C4B13401A1D7B68D3
:10E2E0009A6506E07B681B681A46084B13407A68FB
:10E2F00093657B689B6D18461437BD465DF8047BBB
:10E30000704700BFABAAAAAA1C63010800FCFFFF6C
:10E3100080B485B000AF78600023FB737B689B6A94
:10E32000BB607B689B69002B1FD1BB68032B55D852
:10E3300001A252F823F000BF49E300085BE30008A4
:10E3400049E30008DDE300087B68DB6A03F08073C3
:10E35000002B45D00123FB7342E07B68DB6AB3F1FD
:10E36000C07F3FD10123FB733CE07B689B69B3F521
:10E37000005F21D1BB68032B36D801A252F823F0ED
:10E3800091E3000897E3000891E30008A9E300087F
:10E390000123FB732FE07B68DB6A03F08073002BA3
:10E3A00024D00123FB7321E07B68DB6AB3F1C07FDB
:10E3B0001ED10123FB731BE0BB68022B02D9032B88
:10E3C00003D018E00123FB7315E07B68DB6A03F0E0
:10E3D0008073002B0ED00123FB730BE000BF0AE01B
:10E3E00000BF08E000BF06E000BF04E000BF02E09D
:10E3F00000BF00E000BFFB7B18461437BD465DF848
:10E40000047B704780B489B000AF78603960002326
:10E41000FB6100237B6100233B610023BB61002380
:10E42000FB6175E10122FB6902FA03F37B613B6842
:10E430001A687B6913403B613A697B699A4240F0F4
:10E4400064813B685B68022B03D03B685B68122BDE
:10E4500023D1FB69DA087B68083253F82230BB61AC
:10E46000FB6903F007039B000F2202FA03F3DB436F
:10E47000BA691340BB613B681A69FB6903F0070383
:10E480009B0002FA03F3BA691343BB61FB69DA0824
:10E490007B680832B96943F822107B681B68BB614E
:10E4A000FB695B00032202FA03F3DB43BA69134002
:10E4B000BB613B685B6803F00302FB695B0002FA27
:10E4C00003F3BA691343BB617B68BA691A603B689E
:10E4D0005B68012B0BD03B685B68022B07D03B6865
:10E4E0005B68112B03D03B685B68122B30D17B68D3
:10E4F0009B68BB61FB695B00032202FA03F3DB4309
:10E50000BA691340BB613B68DA68FB695B0002FAD9
:10E5100003F3BA691343BB617B68BA699A607B688D
:10E520005B68BB610122FB6902FA03F3DB43BA6952
:10E530001340BB613B685B681B0903F00102FB6988
:10E5400002FA03F3BA691343BB617B68BA695A6084
:10E550007B68DB68BB61FB695B00032202FA03F3A3
:10E56000DB43BA691340BB613B689A68FB695B0097
:10E5700002FA03F3BA691343BB617B68BA69DA60D4
:10E580003B685B6803F08053002B00F0BE80654A57
:10E59000644B5B6C43F480435364624B5B6C03F4E9
:10E5A0008043FB60FB68604AFB699B08023352F8BA
:10E5B0002330BB61FB6903F003039B000F2202FAC7
:10E5C00003F3DB43BA691340BB617B68574A93424C
:10E5D00037D07B68564A934231D07B68554A934284
:10E5E0002BD07B68544A934225D07B68534A934290
:10E5F0001FD07B68524A934219D07B68514A93429C
:10E6000013D07B68504A93420DD07B684F4A9342A7
:10E6100007D07B684E4A934201D1092312E00A23B6
:10E6200010E008230EE007230CE006230AE0052390
:10E6300008E0042306E0032304E0022302E00123B0
:10E6400000E00023FA6902F0030292009340BA69E5
:10E650001343BB613449FB699B080233BA6941F833
:10E6600023203C4B1B68BB613B69DB43BA69134009
:10E67000BB613B685B6803F48033002B03D0BA694D
:10E680003B691343BB61334ABB691360314B5B6821
:10E69000BB613B69DB43BA691340BB613B685B68A4
:10E6A00003F40033002B03D0BA693B691343BB6109
:10E6B000284ABB695360274B9B68BB613B69DB43BE
:10E6C000BA691340BB613B685B6803F48013002B9D
:10E6D00003D0BA693B691343BB611E4ABB699360AF
:10E6E0001C4BDB68BB613B69DB43BA691340BB6110
:10E6F0003B685B6803F40013002B03D0BA693B69E5
:10E700001343BB61134ABB69D360FB690133FB61EF
:10E71000FB690F2B7FF686AE00BF2437BD465DF840
:10E72000047B70470038024000380140000002407E
:10E730000004024000080240000C024000100240A9
:10E740000014024000180240001C02400020024059
:10E7500000240240003C014080B485B000AF7860E6
:10E760000B467B807B681A697B881340002B02D0A4
:10E770000123FB7301E00023FB73FB7B1846143776
:10E78000BD465DF8047B704780B483B000AF78600D
:10E790000B467B8013467B707B78002B03D07A88F6
:10E7A0007B689A6103E07B881A047B689A6100BFEA
:10E7B0000C37BD465DF8047B704780B483B000AF72
:10E7C00078600B467B807B685A697B881A407B881F
:10E7D0009A4204D17B881A047B689A6102E07A88A5
:10E7E0007B689A6100BF0C37BD465DF8047B7047BB
:10E7F00080B582B000AF0346FB80084B5A69FB88A6
:10E800001340002B06D0054AFB885361FB8818464D
:10E8100000F006F800BF0837BD4680BD003C01404F
:10E8200080B483B000AF0346FB8000BF0C37BD4609
:10E830005DF8047B7047000080B582B000AF78605F
:10E840007B68002B01D101237EE07B6893F8413087
:10E85000DBB2002B06D17B68002283F84020786869
:10E86000FBF788FD7B68242283F841207B681B68C6
:10E870007A681268126822F001021A607B681B68CD
:10E880007A68526822F070621A617B681B687A6845
:10E890001268926822F400429A607B68DB68012B60
:10E8A00007D17B681B687A68926842F400429A60DC
:10E8B00006E07B681B687A68926842F404429A60BA
:10E8C0007B68DB68022B04D17B681B684FF4006215
:10E8D0005A607B681A687B681B6859681C4B0B433D
:10E8E00053607B681B687A681268D26822F4004221
:10E8F000DA607B681B687A6811697A68526911432B
:10E900007A68926912020A43DA607B681B687A6847
:10E91000D1697A68126A0A431A607B681B687A6850
:10E920001268126842F001021A607B6800225A6481
:10E930007B68202283F841207B6800221A637B6871
:10E94000002283F84220002318460837BD4680BDC8
:10E950000080000280B588B002AFF8607A601A4685
:10E960000B467B8113463B81FB6893F84130DBB259
:10E97000202B40F0DA80FB6893F84030012B01D166
:10E980000223D3E0FB68012283F84020FEF73CFA23
:10E9900078617B690093192301224FF40041F868E4
:10E9A00000F0E6F90346002B01D00123BEE0FB682E
:10E9B000212283F84120FB68102283F84220FB6863
:10E9C00000225A64FB687A685A62FB683A895A8561
:10E9D000FB6800225A63FB685B8D9BB2FF2B0ED94C
:10E9E000FB68FF221A85FB681B8DDAB27989514BCF
:10E9F00000934FF08073F86800F048FB6CE0FB6810
:10EA00005B8D9AB2FB681A85FB681B8DDAB2798937
:10EA1000484B00934FF00073F86800F037FB5BE061
:10EA20007A69396AF86800F0E3F90346002B01D0EF
:10EA300001237BE0FB681B68FA68526A12789A62CD
:10EA4000FB685B6A5A1CFB685A62FB685B8D9BB271
:10EA5000013B9AB2FB685A85FB681B8D013B9AB259
:10EA6000FB681A85FB685B8D9BB2002B34D0FB687A
:10EA70001B8D002B30D17B6900933B6A00228021E3
:10EA8000F86800F075F90346002B01D001234DE032
:10EA9000FB685B8D9BB2FF2B0ED9FB68FF221A85AA
:10EAA000FB681B8DDAB27989002300934FF08073E5
:10EAB000F86800F0EBFA0FE0FB685B8D9AB2FB6838
:10EAC0001A85FB681B8DDAB27989002300934FF019
:10EAD0000073F86800F0DAFAFB685B8D9BB2002BDC
:10EAE0009ED17A69396AF86800F0C2F90346002BB2
:10EAF00001D001231AE0FB681B682022DA61FB6861
:10EB00001A68FB681B6859680B4B0B405360FB6825
:10EB1000202283F84120FB68002283F84220FB6812
:10EB2000002283F84020002300E002231846183713
:10EB3000BD4680BD0020008000E800FE80B588B0A2
:10EB400002AFF8607A601A460B467B8113463B8120
:10EB5000FB6893F84130DBB2202B40F0DB80FB6890
:10EB600093F84030012B01D10223D4E0FB6801224D
:10EB700083F84020FEF748F978617B6900931923F8
:10EB800001224FF40041F86800F0F2F80346002B30
:10EB900001D00123BFE0FB68222283F84120FB68FB
:10EBA000102283F84220FB6800225A64FB687A68CE
:10EBB0005A62FB683A895A85FB6800225A63FB68EF
:10EBC0005B8D9BB2FF2B0ED9FB68FF221A85FB6879
:10EBD0001B8DDAB27989524B00934FF08073F8683D
:10EBE00000F054FA6DE0FB685B8D9AB2FB681A8501
:10EBF000FB681B8DDAB27989494B00934FF00073A3
:10EC0000F86800F043FA5CE07A69396AF86800F065
:10EC10006BF90346002B01D001237CE0FB685B6AA3
:10EC2000FA681268526AD2B21A70FB685B6A5A1CA0
:10EC3000FB685A62FB681B8D013B9AB2FB681A8520
:10EC4000FB685B8D9BB2013B9AB2FB685A85FB68FF
:10EC50005B8D9BB2002B34D0FB681B8D002B30D119
:10EC60007B6900933B6A00228021F86800F080F8FD
:10EC70000346002B01D001234DE0FB685B8D9BB266
:10EC8000FF2B0ED9FB68FF221A85FB681B8DDAB2B9
:10EC90007989002300934FF08073F86800F0F6F94B
:10ECA0000FE0FB685B8D9AB2FB681A85FB681B8DD1
:10ECB000DAB27989002300934FF00073F86800F00E
:10ECC000E5F9FB685B8D9BB2002B9DD17A69396AAF
:10ECD000F86800F0CDF80346002B01D001231AE0BC
:10ECE000FB681B682022DA61FB681A68FB681B68F6
:10ECF00059680C4B0B405360FB68202283F841207D
:10ED0000FB68002283F84220FB68002283F8402041
:10ED1000002300E0022318461837BD4680BD00BF1F
:10ED20000024008000E800FE80B483B000AF78606B
:10ED30007B681B689B6903F00203022B03D17B688D
:10ED40001B6800229A627B681B689B6903F00103C1
:10ED5000012B07D07B681B687A681268926942F0C1
:10ED600001029A6100BF0C37BD465DF8047B704715
:10ED700080B584B000AFF860B9603B601346FB71AA
:10ED800022E03B68B3F1FF3F1ED0FEF73DF802469C
:10ED9000BB69D21A3B689A4202D83B68002B13D158
:10EDA000FB685B6C43F02002FB685A64FB6820221E
:10EDB00083F84120FB68002283F84220FB68002290
:10EDC00083F8402001230FE0FB681B689A69BB6849
:10EDD0001A40BB689A420CBF01230023DBB21A46DB
:10EDE000FB799A42CDD0002318461037BD4680BD2E
:10EDF00080B584B000AFF860B9607A602CE07A68C2
:10EE0000B968F86800F0DCF80346002B01D0012354
:10EE10002AE0BB68B3F1FF3F1ED0FDF7F5FF0246C5
:10EE20007B68D21ABB689A4202D8BB68002B13D108
:10EE3000FB685B6C43F02002FB685A64FB6820228D
:10EE400083F84120FB68002283F84220FB680022FF
:10EE500083F84020012307E0FB681B689B6903F0EF
:10EE60000203022BCBD1002318461037BD4680BDCC
:10EE700080B584B000AFF860B9607A6028E07A6845
:10EE8000B968F86800F09CF80346002B01D0012314
:10EE900026E0FDF7B9FF02467B68D21ABB689A42AA
:10EEA00002D8BB68002B13D1FB685B6C43F02002D7
:10EEB000FB685A64FB68202283F84120FB6800222B
:10EEC00083F84220FB68002283F84020012307E0FA
:10EED000FB681B689B6903F02003202BCFD1002324
:10EEE00018461037BD4680BD80B584B000AFF860CD
:10EEF000B9607A6055E07A68B968F86800F060F83F
:10EF00000346002B01D0012353E0FB681B689B697B
:10EF100003F02003202B29D1FB681B689B6903F0B9
:10EF20000403042B05D1FB681B8D002B01D00023AB
:10EF30003FE0FB681B682022DA61FB681A68FB6807
:10EF40001B6859681D4B0B405360FB6800225A64D4
:10EF5000FB68202283F84120FB68002283F84220CE
:10EF6000FB68002283F84020012322E0FDF74CFFDC
:10EF700002467B68D21ABB689A4202D8BB68002B53
:10EF80000FD1FB685B6C43F02002FB685A64FB689E
:10EF9000202283F84120FB68002283F840200123CF
:10EFA00007E0FB681B689B6903F00403042BA2D1F4
:10EFB000002318461037BD4680BD00BF00E800FEA4
:10EFC00080B584B000AFF860B9607A60FB681B68F8
:10EFD0009B6903F01003102B51D122E0BB68B3F101
:10EFE000FF3F1ED0FDF710FF02467B68D21ABB68B8
:10EFF0009A4202D8BB68002B13D1FB685B6C43F0CC
:10F000002002FB685A64FB68202283F84120FB68D9
:10F01000002283F84220FB68002283F8402001236D
:10F020002EE0FB681B689B6903F02003202BD5D1E1
:10F03000FB681B681022DA61FB681B682022DA611A
:10F04000F868FFF771FEFB681A68FB681B6859686F
:10F050000D4B0B405360FB685B6C43F00402FB6894
:10F060005A64FB68202283F84120FB68002283F861
:10F070004220FB68002283F84020012300E00023A7
:10F0800018461037BD4680BD00E800FE80B485B04C
:10F0900000AFF8607B600B467B8113467B72FB6898
:10F0A0001A68FB681B685968BB695B0D03F48060D4
:10F0B0000B4B0343DB4319407B89C3F309007B7A85
:10F0C0001B0403F47F0318437B681843BB690343A5
:10F0D0000B43536000BF1437BD465DF8047B704797
:10F0E000FF63FF0380B483B000AF786039607B6852
:10F0F00093F84130DBB2202B38D17B6893F8403055
:10F10000012B01D1022332E07B68012283F84020E9
:10F110007B68242283F841207B681B687A68126828
:10F12000126822F001021A607B681B687A68126814
:10F13000126822F480521A607B681B687A68126831
:10F1400011683A680A431A607B681B687A6812681B
:10F15000126842F001021A607B68202283F8412085
:10F160007B68002283F84020002300E00223184639
:10F170000C37BD465DF8047B704780B485B000AFA6
:10F18000786039607B6893F84130DBB2202B39D14D
:10F190007B6893F84030012B01D1022333E07B6878
:10F1A000012283F840207B68242283F841207B6879
:10F1B0001B687A681268126822F001021A607B6884
:10F1C0001B681B68FB60FB6823F47063FB603B6893
:10F1D0001B02FA681343FB607B681B68FA681A60BD
:10F1E0007B681B687A681268126842F001021A6034
:10F1F0007B68202283F841207B68002283F840202E
:10F20000002300E0022318461437BD465DF8047B56
:10F210007047000080B400AF054A054B1B6843F4FB
:10F220008073136000BFBD465DF8047B704700BF6C
:10F230000070004080B582B000AF00237B60234A9D
:10F24000224B1B6C43F080531364204B1B6C03F068
:10F2500080533B603B681E4A1D4B1B6843F4803360
:10F260001360FDF7D1FD786009E0FDF7CDFD0246A2
:10F270007B68D31AB3F57A7F01D9032322E0144BBC
:10F280005B6803F48033B3F5803FEED1104A104B36
:10F290001B6843F400331360FDF7B6FD786009E0A6
:10F2A000FDF7B2FD02467B68D31AB3F57A7F01D928
:10F2B000032307E0064B5B6803F40033B3F5003F1C
:10F2C000EED1002318460837BD4680BD0038024005
:10F2D0000070004080B586B000AF78600023FB75F9
:10F2E0007B68002B01D101235CE27B681B6803F083
:10F2F0000103002B00F08780964B9B6803F00C0302
:10F30000042B0CD0934B9B6803F00C03082B12D1F9
:10F31000904B5B6803F48003B3F5800F0BD18D4BEA
:10F320001B6803F40033002B6CD07B685B68002BF8
:10F3300068D1012336E27B685B68B3F5803F06D174
:10F34000844A844B1B6843F4803313602EE07B684F
:10F350005B68002B0CD17F4A7E4B1B6823F4803303
:10F3600013607C4A7B4B1B6823F4802313601DE0F1
:10F370007B685B68B3F5A02F0CD1764A754B1B6890
:10F3800043F480231360734A724B1B6843F4803349
:10F3900013600BE06F4A6F4B1B6823F480331360DC
:10F3A0006C4A6C4B1B6823F4802313607B685B689A
:10F3B000002B13D0FDF728FD386108E0FDF724FD90
:10F3C00002463B69D31A642B01D90323EAE1614B5E
:10F3D0001B6803F40033002BF0D014E0FDF714FD9C
:10F3E000386108E0FDF710FD02463B69D31A642B33
:10F3F00001D90323D6E1574B1B6803F40033002BDC
:10F40000F0D100E000BF7B681B6803F00203002B13
:10F4100069D0504B9B6803F00C03002B0BD04D4B75
:10F420009B6803F00C03082B1CD14A4B5B6803F468
:10F430008003002B16D1474B1B6803F00203002BFF
:10F4400005D07B68DB68012B01D00123AAE141498B
:10F45000404B1B6823F0F8027B681B69DB001343F9
:10F460000B6040E07B68DB68002B23D0394A394BC6
:10F470001B6843F001031360FDF7C6FC386108E028
:10F48000FDF7C2FC02463B69D31A022B01D90323C4
:10F4900088E1304B1B6803F00203002BF0D02D49AC
:10F4A0002C4B1B6823F0F8027B681B69DB001343BD
:10F4B0000B6018E0274A274B1B6823F001031360F9
:10F4C000FDF7A2FC386108E0FDF79EFC02463B69AF
:10F4D000D31A022B01D9032364E11E4B1B6803F0EE
:10F4E0000203002BF0D17B681B6803F00803002B9C
:10F4F00038D07B685B69002B19D0164A154B5B6FBF
:10F5000043F001035367FDF77FFC386108E0FDF726
:10F510007BFC02463B69D31A022B01D9032341E14C
:10F520000C4B5B6F03F00203002BF0D01AE0094A8A
:10F53000084B5B6F23F001035367FDF765FC3861EF
:10F540000AE0FDF761FC02463B69D31A022B03D99E
:10F55000032327E100380240944B5B6F03F0020362
:10F56000002BEED17B681B6803F00403002B00F036
:10F57000A4808E4B1B6C03F08053002B0DD18B4A63
:10F580008A4B1B6C43F080531364884B1B6C03F055
:10F590008053FB60FB680123FB75854B1B6803F4FC
:10F5A0008073002B18D1824A814B1B6843F480730F
:10F5B0001360FDF729FC386108E0FDF725FC0246E1
:10F5C0003B69D31A642B01D90323EBE0784B1B680A
:10F5D00003F48073002BF0D07B689B68012B06D16D
:10F5E000724A724B1B6F43F0010313672DE07B6877
:10F5F0009B68002B0CD16D4A6C4B1B6F23F00103F1
:10F6000013676A4A694B1B6F23F0040313671CE0FE
:10F610007B689B68052B0CD1644A644B1B6F43F0DD
:10F6200004031367614A614B1B6F43F001031367C7
:10F630000BE05E4A5D4B1B6F23F0010313675B4ACF
:10F640005A4B1B6F23F0040313677B689B68002BE6
:10F6500015D0FDF7D9FB38610AE0FDF7D5FB02466E
:10F660003B69D31A41F28832934201D9032399E0CE
:10F670004E4B1B6F03F00203002BEED014E0FDF79E
:10F68000C3FB38610AE0FDF7BFFB02463B69D31AB2
:10F6900041F28832934201D9032383E0434B1B6F2D
:10F6A00003F00203002BEED1FB7D012B05D13F4A75
:10F6B0003E4B1B6C23F0805313647B689B69002BCB
:10F6C0006FD03A4B9B6803F00C03082B67D07B6824
:10F6D0009B69022B49D1354A344B1B6823F0807358
:10F6E0001360FDF791FB386108E0FDF78DFB0246E2
:10F6F0003B69D31A022B01D9032353E02B4B1B6820
:10F7000003F00073002BF0D128497B68DA697B682D
:10F710001B6A1A437B685B6A9B011A437B689B6A7E
:10F720005B08013B1B041A437B68DB6A1B0613431F
:10F7300043F000534B601D4A1C4B1B6843F0807321
:10F740001360FDF761FB386108E0FDF75DFB0246E1
:10F750003B69D31A022B01D9032323E0134B1B6807
:10F7600003F00073002BF0D01BE0104A0F4B1B6816
:10F7700023F080731360FDF747FB386108E0FDF765
:10F7800043FB02463B69D31A022B01D9032309E04C
:10F79000064B1B6803F00073002BF0D101E001233E
:10F7A00000E0002318461837BD4680BD00380240EF
:10F7B0000070004080B584B000AF786039600023ED
:10F7C000FB607B68002B01D10123CEE0694B1B68F5
:10F7D00003F00F023B689A4210D26649654B1B68E2
:10F7E00023F00F023B6813430B60624B1B6803F06E
:10F7F0000F023B689A4201D00123B6E07B681B6888
:10F8000003F00203002B20D07B681B6803F0040385
:10F81000002B05D0584A584B9B6843F4E053936043
:10F820007B681B6803F00803002B05D0524A524B3B
:10F830009B6843F4604393604F494F4B9B6823F0B0
:10F84000F0027B689B6813438B607B681B6803F046
:10F850000103002B40D07B685B68012B07D1464B2E
:10F860001B6803F40033002B15D101237DE07B6876
:10F870005B68022B07D1404B1B6803F00073002B21
:10F8800009D1012371E03C4B1B6803F00203002BFC
:10F8900001D1012369E03849374B9B6823F003020B
:10F8A0007B685B6813438B60FDF7AEFAF8600AE093
:10F8B000FDF7AAFA0246FB68D31A41F28832934256
:10F8C00001D9032351E02C4B9B6803F00C027B68A9
:10F8D0005B689B009A42EBD1264B1B6803F00F023A
:10F8E0003B689A4210D92349224B1B6823F00F0230
:10F8F0003B6813430B601F4B1B6803F00F023B6810
:10F900009A4201D0012330E07B681B6803F00403B6
:10F91000002B08D01849184B9B6823F4E0527B68F1
:10F92000DB6813438B607B681B6803F00803002BC4
:10F9300009D01149104B9B6823F460427B681B6916
:10F94000DB0013438B6000F01DF801460A4B9B68F7
:10F950001B0903F00F03094AD35C21FA03F3084A99
:10F9600013600020FDF70CFA002318461037BD463F
:10F9700080BD00BF003C0240003802400463010823
:10F98000B80100202DE9F04F8FB000AF0023FB62DB
:10F9900000237B630023BB6200233B63624B9B68B5
:10F9A00003F00C03042B07D0082B08D0002B40F0E9
:10F9B000B2805E4B3B63B1E05C4B3B63AEE05A4BC5
:10F9C0005B6803F03F03FB62574B5B6803F4800303
:10F9D000002B4ED0544B5B689B094FF0000440F263
:10F9E000FF114FF0000201EA030102EA04020B4694
:10F9F000144660017862786A40EAD36078625B01FD
:10FA00003B62D7E908345B1A64EB02044FEA8419BD
:10FA100049EA93694FEA8318B8EB030869EB0409D4
:10FA20004FEAC903FB61FB6943EA5873FB614FEA84
:10FA3000C803BB61D7E9068918EB010849EB020945
:10FA40004FEA89237B617B6943EA98537B614FEAE4
:10FA500088233B61D7E9048940464946FB6A4FF059
:10FA600000041A462346F1F7BBF803460C467B63B5
:10FA700043E02D4B5B689B094FF0000440F2FF11FF
:10FA80004FF0000201EA030102EA04020B461446A9
:10FA90006001F860F86840EAD360F8605B01BB6021
:10FAA000D7E902345B1A64EB0204A60146EA9366C6
:10FAB0009D01ED1A66EB0406F3007B607B6843EA68
:10FAC00055737B60EB003B6097E860006D1846EB78
:10FAD00002064FEA862B4BEA955B4FEA852A55468C
:10FAE0005E4628463146FB6A4FF000041A4623461C
:10FAF000F1F776F803460C467B630B4B5B681B0CF7
:10FB000003F0030301335B00BB627A6BBB6AB2FB99
:10FB1000F3F33B6302E0054B3B6300BF3B6B1846CE
:10FB20003C37BD46BDE8F08F003802400024F400A9
:10FB300080B400AF034B1B681846BD465DF8047BDC
:10FB4000704700BFB801002080B500AFFFF7F0FF9D
:10FB50000146054B9B689B0A03F00703034AD35CED
:10FB600021FA03F3184680BD0038024014630108EF
:10FB700080B500AFFFF7DCFF0146054B9B685B0BD0
:10FB800003F00703034AD35C21FA03F3184680BD50
:10FB9000003802401463010880B588B000AF786077
:10FBA00000237B6100233B610023FB600023FB619A
:10FBB0000023BB617B681B6803F00103002B12D09C
:10FBC000694A694B9B6823F4000393606649664B5E
:10FBD0009A687B685B6B13438B607B685B6B002B65
:10FBE00001D10123FB617B681B6803F40023002B18
:10FBF00017D05D495C4BD3F88C3023F440127B68FE
:10FC0000DB6B1343C1F88C307B68DB6BB3F5801F73
:10FC100001D10123FB617B68DB6B002B01D1012348
:10FC2000BB617B681B6803F48013002B17D04E491F
:10FC30004D4BD3F88C3023F440027B681B6C13438C
:10FC4000C1F88C307B681B6CB3F5800F01D10123A8
:10FC5000FB617B681B6C002B01D10123BB617B68BE
:10FC60001B6803F08073002B01D00123FB617B68CC
:10FC70001B6803F02003002B00F08B803A4A3A4BBC
:10FC80001B6C43F080531364374B1B6C03F08053A1
:10FC9000BB60BB68354A354B1B6843F48073136007
:10FCA000FDF7B2F8786108E0FDF7AEF802467B692F
:10FCB000D31A642B01D9032355E32C4B1B6803F49F
:10FCC0008073002BF0D0284B1B6F03F440733B6113
:10FCD0003B69002B35D07B681B6B03F440723B699A
:10FCE0009A422ED0204B1B6F23F440733B611E4A77
:10FCF0001D4B1B6F43F4803313671B4A1A4B1B6F5A
:10FD000023F480331367184A3B691367164B1B6F44
:10FD100003F00103012B14D1FDF776F878610AE0B6
:10FD2000FDF772F802467B69D31A41F2883293429A
:10FD300001D9032317E30C4B1B6F03F00203002BC5
:10FD4000EED07B681B6B03F44073B3F5407F11D199
:10FD50000548054B9B6823F4F8127B68196B044B2C
:10FD60000B40134383600BE00038024000700040FA
:10FD7000FFFCFF0FB04AB04B9B6823F4F81393606D
:10FD8000AD49AD4B1A6F7B681B6BC3F30B03134379
:10FD90000B677B681B6803F01003002B10D0A64A8A
:10FDA000A54BD3F88C3023F08073C2F88C30A24975
:10FDB000A14BD3F88C207B689B6B1343C1F88C302C
:10FDC0007B681B6803F48043002B0AD09A499A4B46
:10FDD000D3F8903023F440327B685B6E1343C1F854
:10FDE00090307B681B6803F40043002B0AD09249D3
:10FDF000914BD3F8903023F440227B689B6E1343E1
:10FE0000C1F890307B681B6803F48033002B0AD064
:10FE10008949894BD3F8903023F440127B68DB6E1C
:10FE20001343C1F890307B681B6803F40033002B48
:10FE30000AD08149804BD3F8903023F440027B688C
:10FE40001B6F1343C1F890307B681B6803F04003BD
:10FE5000002B0AD07849784BD3F8903023F0030276
:10FE60007B685B6C1343C1F890307B681B6803F0C0
:10FE70008003002B0AD070496F4BD3F8903023F0E9
:10FE80000C027B689B6C1343C1F890307B681B6845
:10FE900003F48073002B0AD06749674BD3F8903086
:10FEA00023F030027B68DB6C1343C1F890307B6831
:10FEB0001B6803F40073002B0AD05F495E4BD3F834
:10FEC000903023F0C0027B681B6D1343C1F8903063
:10FED0007B681B6803F48063002B0AD05649564B9D
:10FEE000D3F8903023F440727B685B6D1343C1F804
:10FEF00090307B681B6803F40063002B0AD04E49E6
:10FF00004D4BD3F8903023F440627B689B6D1343D4
:10FF1000C1F890307B681B6803F48053002B0AD033
:10FF20004549454BD3F8903023F440527B68DB6D54
:10FF30001343C1F890307B681B6803F40053002B17
:10FF40000AD03D493C4BD3F8903023F440427B68C3
:10FF50001B6E1343C1F890307B681B6803F4800369
:10FF6000002B0AD03449344BD3F8903023F0806210
:10FF70007B689B6F1343C1F890307B681B6803F468
:10FF80000013002B11D02C492B4BD3F8903023F0C9
:10FF900000627B68DB6F1343C1F890307B68DB6FD6
:10FFA000B3F1006F01D10123BB617B681B6803F0D3
:10FFB0000803002B01D00123BB617B681B6803F49D
:10FFC0008023002B0AD01C491B4BD3F8903023F020
:10FFD00040727B685B6F1343C1F890307B681B688D
:10FFE00003F40003002B0BD01349134BD3F89030CC
:10FFF00023F080527B68D3F880301343C1F89030EF
:020000040801F1
:10000000FB69012B05D07B681B68B3F1007F40F0D2
:10001000D880094A084B1B6823F080631360FCF703
:10002000F3FE78610AE0FCF7EFFE02467B69D31A23
:10003000642B03D9032396E1003802406C4B1B6804
:1000400003F00063002BEED17B681B6803F0010313
:10005000002B21D07B685B6B002B1DD1644BD3F848
:1000600084301B0C03F003033B61614BD3F88430F5
:100070001B0E03F00F03FB605D497B685B689A0110
:100080003B691B041A43FB681B061A437B689B6889
:100090001B071343C1F884307B681B6803F40023FB
:1000A000002B04D07B68DB6BB3F5801F0AD07B6824
:1000B0001B6803F48013002B2ED07B681B6CB3F5F8
:1000C000800F29D14A4BD3F884301B0C03F0030373
:1000D0003B61474BD3F884301B0F03F00703FB60F1
:1000E00043497B685B689A013B691B041A437B6840
:1000F000DB681B061A43FB681B071343C1F88430F7
:100100003B493B4BD3F88C3023F01F027B685B6A82
:10011000013B1343C1F88C307B681B6803F080738C
:10012000002B1DD0324BD3F884301B0E03F00F038D
:100130003B612F4BD3F884301B0F03F00703FB60A8
:100140002B497B685B689A017B681B691B041A4317
:100150003B691B061A43FB681B071343C1F8843035
:100160007B681B6803F00073002B11D020497B686B
:100170005B689A017B681B691B041A437B68DB6818
:100180001B061A437B689B681B071343C1F8843026
:10019000174A174B1B6843F080631360FCF734FE6B
:1001A000786108E0FCF730FE02467B69D31A642BC5
:1001B00001D90323D7E00E4B1B6803F00063002B2B
:1001C000F0D0BB69012B40F0CD80094A084B1B6879
:1001D00023F080531360FCF717FE78610AE0FCF708
:1001E00013FE02467B69D31A642B03D90323BAE0BA
:1001F000003802405E4B1B6803F00053B3F1005F10
:10020000EDD07B681B6803F40023002B03D07B68D0
:10021000DB6B002B09D07B681B6803F48013002B79
:100220002ED07B681B6C002B2AD1514BD3F8883021
:100230001B0C03F003033B614D4BD3F888301B0FBD
:1002400003F00703FB604A497B685B699A013B69DD
:100250001B041A437B689B691B061A43FB681B0738
:100260001343C1F888304249414BD3F88C3023F412
:10027000F8527B689B6A013B1B021343C1F88C3028
:100280007B681B6803F40013002B22D07B68DB6FB4
:10029000B3F1006F1DD1364BD3F888301B0E03F03D
:1002A0000F033B61324BD3F888301B0F03F0070379
:1002B000FB602F497B685B699A017B681B6A1B04A2
:1002C0001A433B691B061A43FB681B071343C1F81B
:1002D00088307B681B6803F00803002B28D0244B70
:1002E000D3F888301B0E03F00F033B61204BD3F88B
:1002F00088301B0C03F00303FB601D497B685B69BE
:100300009A01FB681B041A433B691B061A437B686E
:10031000DB691B071343C1F888301549144BD3F828
:100320008C3023F440327B68DB6A1343C1F88C3095
:100330000F4A0F4B1B6843F080531360FCF764FDBA
:10034000786108E0FCF760FD02467B69D31A642BF4
:1003500001D9032307E0064B1B6803F00053B3F1F8
:10036000005FEFD1002318462037BD4680BD00BF97
:100370000038024080B584B000AF78607B68002B05
:1003800001D1012382E07B6800229A627B6893F8A6
:100390005D30DBB2002B06D17B68002283F85C2045
:1003A0007868FAF711FF7B68022283F85D207B688A
:1003B0001B687A681268126822F040021A607B6833
:1003C000DB68B3F5E06F02D90023FB6002E04FF475
:1003D0008053FB607B68DB68B3F5706F07D07B6888
:1003E000DB68B3F5E06F02D07B6800229A627B681D
:1003F0001B6B002B0BD17B68DB68B3F5E06F03D977
:100400007B6802221A6302E07B6801221A637B6820
:100410001B687A6851687A68926811437A68126931
:1004200011437A68526911437A68926902F4007242
:1004300011437A68D26911437A68126A11437A6863
:10044000926A0A431A607B681B687A689269120C88
:1004500002F004017A68526A11437A68526B1143C0
:100460007A68D2681143FA680A435A607B681B684D
:100470007A681268D26922F40062DA617B6800222D
:100480001A667B68012283F85D2000231846103726
:10049000BD4680BD80B588B002AFF860B9603B60F2
:1004A0001346FB800023FB75FB685B68B3F5827F16
:1004B00012D1FB689B68002B0ED1FB68042283F8E5
:1004C0005D20FA883B6800931346BA68B968F868FB
:1004D00000F005F90346FEE0FB6893F85C30012B61
:1004E00001D10223F7E0FB68012283F85C20FCF7CE
:1004F0008BFC3861FB6893F85D30DBB2012B02D0D6
:100500000223FB75DEE0BB68002B02D0FB88002BCA
:1005100002D10123FB75D5E0FB68042283F85D203E
:10052000FB6800221A66FB68BA681A64FB68FA88DE
:10053000A3F84420FB68FA88A3F84620FB68002251
:100540009A63FB6800229A87FB680022DA87FB68BF
:100550000022DA64FB6800221A65FB68DB68B3F5E9
:10056000E06F08D9FB681B68FA681268526822F4C9
:1005700080525A6007E0FB681B68FA68126852688C
:1005800042F480525A60FB689B68B3F5004F07D174
:10059000FB681B68FA681268126822F480421A60CD
:1005A000FB681B681B6803F04003402B07D0FB6807
:1005B0001B68FA681268126842F040021A60FB6811
:1005C000DB68B3F5E06F66D82FE0FB681B689B68BB
:1005D00003F00103012B16D1FB681B6CFA6812684B
:1005E0000C321278D2B21A70FB681B6C5A1CFB6872
:1005F0001A64FB68B3F846309BB2013B9AB2FB68C1
:10060000A3F8462011E0FCF7FFFB02463B69D21A33
:100610003B689A4203D33B68B3F1FF3F02D13B688A
:10062000002B02D10323FB754CE0FB68B3F8463086
:100630009BB2002BC9D134E0FB681B689B6803F0B8
:100640000103012B15D1FB681B6CFA681268D26894
:1006500092B21A80FB681B6C9A1CFB681A64FB68D8
:10066000B3F846309BB2013B9AB2FB68A3F8462030
:1006700011E0FCF7C9FB02463B69D21A3B689A427B
:1006800003D33B68B3F1FF3F02D13B68002B02D19B
:100690000323FB7516E0FB68B3F846309BB2002BD2
:1006A000CAD13A693968F86800F016FC0346002B95
:1006B00002D0FB6820221A66FB681B6E002B01D05B
:1006C0000123FB75FB68012283F85D20FB68002293
:1006D00083F85C20FB7D18461837BD4680BD80B589
:1006E0008AB000AFF860B9607A607B8001237B62DA
:1006F000002387F82330FB6893F85C30012B01D18D
:100700000223F8E1FB68012283F85C20FCF77CFB04
:10071000F861FB6893F85D30FB76FB685B687B6192
:100720007B887B827B883B82FB7E012B0ED07B69A2
:10073000B3F5827F06D1FB689B68002B02D1FB7E5C
:10074000042B03D0022387F82330CAE1BB68002BB7
:1007500005D07B68002B02D07B88002B03D10123BE
:1007600087F82330BDE1FB6893F85D30DBB2042BE2
:1007700003D0FB68052283F85D20FB6800221A661F
:10078000FB687A681A64FB687A88A3F84620FB68DD
:100790007A88A3F84420FB68BA689A63FB687A8871
:1007A000DA87FB687A889A87FB680022DA64FB683C
:1007B00000221A65FB68DB68B3F5E06F02D83B8A5C
:1007C000012B08D9FB681B68FA681268526822F48A
:1007D00080525A6007E0FB681B68FA68126852682A
:1007E00042F480525A60FB681B681B6803F04003A8
:1007F000402B07D0FB681B68FA681268126842F049
:1008000040021A60FB68DB68B3F5E06F7CD9FB68D7
:100810005B68002B02D07B8A012B69D1FB681B68C7
:10082000FA68926B1288DA60FB689B6B9A1CFB6813
:100830009A63FB68DB8F9BB2013B9AB2FB68DA8755
:1008400056E0FB681B689B6803F00203022B1BD178
:10085000FB68DB8F9BB2002B16D07B6A012B13D178
:10086000FB681B68FA68926B1288DA60FB689B6B06
:100870009A1CFB689A63FB68DB8F9BB2013B9AB2C0
:10088000FB68DA8700237B62FB681B689B6803F0C8
:100890000103012B1CD1FB68B3F846309BB2002B3F
:1008A00016D0FB681B6CFA681268D26892B21A8084
:1008B000FB681B6C9A1CFB681A64FB68B3F8463033
:1008C0009BB2013B9AB2FB68A3F8462001237B62EE
:1008D000FCF79AFA0246FB69D21A3B6B9A4207D39D
:1008E0003B6BB3F1FF3F03D0032387F82330F8E0DD
:1008F000FB68DB8F9BB2002BA3D1FB68B3F84630BB
:100900009BB2002B9DD1DEE0FB685B68002B03D01F
:100910007B8A012B40F0CA80FB68DB8F9BB2012BE6
:1009200012D9FB681B68FA68926B1288DA60FB6860
:100930009B6B9A1CFB689A63FB68DB8F9BB2023B44
:100940009AB2FB68DA87B1E0FB681B680C33FA687F
:10095000926B12781A70FB689B6B5A1CFB689A6347
:10096000FB68DB8F9BB2013B9AB2FB68DA879DE0A4
:10097000FB681B689B6803F00203022B34D1FB6801
:10098000DB8F9BB2002B2FD07B6A012B2CD1FB6815
:10099000DB8F9BB2012B12D9FB681B68FA68926B44
:1009A0001288DA60FB689B6B9A1CFB689A63FB6891
:1009B000DB8F9BB2023B9AB2FB68DA8712E0FB68DE
:1009C0001B680C33FA68926B12781A70FB689B6B89
:1009D0005A1CFB689A63FB68DB8F9BB2013B9AB29F
:1009E000FB68DA8700237B62FB681B689B6803F067
:1009F0000103012B47D1FB68B3F846309BB2002BB3
:100A000041D0FB68B3F846309BB2012B23D9FB6879
:100A10001B6CFA681268D26892B21A80FB681B6C71
:100A20009A1CFB681A64FB68B3F846309BB2023B21
:100A30009AB2FB68A3F84620FB68B3F846309BB235
:100A4000012B1ED8FB681B68FA681268526842F4D2
:100A500080525A6015E0FB681B6CFA6812680C3211
:100A60001278D2B21A70FB681B6C5A1CFB681A64AD
:100A7000FB68B3F846309BB2013B9AB2FB68A3F81F
:100A8000462001237B62FCF7BFF90246FB69D21ABC
:100A90003B6B9A4203D33B6BB3F1FF3F02D13B6BFD
:100AA000002B03D1032387F823301AE0FB68DB8F88
:100AB0009BB2002B7FF45CAFFB68B3F846309BB26F
:100AC000002B7FF455AFFA69396BF86800F05CFAD7
:100AD0000346002B05D0012387F82330FB68202232
:100AE0001A66FB68012283F85D20FB68002283F808
:100AF0005C2097F8233018462837BD4680BD00009B
:100B000080B588B000AF78607B681B685B68FB616C
:100B10007B681B689B68BB61BB6903F04003002BCB
:100B20000ED1BB6903F00103002B09D0FB6903F070
:100B30004003002B04D07B68DB6C78689847CFE0DB
:100B4000BB6903F00203002B09D0FB6903F08003AB
:100B5000002B04D07B681B6D78689847C0E0BB69A8
:100B600003F02003002B0AD1BB6903F04003002BE4
:100B700005D1BB6903F48073002B00F0B180FB69E1
:100B800003F02003002B00F0AB80BB6903F04003AF
:100B9000002B23D07B6893F85D30DBB2032B11D0A0
:100BA0007B681B6E43F004027B681A6600237B613E
:100BB0007B681B68DB687B617B681B689B687B616B
:100BC0007B690BE000233B617B681B68DB683B6152
:100BD0007B681B689B683B613B6981E0BB6903F0F4
:100BE0002003002B14D07B681B6E43F001027B684E
:100BF0001A660023FB607B681B689B68FB607B6850
:100C00001B687A681268126822F040021A60FB685A
:100C1000BB6903F48073002B0CD07B681B6E43F020
:100C200008027B681A660023BB607B681B689B68B0
:100C3000BB60BB687B681B6E002B50D07B681B6859
:100C40007A681268526822F0E0025A607B680122DA
:100C500083F85D20FB6903F00203002B04D1FB69DC
:100C600003F00103002B34D07B681B687A6812689C
:100C7000526822F003025A607B689B6D002B11D0F2
:100C80007B689B6D184A1A657B689B6D1846FDF75B
:100C900023F90346002B05D07B681B6E43F040020E
:100CA0007B681A667B685B6D002B16D07B685B6D7A
:100CB0000D4A1A657B685B6D1846FDF70DF9034612
:100CC000002B0AD07B681B6E43F040027B681A66DB
:100CD00003E0786800F00AF800E000BF00BF00BF42
:100CE0002037BD4680BD00BF010D010880B483B030
:100CF00000AF786000BF0C37BD465DF8047B7047DD
:100D000080B584B000AF78607B689B6BFB60FB684C
:100D10000022A3F84620FB680022DA87F868FFF774
:100D2000E5FF00BF1037BD4680BD80B584B000AF81
:100D3000F860B9603B601346FB714CE03B68B3F16F
:100D4000FF3F48D0FCF760F80246BB69D21A3B6807
:100D50009A4202D23B68002B3DD1FB681B68FA68BF
:100D60001268526822F0E0025A60FB685B68B3F5D3
:100D7000827F11D1FB689B68B3F5004F04D0FB68FC
:100D80009B68B3F5806F07D1FB681B68FA6812682F
:100D9000126822F040021A60FB689B6AB3F5005F9C
:100DA0000FD1FB681B68FA681268126822F40052BF
:100DB0001A60FB681B68FA681268126842F40052F5
:100DC0001A60FB68012283F85D20FB68002283F82B
:100DD0005C2003230FE0FB681B689A68BB681A401D
:100DE000BB689A420CBF01230023DBB21A46FB7991
:100DF0009A42A3D1002318461037BD4680BD80B566
:100E000084B000AFF860B9607A603B6057E0BB68BF
:100E1000B3F5C06F06D17B68002B03D1FB681B685C
:100E20000C331B783B68B3F1FF3F48D0FBF7ECFF76
:100E30000246BB69D21A3B689A4202D23B68002B39
:100E40003DD1FB681B68FA681268526822F0E00224
:100E50005A60FB685B68B3F5827F11D1FB689B68C1
:100E6000B3F5004F04D0FB689B68B3F5806F07D1E2
:100E7000FB681B68FA681268126822F040021A6068
:100E8000FB689B6AB3F5005F0FD1FB681B68FA68CB
:100E90001268126822F400521A60FB681B68FA6834
:100EA0001268126842F400521A60FB68012283F84B
:100EB0005D20FB68002283F85C20032308E0FB68C8
:100EC0001B689A68BB681A407B689A429FD10023CE
:100ED00018461037BD4680BD80B586B002AFF860B9
:100EE000B9607A60FB685B68B3F5827F11D1FB68FB
:100EF0009B68B3F5004F04D0FB689B68B3F5806F27
:100F000007D1FB681B68FA681268126822F0400279
:100F10001A607B680093BB6800228021F868FFF7A5
:100F200004FF0346002B07D0FB681B6E43F0200232
:100F3000FB681A66032323E0FB685B68B3F5827FD6
:100F40001DD1FB689B68B3F5004F04D0FB689B681C
:100F5000B3F5806F13D17B680093BB6800224FF418
:100F6000C061F868FFF74BFF0346002B07D0FB6812
:100F70001B6E43F02002FB681A66032300E0002387
:100F800018461037BD4680BD80B586B002AFF86008
:100F9000B9607A607B680093BB6800224FF4C0514F
:100FA000F868FFF72CFF0346002B07D0FB681B6E89
:100FB00043F02002FB681A66032327E07B68009356
:100FC000BB6800228021F868FFF7AFFE0346002BC4
:100FD00007D0FB681B6E43F02002FB681A660323F0
:100FE00014E07B680093BB6800224FF4C061F8688E
:100FF000FFF705FF0346002B07D0FB681B6E43F08D
:101000002002FB681A66032300E00023184610370D
:10101000BD4680BD80B582B000AF78607B68002B94
:1010200001D101231DE07B6893F83D30DBB2002B3A
:1010300006D17B68002283F83C207868FBF776F8BD
:101040007B68022283F83D207B681A687B68043342
:101050001946104600F0A2FC7B68012283F83D206F
:10106000002318460837BD4680BD000080B485B017
:1010700000AF78607B681B687A681268D26842F0BB
:101080000102DA607B681B689A680C4B1340FB60B6
:10109000FB68062B0BD0FB68B3F5803F07D07B685D
:1010A0001B687A681268126842F001021A60002315
:1010B00018461437BD465DF8047B704707000100F1
:1010C00080B582B000AF78607B68002B01D101232E
:1010D0001DE07B6893F83D30DBB2002B06D17B68C6
:1010E000002283F83C207868FAF772FF7B680222BE
:1010F00083F83D207B681A687B68043319461046E4
:1011000000F04CFC7B68012283F83D200023184648
:101110000837BD4680BD000080B584B000AF786060
:1011200039607B681B6801223968184601F05EF857
:101130007B681B68174A934204D07B681B68164A79
:10114000934201D1012300E00023002B07D07B68EC
:101150001B687A681268526C42F400425A647B68D9
:101160001B689A680D4B1340FB60FB68062B0BD085
:10117000FB68B3F5803F07D07B681B687A6812680C
:10118000126842F001021A60002318461037BD466B
:1011900080BD00BF000001400004014007000100C5
:1011A00080B582B000AF786039607B681B68002230
:1011B0003968184601F01AF87B681B68224A934286
:1011C00004D07B681B68214A934201D1012300E0CF
:1011D0000023002B17D07B681B681A6A41F2111399
:1011E0001340002B0FD17B681B681A6A40F24443FE
:1011F0001340002B07D17B681B687A681268526C19
:1012000022F400425A647B681B681A6A41F2111387
:101210001340002B0FD17B681B681A6A40F24443CD
:101220001340002B07D17B681B687A68126812682C
:1012300022F001021A607B68012283F83D2000231E
:1012400018460837BD4680BD00000140000401403B
:1012500080B584B000AF786039603B680C2B41D812
:1012600001A252F823F000BF9D120108E512010807
:10127000E5120108E5120108AF120108E5120108A4
:10128000E5120108E5120108C1120108E512010882
:10129000E5120108E5120108D31201087B681B68FA
:1012A0007A681268D26842F00202DA601BE07B685A
:1012B0001B687A681268D26842F00402DA6012E0B1
:1012C0007B681B687A681268D26842F00802DA60AC
:1012D00009E07B681B687A681268D26842F01002E5
:1012E000DA6000E000BF7B681B680122396818469D
:1012F00000F07CFF7B681B68174A934204D07B6830
:101300001B68164A934201D1012300E00023002B01
:1013100007D07B681B687A681268526C42F40042FE
:101320005A647B681B689A680D4B1340FB60FB682E
:10133000062B0BD0FB68B3F5803F07D07B681B689A
:101340007A681268126842F001021A600023184697
:101350001037BD4680BD00BF0000014000040140C1
:101360000700010080B582B000AF78607B68002B79
:1013700001D101231DE07B6893F83D30DBB2002BE7
:1013800006D17B68002283F83C20786800F015F8CD
:101390007B68022283F83D207B681A687B680433EF
:1013A0001946104600F0FAFA7B68012283F83D20C6
:1013B000002318460837BD4680BD80B483B000AF17
:1013C000786000BF0C37BD465DF8047B704780B580
:1013D00082B000AF78607B681B681B6903F0020372
:1013E000022B22D17B681B68DB6803F00203022B0F
:1013F0001BD17B681B686FF002021A617B680122B7
:101400001A777B681B689B6903F00303002B03D0EA
:10141000786800F0AFFA05E07868FAF7A9F978681B
:10142000FAF7BAF97B6800221A777B681B681B6998
:1014300003F00403042B22D17B681B68DB6803F0F4
:101440000403042B1BD17B681B686FF004021A6134
:101450007B6802221A777B681B689B6903F44073E0
:10146000002B03D0786800F085FA05E07868FAF779
:101470007FF97868FAF790F97B6800221A777B6821
:101480001B681B6903F00803082B22D17B681B68CB
:10149000DB6803F00803082B1BD17B681B686FF027
:1014A00008021A617B6804221A777B681B68DB6973
:1014B00003F00303002B03D0786800F05BFA05E02B
:1014C0007868FAF755F97868FAF766F97B680022C8
:1014D0001A777B681B681B6903F01003102B22D15D
:1014E0007B681B68DB6803F01003102B1BD17B6843
:1014F0001B686FF010021A617B6808221A777B68FC
:101500001B68DB6903F44073002B03D0786800F09C
:1015100031FA05E07868FAF72BF97868FAF73CF9C0
:101520007B6800221A777B681B681B6903F0010344
:10153000012B0ED17B681B68DB6803F00103012BD4
:1015400007D17B681B686FF001021A617868FAF7AF
:1015500019F97B681B681B6903F08003802B0ED18F
:101560007B681B68DB6803F08003802B07D17B68F6
:101570001B686FF080021A61786800F071FF7B6869
:101580001B681B6903F48073B3F5807F0ED17B6801
:101590001B68DB6803F08003802B07D17B681B6826
:1015A0006FF480721A61786800F064FF7B681B68D2
:1015B0001B6903F04003402B0ED17B681B68DB687E
:1015C00003F04003402B07D17B681B686FF040029B
:1015D0001A61786800F0D8F97B681B681B6903F012
:1015E0002003202B0ED17B681B68DB6803F02003EF
:1015F000202B07D17B681B686FF020021A61786886
:1016000000F024FF00BF0837BD4680BD80B584B020
:1016100000AFF860B9607A60FB6893F83C30012B4A
:1016200001D102238AE0FB68012283F83C20FB6899
:10163000022283F83D207B68002B1BD1FB681868D1
:10164000BB681968BB685A68BB68DB6800F0A4FC1B
:10165000FB681B68FA681268926922F00C029A61B2
:10166000FB681B68FA6812689169BA6892680A4355
:101670009A615AE07B68042B1CD1FB681868BB6830
:101680001968BB685A68BB68DB6800F0F9FCFB6846
:101690001B68FA681268926922F440629A61FB68DA
:1016A0001B68FA6812689169BA68926812020A4364
:1016B0009A613AE07B68082B1BD1FB681868BB680D
:1016C0001968BB685A68BB68DB6800F016FDFB68E8
:1016D0001B68FA681268D26922F00C02DA61FB68B2
:1016E0001B68FA681268D169BA6892680A43DA61BD
:1016F0001BE0FB681868BB681968BB685A68BB6860
:10170000DB6800F036FDFB681B68FA681268D26976
:1017100022F44062DA61FB681B68FA681268D169DA
:10172000BA68926812020A43DA61FB68012283F800
:101730003D20FB68002283F83C2000231846103728
:10174000BD4680BD80B584B000AFF860B9607A60F6
:10175000FB6893F83C30012B01D1022305E1FB68C3
:10176000012283F83C20FB68022283F83D207B683D
:10177000142B00F2F08001A252F823F0D1170108D7
:1017800057190108571901085719010811180108BC
:10179000571901085719010857190108531801086A
:1017A000571901085719010857190108931801081A
:1017B000571901085719010857190108D5180108C8
:1017C0005719010857190108571901081519010877
:1017D000FB681B68B968184600F080F9FB681B6855
:1017E000FA681268926942F008029A61FB681B6805
:1017F000FA681268926922F004029A61FB681B6819
:10180000FA6812689169BA6812690A439A61A3E09A
:10181000FB681B68B968184600F0D2F9FB681B68C2
:10182000FA681268926942F400629A61FB681B6868
:10183000FA681268926922F480629A61FB681B68F8
:10184000FA6812689169BA68126912020A439A61C9
:1018500082E0FB681B68B968184600F029FAFB684B
:101860001B68FA681268D26942F00802DA61FB6804
:101870001B68FA681268D26922F00402DA61FB6818
:101880001B68FA681268D169BA6812690A43DA619A
:1018900062E0FB681B68B968184600F07FFAFB68D5
:1018A0001B68FA681268D26942F40062DA61FB6868
:1018B0001B68FA681268D26922F48062DA61FB68F8
:1018C0001B68FA681268D169BA68126912020A4381
:1018D000DA6141E0FB681B68B968184600F0B6FAA7
:1018E000FB681B68FA681268526D42F008025A657C
:1018F000FB681B68FA681268526D22F004025A6590
:10190000FB681B68FA681268516DBA6812690A436D
:101910005A6521E0FB681B68B968184600F0E8FAD0
:10192000FB681B68FA681268526D42F400625A65DF
:10193000FB681B68FA681268526D22F480625A656F
:10194000FB681B68FA681268516DBA681269120266
:101950000A435A6500E000BFFB68012283F83D207E
:10196000FB68002283F83C20002318461037BD4650
:1019700080BD00BF80B483B000AF786000BF0C377B
:10198000BD465DF8047B704780B483B000AF7860DB
:1019900000BF0C37BD465DF8047B704780B485B04E
:1019A00000AF786039607B681B68FB607B68404AE9
:1019B000934213D07B68B3F1804F0FD07B683D4AD0
:1019C00093420BD07B683C4A934207D07B683B4AEA
:1019D000934203D07B683A4A934208D1FB6823F0D4
:1019E0007003FB603B685B68FA681343FB607B68CD
:1019F0002F4A93422BD07B68B3F1804F27D07B686E
:101A00002C4A934223D07B682B4A93421FD07B6899
:101A10002A4A93421BD07B68294A934217D07B689D
:101A2000284A934213D07B68274A93420FD07B68A1
:101A3000264A93420BD07B68254A934207D07B68A5
:101A4000244A934203D07B68234A934208D1FB681F
:101A500023F44073FB603B68DB68FA681343FB6068
:101A6000FB6823F080023B685B691343FB607B6883
:101A7000FA681A603B689A687B68DA623B681A68A1
:101A80007B689A627B680A4A934203D07B680C4A5F
:101A9000934203D13B681A697B681A637B68012211
:101AA0005A6100BF1437BD465DF8047B704700BF24
:101AB000000001400004004000080040000C00400D
:101AC0000004014000400140004401400048014042
:101AD00000180040001C00400020004080B487B087
:101AE00000AF786039607B681B6A23F001027B6875
:101AF0001A627B681B6A7B617B685B683B617B6801
:101B00009B69FB60FA682B4B1340FB60FB6823F07A
:101B10000303FB603B681B68FA681343FB607B6947
:101B200023F002037B613B689B687A6913437B6106
:101B30007B68214A934203D07B68204A93420CD1B0
:101B40007B6923F008037B613B68DB687A69134398
:101B50007B617B6923F004037B617B68164A9342B7
:101B600003D07B68154A934211D13B6923F48073FB
:101B70003B613B6923F400733B613B685B693A69F5
:101B800013433B613B689B693A6913433B617B6844
:101B90003A695A607B68FA689A613B685A687B6860
:101BA0005A637B687A691A6200BF1C37BD465DF8CC
:101BB000047B70478FFFFEFF0000014000040140DE
:101BC00080B487B000AF786039607B681B6A23F00F
:101BD00010027B681A627B681B6A7B617B685B68AA
:101BE0003B617B689B69FB60FA682E4B1340FB608E
:101BF000FB6823F44073FB603B681B681B02FA68B8
:101C00001343FB607B6923F020037B613B689B6887
